{
    "contractName": "KCLOUD",
    "abi": [
        {
            "anonymous": false,
            "inputs": [
                {
                    "indexed": false,
                    "internalType": "string",
                    "name": "alarm_id",
                    "type": "string"
                },
                {
                    "indexed": false,
                    "internalType": "uint256",
                    "name": "data_id",
                    "type": "uint256"
                },
                {
                    "indexed": false,
                    "internalType": "string",
                    "name": "drum_id",
                    "type": "string"
                },
                {
                    "indexed": false,
                    "internalType": "string",
                    "name": "alarm",
                    "type": "string"
                }
            ],
            "name": "AlarmDismissedEvent",
            "type": "event"
        },
        {
            "anonymous": false,
            "inputs": [
                {
                    "indexed": false,
                    "internalType": "string",
                    "name": "drum_id",
                    "type": "string"
                },
                {
                    "indexed": false,
                    "internalType": "uint256",
                    "name": "time",
                    "type": "uint256"
                },
                {
                    "indexed": false,
                    "internalType": "string",
                    "name": "carrier",
                    "type": "string"
                },
                {
                    "indexed": false,
                    "internalType": "string",
                    "name": "transportation_schedule",
                    "type": "string"
                }
            ],
            "name": "DrumInTransit",
            "type": "event"
        },
        {
            "anonymous": false,
            "inputs": [
                {
                    "indexed": false,
                    "internalType": "string",
                    "name": "drum_id",
                    "type": "string"
                },
                {
                    "indexed": false,
                    "internalType": "uint256",
                    "name": "time",
                    "type": "uint256"
                },
                {
                    "indexed": false,
                    "internalType": "string",
                    "name": "carrier",
                    "type": "string"
                },
                {
                    "indexed": false,
                    "internalType": "string",
                    "name": "transportation_schedule",
                    "type": "string"
                }
            ],
            "name": "DrumInTransit2",
            "type": "event"
        },
        {
            "anonymous": false,
            "inputs": [
                {
                    "indexed": false,
                    "internalType": "string",
                    "name": "drum_id",
                    "type": "string"
                },
                {
                    "indexed": false,
                    "internalType": "uint256",
                    "name": "time",
                    "type": "uint256"
                },
                {
                    "indexed": false,
                    "internalType": "string",
                    "name": "classification",
                    "type": "string"
                },
                {
                    "indexed": false,
                    "internalType": "string",
                    "name": "w_type",
                    "type": "string"
                },
                {
                    "indexed": false,
                    "internalType": "uint256",
                    "name": "date_unix",
                    "type": "uint256"
                },
                {
                    "indexed": false,
                    "internalType": "string",
                    "name": "place_of_occurence",
                    "type": "string"
                },
                {
                    "indexed": false,
                    "internalType": "uint256",
                    "name": "radioactive_concentration",
                    "type": "uint256"
                },
                {
                    "indexed": false,
                    "internalType": "uint256",
                    "name": "pollution_level",
                    "type": "uint256"
                },
                {
                    "indexed": false,
                    "internalType": "string",
                    "name": "waste_acceptance_request",
                    "type": "string"
                }
            ],
            "name": "DrumPackaged",
            "type": "event"
        },
        {
            "anonymous": false,
            "inputs": [
                {
                    "indexed": false,
                    "internalType": "string",
                    "name": "drum_id",
                    "type": "string"
                },
                {
                    "indexed": false,
                    "internalType": "uint256",
                    "name": "time",
                    "type": "uint256"
                },
                {
                    "indexed": false,
                    "internalType": "uint256",
                    "name": "longitude",
                    "type": "uint256"
                },
                {
                    "indexed": false,
                    "internalType": "uint256",
                    "name": "latitude",
                    "type": "uint256"
                }
            ],
            "name": "GPSDataEvent",
            "type": "event"
        },
        {
            "anonymous": false,
            "inputs": [
                {
                    "indexed": false,
                    "internalType": "string",
                    "name": "alarm_id",
                    "type": "string"
                },
                {
                    "indexed": false,
                    "internalType": "uint256",
                    "name": "data_id",
                    "type": "uint256"
                },
                {
                    "indexed": false,
                    "internalType": "string",
                    "name": "alarmType",
                    "type": "string"
                },
                {
                    "indexed": false,
                    "internalType": "string",
                    "name": "drum_id",
                    "type": "string"
                },
                {
                    "indexed": false,
                    "internalType": "string",
                    "name": "alarm",
                    "type": "string"
                }
            ],
            "name": "NewAlarmEvent",
            "type": "event"
        },
        {
            "anonymous": false,
            "inputs": [
                {
                    "indexed": false,
                    "internalType": "string",
                    "name": "drum_id",
                    "type": "string"
                },
                {
                    "indexed": false,
                    "internalType": "uint256",
                    "name": "time",
                    "type": "uint256"
                },
                {
                    "indexed": false,
                    "internalType": "string",
                    "name": "sensor_id",
                    "type": "string"
                }
            ],
            "name": "NewDrumEnrolled",
            "type": "event"
        },
        {
            "anonymous": false,
            "inputs": [
                {
                    "indexed": false,
                    "internalType": "string",
                    "name": "drum_id",
                    "type": "string"
                },
                {
                    "indexed": false,
                    "internalType": "uint256",
                    "name": "time",
                    "type": "uint256"
                },
                {
                    "indexed": false,
                    "internalType": "uint256",
                    "name": "data_id",
                    "type": "uint256"
                },
                {
                    "indexed": false,
                    "internalType": "uint256",
                    "name": "latitude",
                    "type": "uint256"
                },
                {
                    "indexed": false,
                    "internalType": "uint256",
                    "name": "longitude",
                    "type": "uint256"
                },
                {
                    "indexed": false,
                    "internalType": "uint256",
                    "name": "accX",
                    "type": "uint256"
                }
            ],
            "name": "SensorDataEvent",
            "type": "event"
        },
        {
            "anonymous": false,
            "inputs": [
                {
                    "indexed": false,
                    "internalType": "uint256",
                    "name": "data_id",
                    "type": "uint256"
                },
                {
                    "indexed": false,
                    "internalType": "uint256",
                    "name": "accZ",
                    "type": "uint256"
                },
                {
                    "indexed": false,
                    "internalType": "uint256",
                    "name": "temp",
                    "type": "uint256"
                },
                {
                    "indexed": false,
                    "internalType": "uint256",
                    "name": "humi",
                    "type": "uint256"
                },
                {
                    "indexed": false,
                    "internalType": "uint256",
                    "name": "radio",
                    "type": "uint256"
                },
                {
                    "indexed": false,
                    "internalType": "string",
                    "name": "alarm",
                    "type": "string"
                }
            ],
            "name": "SensorDataEvent2",
            "type": "event"
        },
        {
            "anonymous": false,
            "inputs": [
                {
                    "indexed": false,
                    "internalType": "string",
                    "name": "drum_id",
                    "type": "string"
                },
                {
                    "indexed": false,
                    "internalType": "uint256",
                    "name": "time",
                    "type": "uint256"
                },
                {
                    "indexed": false,
                    "internalType": "string",
                    "name": "acquisition",
                    "type": "string"
                },
                {
                    "indexed": false,
                    "internalType": "string",
                    "name": "transferee",
                    "type": "string"
                },
                {
                    "indexed": false,
                    "internalType": "string",
                    "name": "transportation_schedule",
                    "type": "string"
                },
                {
                    "indexed": false,
                    "internalType": "string",
                    "name": "waste_acceptance_request",
                    "type": "string"
                }
            ],
            "name": "TakingOver",
            "type": "event"
        },
        {
            "anonymous": false,
            "inputs": [
                {
                    "indexed": false,
                    "internalType": "string",
                    "name": "drum_id",
                    "type": "string"
                },
                {
                    "indexed": false,
                    "internalType": "uint256",
                    "name": "time",
                    "type": "uint256"
                },
                {
                    "indexed": false,
                    "internalType": "uint256",
                    "name": "longitude",
                    "type": "uint256"
                },
                {
                    "indexed": false,
                    "internalType": "uint256",
                    "name": "latitude",
                    "type": "uint256"
                },
                {
                    "indexed": false,
                    "internalType": "uint256",
                    "name": "storage_id",
                    "type": "uint256"
                },
                {
                    "indexed": false,
                    "internalType": "string",
                    "name": "storage_schedule",
                    "type": "string"
                }
            ],
            "name": "TemporaryStorage",
            "type": "event"
        },
        {
            "anonymous": false,
            "inputs": [
                {
                    "indexed": false,
                    "internalType": "string",
                    "name": "drum_id",
                    "type": "string"
                },
                {
                    "indexed": false,
                    "internalType": "string",
                    "name": "sensor_id",
                    "type": "string"
                }
            ],
            "name": "sensorToDrumPairingEvent",
            "type": "event"
        },
        {
            "inputs": [
                {
                    "internalType": "string",
                    "name": "drum_id",
                    "type": "string"
                },
                {
                    "internalType": "string",
                    "name": "sensor_id",
                    "type": "string"
                }
            ],
            "name": "changeSensor",
            "outputs": [],
            "stateMutability": "nonpayable",
            "type": "function"
        },
        {
            "inputs": [
                {
                    "internalType": "string",
                    "name": "alarm_id",
                    "type": "string"
                },
                {
                    "internalType": "uint256",
                    "name": "data_id",
                    "type": "uint256"
                },
                {
                    "internalType": "string",
                    "name": "drum_id",
                    "type": "string"
                },
                {
                    "internalType": "string",
                    "name": "alarm",
                    "type": "string"
                }
            ],
            "name": "dismissAlarm",
            "outputs": [],
            "stateMutability": "nonpayable",
            "type": "function"
        },
        {
            "inputs": [
                {
                    "internalType": "string",
                    "name": "drum_id",
                    "type": "string"
                },
                {
                    "internalType": "uint256",
                    "name": "time",
                    "type": "uint256"
                },
                {
                    "internalType": "string",
                    "name": "sensor_id",
                    "type": "string"
                }
            ],
            "name": "enrollment",
            "outputs": [],
            "stateMutability": "nonpayable",
            "type": "function"
        },
        {
            "inputs": [
                {
                    "internalType": "string",
                    "name": "drum_id",
                    "type": "string"
                },
                {
                    "internalType": "uint256",
                    "name": "time",
                    "type": "uint256"
                },
                {
                    "internalType": "string",
                    "name": "classification",
                    "type": "string"
                },
                {
                    "internalType": "string",
                    "name": "w_type",
                    "type": "string"
                },
                {
                    "internalType": "uint256",
                    "name": "date_unix",
                    "type": "uint256"
                },
                {
                    "internalType": "string",
                    "name": "place_of_occurence",
                    "type": "string"
                },
                {
                    "internalType": "uint256",
                    "name": "radioactive_concentration",
                    "type": "uint256"
                },
                {
                    "internalType": "uint256",
                    "name": "pollution_level",
                    "type": "uint256"
                },
                {
                    "internalType": "string",
                    "name": "waste_acceptance_request",
                    "type": "string"
                }
            ],
            "name": "packaging",
            "outputs": [],
            "stateMutability": "nonpayable",
            "type": "function"
        },
        {
            "inputs": [
                {
                    "internalType": "uint256",
                    "name": "data_id",
                    "type": "uint256"
                },
                {
                    "internalType": "string",
                    "name": "sensor_id",
                    "type": "string"
                },
                {
                    "internalType": "uint256",
                    "name": "time",
                    "type": "uint256"
                },
                {
                    "internalType": "uint256",
                    "name": "latitude",
                    "type": "uint256"
                },
                {
                    "internalType": "uint256",
                    "name": "longitude",
                    "type": "uint256"
                },
                {
                    "internalType": "uint256",
                    "name": "accX",
                    "type": "uint256"
                },
                {
                    "internalType": "uint256",
                    "name": "accY",
                    "type": "uint256"
                },
                {
                    "internalType": "uint256",
                    "name": "accZ",
                    "type": "uint256"
                },
                {
                    "internalType": "uint256",
                    "name": "temp",
                    "type": "uint256"
                },
                {
                    "internalType": "uint256",
                    "name": "humi",
                    "type": "uint256"
                },
                {
                    "internalType": "uint256",
                    "name": "radio",
                    "type": "uint256"
                }
            ],
            "name": "passSensorData",
            "outputs": [],
            "stateMutability": "nonpayable",
            "type": "function"
        },
        {
            "inputs": [
                {
                    "internalType": "string",
                    "name": "drum_id",
                    "type": "string"
                },
                {
                    "internalType": "uint256",
                    "name": "time",
                    "type": "uint256"
                },
                {
                    "internalType": "string",
                    "name": "acquisition",
                    "type": "string"
                },
                {
                    "internalType": "string",
                    "name": "transferee",
                    "type": "string"
                },
                {
                    "internalType": "string",
                    "name": "transportation_schedule",
                    "type": "string"
                },
                {
                    "internalType": "string",
                    "name": "waste_acceptance_handover",
                    "type": "string"
                }
            ],
            "name": "takingOver",
            "outputs": [],
            "stateMutability": "nonpayable",
            "type": "function"
        },
        {
            "inputs": [
                {
                    "internalType": "string",
                    "name": "drum_id",
                    "type": "string"
                },
                {
                    "internalType": "uint256",
                    "name": "time",
                    "type": "uint256"
                },
                {
                    "internalType": "uint256",
                    "name": "longitude",
                    "type": "uint256"
                },
                {
                    "internalType": "uint256",
                    "name": "latitude",
                    "type": "uint256"
                },
                {
                    "internalType": "uint256",
                    "name": "storage_id",
                    "type": "uint256"
                },
                {
                    "internalType": "string",
                    "name": "storage_schedule",
                    "type": "string"
                }
            ],
            "name": "temporaryStorage",
            "outputs": [],
            "stateMutability": "nonpayable",
            "type": "function"
        },
        {
            "inputs": [
                {
                    "internalType": "string",
                    "name": "drum_id",
                    "type": "string"
                },
                {
                    "internalType": "uint256",
                    "name": "time",
                    "type": "uint256"
                },
                {
                    "internalType": "string",
                    "name": "carrier",
                    "type": "string"
                },
                {
                    "internalType": "string",
                    "name": "transportation_schedule",
                    "type": "string"
                }
            ],
            "name": "transit",
            "outputs": [],
            "stateMutability": "nonpayable",
            "type": "function"
        },
        {
            "inputs": [
                {
                    "internalType": "string",
                    "name": "drum_id",
                    "type": "string"
                },
                {
                    "internalType": "uint256",
                    "name": "time",
                    "type": "uint256"
                },
                {
                    "internalType": "string",
                    "name": "carrier",
                    "type": "string"
                },
                {
                    "internalType": "string",
                    "name": "transportation_schedule",
                    "type": "string"
                }
            ],
            "name": "transit2",
            "outputs": [],
            "stateMutability": "nonpayable",
            "type": "function"
        }
    ],
    "bytecode": "60806040526040516100109061005f565b604051809103906000f08015801561002c573d6000803e3d6000fd5b50600280546001600160a01b0319166001600160a01b039290921691909117905534801561005957600080fd5b5061006c565b6106ab8061166a83390190565b6115ef8061007b6000396000f3fe608060405234801561001057600080fd5b50600436106100935760003560e01c8063aca4742f11610066578063aca4742f146100e6578063bf0af8a1146100f9578063d8b0f4811461010c578063e8c544b71461011f578063f3158c0c1461013257600080fd5b80630ecb6f481461009857806318fb2f21146100ad5780631f518e73146100c057806391b440ba146100d3575b600080fd5b6100ab6100a6366004610bb5565b610145565b005b6100ab6100bb366004610c8f565b61018e565b6100ab6100ce366004610cf3565b6101fe565b6100ab6100e1366004610d62565b610237565b6100ab6100f4366004610dfb565b6107dc565b6100ab610107366004610dfb565b61081f565b6100ab61011a366004610e8d565b610854565b6100ab61012d366004610efa565b610964565b6100ab610140366004610dfb565b610a22565b7ff3a5f947fe924fc3a43a7bf20f90f143373c6b1ba9be11b3fdb5514542986d2186868686868660405161017e9695949392919061104f565b60405180910390a1505050505050565b8160008260405161019f91906110c3565b908152602001604051809103902090805190602001906101c0929190610a57565b507f243e87e2af36dcc83dc397bc3212b2d3ff5c177acb4f24fa9d13e420773187fe82826040516101f29291906110df565b60405180910390a15050565b7fb1e9510308865fc13e0a6ca626d9b758b62ba4014f56dcebc3b9bb48f29b367786868686868660405161017e9695949392919061110d565b7ff9bc8ba21483b7027aa1f34f4ea906928cee4912de92a81bbb87d8dba48306a360008b60405161026891906110c3565b90815260405190819003602001812061028a918c908f908d908d908d90611225565b60405180910390a1604080518c815260208101869052908101849052606081018390526080810182905260c060a082018190526007908201526650726f626c656d60c81b60e08201527f338f7c1e01112e350b72bf948d114055675f61acaa6604da7aa7304a54facc19906101000160405180910390a1600254604051637bb7ca8760e11b8152600481018d90527f09a2fddae7b5badf7a06c333ae5cc3e7acefb2d4a252a050ec6fea67ea1d6bd2916001600160a01b03169063591c515f90829063f76f950e906024016000604051808303816000875af1158015610374573d6000803e3d6000fd5b505050506040513d6000823e601f3d908101601f1916820160405261039c9190810190611261565b6040518263ffffffff1660e01b81526004016103b891906112cf565b6000604051808303816000875af11580156103d7573d6000803e3d6000fd5b505050506040513d6000823e601f3d908101601f191682016040526103ff9190810190611261565b8c60008d60405161041091906110c3565b908152602001604051809103902060008e60405161042e91906110c3565b90815260405190819003602001812061044994939291611305565b60405180910390a1600254604051637bb7ca8760e11b8152600481018d90527f09a2fddae7b5badf7a06c333ae5cc3e7acefb2d4a252a050ec6fea67ea1d6bd2916001600160a01b03169063591c515f90829063f76f950e906024016000604051808303816000875af11580156104c4573d6000803e3d6000fd5b505050506040513d6000823e601f3d908101601f191682016040526104ec9190810190611261565b6040518263ffffffff1660e01b81526004016105089190611372565b6000604051808303816000875af1158015610527573d6000803e3d6000fd5b505050506040513d6000823e601f3d908101601f1916820160405261054f9190810190611261565b8c60008d60405161056091906110c3565b9081526020016040518091039020600260009054906101000a90046001600160a01b03166001600160a01b0316634bc6309a8f896040518363ffffffff1660e01b81526004016105b19291906113a8565b6000604051808303816000875af11580156105d0573d6000803e3d6000fd5b505050506040513d6000823e601f3d908101601f191682016040526105f89190810190611261565b60405161060894939291906113ca565b60405180910390a1600254604051637bb7ca8760e11b8152600481018d90527f09a2fddae7b5badf7a06c333ae5cc3e7acefb2d4a252a050ec6fea67ea1d6bd2916001600160a01b03169063591c515f90829063f76f950e906024016000604051808303816000875af1158015610683573d6000803e3d6000fd5b505050506040513d6000823e601f3d908101601f191682016040526106ab9190810190611261565b6040518263ffffffff1660e01b81526004016106c7919061142f565b6000604051808303816000875af11580156106e6573d6000803e3d6000fd5b505050506040513d6000823e601f3d908101601f1916820160405261070e9190810190611261565b8c60008d60405161071f91906110c3565b9081526020016040518091039020600260009054906101000a90046001600160a01b03166001600160a01b0316634bc6309a8f876040518363ffffffff1660e01b81526004016107709291906113a8565b6000604051808303816000875af115801561078f573d6000803e3d6000fd5b505050506040513d6000823e601f3d908101601f191682016040526107b79190810190611261565b6040516107c79493929190611465565b60405180910390a15050505050505050505050565b7f88b70c70a23c7727432f1a3b28036b2dd082bbbb8988039ca614109d6b8b1a188484848460405161081194939291906114b8565b60405180910390a150505050565b7fef769475476378d281e9255b578eeb9d94eb56fb0c476038afb701d60f3839908484848460405161081194939291906114b8565b7fb264336c2c84b60f200063029a96e118c6bed8010791995d4af9f76a49c56479838383604051610887939291906114f7565b60405180910390a1826000826040516108a091906110c3565b908152602001604051809103902090805190602001906108c1929190610a57565b506108e660405180606001604052806060815260200160608152602001606081525090565b83815260405181906001906108fc9087906110c3565b90815260200160405180910390206000820151816000019080519060200190610926929190610a57565b50602082810151805161093f9260018501920190610a57565b506040820151805161095b916002840191602090910190610a57565b50505050505050565b8660018a60405161097591906110c3565b90815260200160405180910390206001019080519060200190610999929190610a57565b508560018a6040516109ab91906110c3565b908152602001604051809103902060020190805190602001906109cf929190610a57565b507f1dcdc60a3ba80f437d4a46a4d03889466c6e0f166d00a52ec7b8d187709d6c4f898989898989898989604051610a0f9998979695949392919061152c565b60405180910390a1505050505050505050565b7f3b5e5c06a22fb316a29233424e0aff4278542ad2659bddc62c0db9a4fc0e3c4a8484848460405161081194939291906114b8565b828054610a639061114a565b90600052602060002090601f016020900481019282610a855760008555610acb565b82601f10610a9e57805160ff1916838001178555610acb565b82800160010185558215610acb579182015b82811115610acb578251825591602001919060010190610ab0565b50610ad7929150610adb565b5090565b5b80821115610ad75760008155600101610adc565b634e487b7160e01b600052604160045260246000fd5b604051601f8201601f1916810167ffffffffffffffff81118282101715610b2f57610b2f610af0565b604052919050565b600067ffffffffffffffff821115610b5157610b51610af0565b50601f01601f191660200190565b600082601f830112610b7057600080fd5b8135610b83610b7e82610b37565b610b06565b818152846020838601011115610b9857600080fd5b816020850160208301376000918101602001919091529392505050565b60008060008060008060c08789031215610bce57600080fd5b863567ffffffffffffffff80821115610be657600080fd5b610bf28a838b01610b5f565b9750602089013596506040890135915080821115610c0f57600080fd5b610c1b8a838b01610b5f565b95506060890135915080821115610c3157600080fd5b610c3d8a838b01610b5f565b94506080890135915080821115610c5357600080fd5b610c5f8a838b01610b5f565b935060a0890135915080821115610c7557600080fd5b50610c8289828a01610b5f565b9150509295509295509295565b60008060408385031215610ca257600080fd5b823567ffffffffffffffff80821115610cba57600080fd5b610cc686838701610b5f565b93506020850135915080821115610cdc57600080fd5b50610ce985828601610b5f565b9150509250929050565b60008060008060008060c08789031215610d0c57600080fd5b863567ffffffffffffffff80821115610d2457600080fd5b610d308a838b01610b5f565b97506020890135965060408901359550606089013594506080890135935060a0890135915080821115610c7557600080fd5b60008060008060008060008060008060006101608c8e031215610d8457600080fd5b8b359a5060208c013567ffffffffffffffff811115610da257600080fd5b610dae8e828f01610b5f565b9b9e9b9d5050505060408a0135996060810135996080820135995060a0820135985060c0820135975060e08201359650610100820135955061012082013594506101409091013592509050565b60008060008060808587031215610e1157600080fd5b843567ffffffffffffffff80821115610e2957600080fd5b610e3588838901610b5f565b9550602087013594506040870135915080821115610e5257600080fd5b610e5e88838901610b5f565b93506060870135915080821115610e7457600080fd5b50610e8187828801610b5f565b91505092959194509250565b600080600060608486031215610ea257600080fd5b833567ffffffffffffffff80821115610eba57600080fd5b610ec687838801610b5f565b9450602086013593506040860135915080821115610ee357600080fd5b50610ef086828701610b5f565b9150509250925092565b60008060008060008060008060006101208a8c031215610f1957600080fd5b893567ffffffffffffffff80821115610f3157600080fd5b610f3d8d838e01610b5f565b9a5060208c0135995060408c0135915080821115610f5a57600080fd5b610f668d838e01610b5f565b985060608c0135915080821115610f7c57600080fd5b610f888d838e01610b5f565b975060808c0135965060a08c0135915080821115610fa557600080fd5b610fb18d838e01610b5f565b955060c08c0135945060e08c013593506101008c0135915080821115610fd657600080fd5b50610fe38c828d01610b5f565b9150509295985092959850929598565b60005b8381101561100e578181015183820152602001610ff6565b8381111561101d576000848401525b50505050565b6000815180845261103b816020860160208601610ff3565b601f01601f19169290920160200192915050565b60c08152600061106260c0830189611023565b876020840152828103604084015261107a8188611023565b9050828103606084015261108e8187611023565b905082810360808401526110a28186611023565b905082810360a08401526110b68185611023565b9998505050505050505050565b600082516110d5818460208701610ff3565b9190910192915050565b6040815260006110f26040830185611023565b82810360208401526111048185611023565b95945050505050565b60c08152600061112060c0830189611023565b87602084015286604084015285606084015284608084015282810360a08401526110b68185611023565b600181811c9082168061115e57607f821691505b6020821081141561117f57634e487b7160e01b600052602260045260246000fd5b50919050565b8054600090600181811c908083168061119f57607f831692505b60208084108214156111c157634e487b7160e01b600052602260045260246000fd5b838852602088018280156111dc57600181146111ed57611218565b60ff19871682528282019750611218565b60008981526020902060005b87811015611212578154848201529086019084016111f9565b83019850505b5050505050505092915050565b60c08152600061123860c0830189611185565b60208301979097525060408101949094526060840192909252608083015260a090910152919050565b60006020828403121561127357600080fd5b815167ffffffffffffffff81111561128a57600080fd5b8201601f8101841361129b57600080fd5b80516112a9610b7e82610b37565b8181528560208385010111156112be57600080fd5b611104826020830160208601610ff3565b6040815260006112e26040830184611023565b828103602084015260018152600960fb1b60208201526040810191505092915050565b60a08152600061131860a0830187611023565b856020840152828103806040850152600882526748756d696469747960c01b6020830152604081016060850152506113536040820186611185565b905082810360808401526113678185611185565b979650505050505050565b6040815260006113856040830184611023565b828103602084015260018152601560fa1b60208201526040810191505092915050565b6040815260006113bb6040830185611023565b90508260208301529392505050565b60a0815260006113dd60a0830187611023565b856020840152828103806040850152600b82526a54656d706572617475726560a81b60208301526040810160608501525061141b6040820186611185565b905082810360808401526113678185611023565b6040815260006114426040830184611023565b828103602084015260018152602960f91b60208201526040810191505092915050565b60a08152600061147860a0830187611023565b856020840152828103806040850152600d82526c526164696f616374697669747960981b60208301526040810160608501525061141b6040820186611185565b6080815260006114cb6080830187611023565b85602084015282810360408401526114e38186611023565b905082810360608401526113678185611023565b60608152600061150a6060830186611023565b84602084015282810360408401526115228185611023565b9695505050505050565b60006101208083526115408184018d611023565b90508a6020840152828103604084015261155a818b611023565b9050828103606084015261156e818a611023565b905087608084015282810360a08401526115888188611023565b90508560c08401528460e08401528281036101008401526115a98185611023565b9c9b50505050505050505050505056fea264697066735822122047012d6783c77fb9bcd4829b0d6445aced888a6e9cc333d661c648c0c2d529a264736f6c634300080b0033608060405234801561001057600080fd5b5061068b806100206000396000f3fe608060405234801561001057600080fd5b50600436106100575760003560e01c80634bc6309a1461005c578063591c515f146100855780637ba3517e14610098578063ee8a60d0146100ab578063f76f950e146100be575b600080fd5b61006f61006a366004610425565b6100d1565b60405161007c919061049a565b60405180910390f35b61006f6100933660046104cd565b6100ef565b61006f6100a6366004610425565b61011b565b61006f6100b9366004610425565b61012f565b61006f6100cc366004610531565b610143565b60606000600560026100e58583858461026c565b9695505050505050565b6060828260405160200161010492919061054a565b604051602081830303815290604052905092915050565b60606016602060056100e58583858461026c565b60606016602c600a6100e58583858461026c565b6060816101675750506040805180820190915260018152600360fc1b602082015290565b8160005b8115610191578061017b8161058f565b915061018a9050600a836105aa565b915061016b565b60008167ffffffffffffffff8111156101ac576101ac610382565b6040519080825280601f01601f1916602001820160405280156101d6576020820181803683370190505b509050815b8515610263576101ec6001826105cc565b905060006101fb600a886105aa565b61020690600a6105e3565b61021090886105cc565b61021b906030610602565b905060008160f81b90508084848151811061023857610238610627565b60200101906001600160f81b031916908160001a90535061025a600a896105aa565b975050506101db565b50949350505050565b606061027985858561036b565b156102a15750604080518082019091526006815265139bdc9b585b60d21b6020820152610363565b6102be856102af84876105cc565b6102b9858761063d565b61036b565b156102e657506040805180820190915260068152652137b93232b960d11b6020820152610363565b6102f4856102af84876105cc565b61031b57506040805180820190915260068152652230b733b2b960d11b6020820152610363565b8461034357506040805180820190915260068152652137b93232b960d11b6020820152610363565b5060408051808201909152600781526650726f626c656d60c81b60208201525b949350505050565b600082841015801561036357505090911115919050565b634e487b7160e01b600052604160045260246000fd5b600082601f8301126103a957600080fd5b813567ffffffffffffffff808211156103c4576103c4610382565b604051601f8301601f19908116603f011681019082821181831017156103ec576103ec610382565b8160405283815286602085880101111561040557600080fd5b836020870160208301376000602085830101528094505050505092915050565b6000806040838503121561043857600080fd5b823567ffffffffffffffff81111561044f57600080fd5b61045b85828601610398565b95602094909401359450505050565b60005b8381101561048557818101518382015260200161046d565b83811115610494576000848401525b50505050565b60208152600082518060208401526104b981604085016020870161046a565b601f01601f19169190910160400192915050565b600080604083850312156104e057600080fd5b823567ffffffffffffffff808211156104f857600080fd5b61050486838701610398565b9350602085013591508082111561051a57600080fd5b5061052785828601610398565b9150509250929050565b60006020828403121561054357600080fd5b5035919050565b6000835161055c81846020880161046a565b83519083019061057081836020880161046a565b01949350505050565b634e487b7160e01b600052601160045260246000fd5b60006000198214156105a3576105a3610579565b5060010190565b6000826105c757634e487b7160e01b600052601260045260246000fd5b500490565b6000828210156105de576105de610579565b500390565b60008160001904831182151516156105fd576105fd610579565b500290565b600060ff821660ff84168060ff0382111561061f5761061f610579565b019392505050565b634e487b7160e01b600052603260045260246000fd5b6000821982111561065057610650610579565b50019056fea264697066735822122022c9f292d2bcddcbd7674acbfc298132eca26295ce7a193bb82d48718bf54e2c64736f6c634300080b0033",
    "sourcePath": "/home/radblock05/Desktop/kcloud/reactGraphkCLOUD/truffleSide/contracts/kcloud.sol",
    "compiler": {
        "name": "solc",
        "version": "0.8.11+commit.d7f03943"
    },
    "functionHashes": {
        "changeSensor(string,string)": "18fb2f21",
        "dismissAlarm(string,uint256,string,string)": "bf0af8a1",
        "enrollment(string,uint256,string)": "d8b0f481",
        "packaging(string,uint256,string,string,uint256,string,uint256,uint256,string)": "e8c544b7",
        "passSensorData(uint256,string,uint256,uint256,uint256,uint256,uint256,uint256,uint256,uint256,uint256)": "91b440ba",
        "takingOver(string,uint256,string,string,string,string)": "0ecb6f48",
        "temporaryStorage(string,uint256,uint256,uint256,uint256,string)": "1f518e73",
        "transit(string,uint256,string,string)": "aca4742f",
        "transit2(string,uint256,string,string)": "f3158c0c"
    },
    "gasEstimates": {
        "creation": {
            "codeDepositCost": "1123000",
            "executionCost": "infinite",
            "totalCost": "infinite"
        },
        "external": {
            "changeSensor(string,string)": "infinite",
            "dismissAlarm(string,uint256,string,string)": "infinite",
            "enrollment(string,uint256,string)": "infinite",
            "packaging(string,uint256,string,string,uint256,string,uint256,uint256,string)": "infinite",
            "passSensorData(uint256,string,uint256,uint256,uint256,uint256,uint256,uint256,uint256,uint256,uint256)": "infinite",
            "takingOver(string,uint256,string,string,string,string)": "infinite",
            "temporaryStorage(string,uint256,uint256,uint256,uint256,string)": "infinite",
            "transit(string,uint256,string,string)": "infinite",
            "transit2(string,uint256,string,string)": "infinite"
        },
        "internal": {
            "checkGPS(string memory,uint256,uint256,uint256,uint256)": "infinite",
            "compareStrings(string memory,string memory)": "infinite"
        }
    }
}