{
  "contractName": "KCLOUD",
  "abi": [
    {
      "anonymous": false,
      "inputs": [
        {
          "indexed": false,
          "internalType": "uint256",
          "name": "data_id",
          "type": "uint256"
        },
        {
          "indexed": false,
          "internalType": "string",
          "name": "drum_id",
          "type": "string"
        },
        {
          "indexed": false,
          "internalType": "string",
          "name": "alarm",
          "type": "string"
        }
      ],
      "name": "AlarmDismissedEvent",
      "type": "event"
    },
    {
      "anonymous": false,
      "inputs": [
        {
          "indexed": false,
          "internalType": "string",
          "name": "drum_id",
          "type": "string"
        },
        {
          "indexed": false,
          "internalType": "uint256",
          "name": "time",
          "type": "uint256"
        },
        {
          "indexed": false,
          "internalType": "string",
          "name": "carrier",
          "type": "string"
        },
        {
          "indexed": false,
          "internalType": "string",
          "name": "transportation_schedule",
          "type": "string"
        }
      ],
      "name": "DrumInTransit",
      "type": "event"
    },
    {
      "anonymous": false,
      "inputs": [
        {
          "indexed": false,
          "internalType": "string",
          "name": "drum_id",
          "type": "string"
        },
        {
          "indexed": false,
          "internalType": "uint256",
          "name": "time",
          "type": "uint256"
        },
        {
          "indexed": false,
          "internalType": "string",
          "name": "carrier",
          "type": "string"
        },
        {
          "indexed": false,
          "internalType": "string",
          "name": "transportation_schedule",
          "type": "string"
        }
      ],
      "name": "DrumInTransit2",
      "type": "event"
    },
    {
      "anonymous": false,
      "inputs": [
        {
          "indexed": false,
          "internalType": "string",
          "name": "drum_id",
          "type": "string"
        },
        {
          "indexed": false,
          "internalType": "uint256",
          "name": "time",
          "type": "uint256"
        },
        {
          "indexed": false,
          "internalType": "string",
          "name": "classification",
          "type": "string"
        },
        {
          "indexed": false,
          "internalType": "string",
          "name": "w_type",
          "type": "string"
        },
        {
          "indexed": false,
          "internalType": "uint256",
          "name": "date_unix",
          "type": "uint256"
        },
        {
          "indexed": false,
          "internalType": "string",
          "name": "place_of_occurence",
          "type": "string"
        },
        {
          "indexed": false,
          "internalType": "uint256",
          "name": "radioactive_concentration",
          "type": "uint256"
        },
        {
          "indexed": false,
          "internalType": "uint256",
          "name": "pollution_level",
          "type": "uint256"
        },
        {
          "indexed": false,
          "internalType": "string",
          "name": "waste_acceptance_request",
          "type": "string"
        }
      ],
      "name": "DrumPackaged",
      "type": "event"
    },
    {
      "anonymous": false,
      "inputs": [
        {
          "indexed": false,
          "internalType": "string",
          "name": "drum_id",
          "type": "string"
        },
        {
          "indexed": false,
          "internalType": "uint256",
          "name": "time",
          "type": "uint256"
        },
        {
          "indexed": false,
          "internalType": "uint256",
          "name": "longitude",
          "type": "uint256"
        },
        {
          "indexed": false,
          "internalType": "uint256",
          "name": "latitude",
          "type": "uint256"
        }
      ],
      "name": "GPSDataEvent",
      "type": "event"
    },
    {
      "anonymous": false,
      "inputs": [
        {
          "indexed": false,
          "internalType": "uint256",
          "name": "data_id",
          "type": "uint256"
        },
        {
          "indexed": false,
          "internalType": "string",
          "name": "drum_id",
          "type": "string"
        },
        {
          "indexed": false,
          "internalType": "string",
          "name": "alarm",
          "type": "string"
        }
      ],
      "name": "NewAlarmEvent",
      "type": "event"
    },
    {
      "anonymous": false,
      "inputs": [
        {
          "indexed": false,
          "internalType": "string",
          "name": "drum_id",
          "type": "string"
        },
        {
          "indexed": false,
          "internalType": "uint256",
          "name": "time",
          "type": "uint256"
        },
        {
          "indexed": false,
          "internalType": "string",
          "name": "sensor_id",
          "type": "string"
        }
      ],
      "name": "NewDrumEnrolled",
      "type": "event"
    },
    {
      "anonymous": false,
      "inputs": [
        {
          "indexed": false,
          "internalType": "string",
          "name": "drum_id",
          "type": "string"
        },
        {
          "indexed": false,
          "internalType": "uint256",
          "name": "time",
          "type": "uint256"
        },
        {
          "indexed": false,
          "internalType": "uint256",
          "name": "data_id",
          "type": "uint256"
        },
        {
          "indexed": false,
          "internalType": "uint256",
          "name": "latitude",
          "type": "uint256"
        },
        {
          "indexed": false,
          "internalType": "uint256",
          "name": "longitude",
          "type": "uint256"
        },
        {
          "indexed": false,
          "internalType": "uint256",
          "name": "accX",
          "type": "uint256"
        }
      ],
      "name": "SensorDataEvent",
      "type": "event"
    },
    {
      "anonymous": false,
      "inputs": [
        {
          "indexed": false,
          "internalType": "uint256",
          "name": "data_id",
          "type": "uint256"
        },
        {
          "indexed": false,
          "internalType": "uint256",
          "name": "accZ",
          "type": "uint256"
        },
        {
          "indexed": false,
          "internalType": "uint256",
          "name": "temp",
          "type": "uint256"
        },
        {
          "indexed": false,
          "internalType": "uint256",
          "name": "humi",
          "type": "uint256"
        },
        {
          "indexed": false,
          "internalType": "uint256",
          "name": "radio",
          "type": "uint256"
        },
        {
          "indexed": false,
          "internalType": "string",
          "name": "alarm",
          "type": "string"
        }
      ],
      "name": "SensorDataEvent2",
      "type": "event"
    },
    {
      "anonymous": false,
      "inputs": [
        {
          "indexed": false,
          "internalType": "string",
          "name": "drum_id",
          "type": "string"
        },
        {
          "indexed": false,
          "internalType": "uint256",
          "name": "time",
          "type": "uint256"
        },
        {
          "indexed": false,
          "internalType": "string",
          "name": "acquisition",
          "type": "string"
        },
        {
          "indexed": false,
          "internalType": "string",
          "name": "transferee",
          "type": "string"
        },
        {
          "indexed": false,
          "internalType": "string",
          "name": "transportation_schedule",
          "type": "string"
        },
        {
          "indexed": false,
          "internalType": "string",
          "name": "waste_acceptance_request",
          "type": "string"
        }
      ],
      "name": "TakingOver",
      "type": "event"
    },
    {
      "anonymous": false,
      "inputs": [
        {
          "indexed": false,
          "internalType": "string",
          "name": "drum_id",
          "type": "string"
        },
        {
          "indexed": false,
          "internalType": "uint256",
          "name": "time",
          "type": "uint256"
        },
        {
          "indexed": false,
          "internalType": "uint256",
          "name": "longitude",
          "type": "uint256"
        },
        {
          "indexed": false,
          "internalType": "uint256",
          "name": "latitude",
          "type": "uint256"
        },
        {
          "indexed": false,
          "internalType": "uint256",
          "name": "storage_id",
          "type": "uint256"
        },
        {
          "indexed": false,
          "internalType": "string",
          "name": "storage_schedule",
          "type": "string"
        }
      ],
      "name": "TemporaryStorage",
      "type": "event"
    },
    {
      "anonymous": false,
      "inputs": [
        {
          "indexed": false,
          "internalType": "string",
          "name": "drum_id",
          "type": "string"
        },
        {
          "indexed": false,
          "internalType": "string",
          "name": "sensor_id",
          "type": "string"
        }
      ],
      "name": "sensorToDrumPairingEvent",
      "type": "event"
    },
    {
      "inputs": [
        {
          "internalType": "string",
          "name": "drum_id",
          "type": "string"
        },
        {
          "internalType": "uint256",
          "name": "time",
          "type": "uint256"
        },
        {
          "internalType": "string",
          "name": "sensor_id",
          "type": "string"
        }
      ],
      "name": "enrollment",
      "outputs": [],
      "stateMutability": "nonpayable",
      "type": "function"
    },
    {
      "inputs": [
        {
          "internalType": "string",
          "name": "drum_id",
          "type": "string"
        },
        {
          "internalType": "uint256",
          "name": "time",
          "type": "uint256"
        },
        {
          "internalType": "string",
          "name": "classification",
          "type": "string"
        },
        {
          "internalType": "string",
          "name": "w_type",
          "type": "string"
        },
        {
          "internalType": "uint256",
          "name": "date_unix",
          "type": "uint256"
        },
        {
          "internalType": "string",
          "name": "place_of_occurence",
          "type": "string"
        },
        {
          "internalType": "uint256",
          "name": "radioactive_concentration",
          "type": "uint256"
        },
        {
          "internalType": "uint256",
          "name": "pollution_level",
          "type": "uint256"
        },
        {
          "internalType": "string",
          "name": "waste_acceptance_request",
          "type": "string"
        }
      ],
      "name": "packaging",
      "outputs": [],
      "stateMutability": "nonpayable",
      "type": "function"
    },
    {
      "inputs": [
        {
          "internalType": "string",
          "name": "drum_id",
          "type": "string"
        },
        {
          "internalType": "uint256",
          "name": "time",
          "type": "uint256"
        },
        {
          "internalType": "string",
          "name": "carrier",
          "type": "string"
        },
        {
          "internalType": "string",
          "name": "transportation_schedule",
          "type": "string"
        }
      ],
      "name": "transit",
      "outputs": [],
      "stateMutability": "nonpayable",
      "type": "function"
    },
    {
      "inputs": [
        {
          "internalType": "string",
          "name": "drum_id",
          "type": "string"
        },
        {
          "internalType": "uint256",
          "name": "time",
          "type": "uint256"
        },
        {
          "internalType": "string",
          "name": "carrier",
          "type": "string"
        },
        {
          "internalType": "string",
          "name": "transportation_schedule",
          "type": "string"
        }
      ],
      "name": "transit2",
      "outputs": [],
      "stateMutability": "nonpayable",
      "type": "function"
    },
    {
      "inputs": [
        {
          "internalType": "string",
          "name": "sensor_id",
          "type": "string"
        },
        {
          "internalType": "uint256",
          "name": "radio",
          "type": "uint256"
        }
      ],
      "name": "checkRadio",
      "outputs": [
        {
          "internalType": "string",
          "name": "",
          "type": "string"
        }
      ],
      "stateMutability": "nonpayable",
      "type": "function"
    },
    {
      "inputs": [
        {
          "internalType": "string",
          "name": "drum_id",
          "type": "string"
        },
        {
          "internalType": "string",
          "name": "sensor_id",
          "type": "string"
        }
      ],
      "name": "changeSensor",
      "outputs": [],
      "stateMutability": "nonpayable",
      "type": "function"
    },
    {
      "inputs": [
        {
          "internalType": "uint256",
          "name": "data_id",
          "type": "uint256"
        },
        {
          "internalType": "string",
          "name": "sensor_id",
          "type": "string"
        },
        {
          "internalType": "uint256",
          "name": "time",
          "type": "uint256"
        },
        {
          "internalType": "uint256",
          "name": "latitude",
          "type": "uint256"
        },
        {
          "internalType": "uint256",
          "name": "longitude",
          "type": "uint256"
        },
        {
          "internalType": "uint256",
          "name": "accX",
          "type": "uint256"
        },
        {
          "internalType": "uint256",
          "name": "accY",
          "type": "uint256"
        },
        {
          "internalType": "uint256",
          "name": "accZ",
          "type": "uint256"
        },
        {
          "internalType": "uint256",
          "name": "temp",
          "type": "uint256"
        },
        {
          "internalType": "uint256",
          "name": "humi",
          "type": "uint256"
        },
        {
          "internalType": "uint256",
          "name": "radio",
          "type": "uint256"
        }
      ],
      "name": "passSensorData",
      "outputs": [],
      "stateMutability": "nonpayable",
      "type": "function"
    },
    {
      "inputs": [
        {
          "internalType": "string",
          "name": "drum_id",
          "type": "string"
        },
        {
          "internalType": "uint256",
          "name": "time",
          "type": "uint256"
        },
        {
          "internalType": "uint256",
          "name": "longitude",
          "type": "uint256"
        },
        {
          "internalType": "uint256",
          "name": "latitude",
          "type": "uint256"
        },
        {
          "internalType": "uint256",
          "name": "storage_id",
          "type": "uint256"
        },
        {
          "internalType": "string",
          "name": "storage_schedule",
          "type": "string"
        }
      ],
      "name": "temporaryStorage",
      "outputs": [],
      "stateMutability": "nonpayable",
      "type": "function"
    },
    {
      "inputs": [
        {
          "internalType": "string",
          "name": "drum_id",
          "type": "string"
        },
        {
          "internalType": "uint256",
          "name": "time",
          "type": "uint256"
        },
        {
          "internalType": "string",
          "name": "acquisition",
          "type": "string"
        },
        {
          "internalType": "string",
          "name": "transferee",
          "type": "string"
        },
        {
          "internalType": "string",
          "name": "transportation_schedule",
          "type": "string"
        },
        {
          "internalType": "string",
          "name": "waste_acceptance_handover",
          "type": "string"
        }
      ],
      "name": "takingOver",
      "outputs": [],
      "stateMutability": "nonpayable",
      "type": "function"
    },
    {
      "inputs": [
        {
          "internalType": "uint256",
          "name": "data_id",
          "type": "uint256"
        },
        {
          "internalType": "string",
          "name": "drum_id",
          "type": "string"
        },
        {
          "internalType": "string",
          "name": "alarm",
          "type": "string"
        }
      ],
      "name": "NewAlarm",
      "outputs": [],
      "stateMutability": "nonpayable",
      "type": "function"
    },
    {
      "inputs": [
        {
          "internalType": "uint256",
          "name": "data_id",
          "type": "uint256"
        },
        {
          "internalType": "string",
          "name": "drum_id",
          "type": "string"
        },
        {
          "internalType": "string",
          "name": "alarm",
          "type": "string"
        }
      ],
      "name": "dismissAlarm",
      "outputs": [],
      "stateMutability": "nonpayable",
      "type": "function"
    }
  ],
  "bytecode": "0x608060405234801561001057600080fd5b50611a68806100206000396000f3fe608060405234801561001057600080fd5b50600436106100a95760003560e01c80635a41fdb1116100715780635a41fdb11461014e57806391b440ba1461016a578063aca4742f14610186578063d8b0f481146101a2578063e8c544b7146101be578063f3158c0c146101da576100a9565b80630588e8d9146100ae5780630ecb6f48146100ca57806318fb2f21146100e65780631f518e73146101025780634bc6309a1461011e575b600080fd5b6100c860048036038101906100c3919061114a565b6101f6565b005b6100e460048036038101906100df9190610e16565b610236565b005b61010060048036038101906100fb9190610bfc565b61027f565b005b61011c60048036038101906101179190611085565b6102ef565b005b61013860048036038101906101339190610c74565b610338565b6040516101459190611375565b60405180910390f35b6101686004803603810190610163919061114a565b61068f565b005b610184600480360381019061017f91906111d5565b6106cf565b005b6101a0600480360381019061019b9190610d5b565b610818565b005b6101bc60048036038101906101b79190610cd0565b61085b565b005b6101d860048036038101906101d39190610f2f565b610959565b005b6101f460048036038101906101ef9190610d5b565b610a17565b005b7fd5550e9e665010201c807d5c9493fc8c5566d384fc04a36c63212c3ac0069a0c83838360405161022993929190611678565b60405180910390a1505050565b7ff3a5f947fe924fc3a43a7bf20f90f143373c6b1ba9be11b3fdb5514542986d2186868686868660405161026f9695949392919061146d565b60405180910390a1505050505050565b81600082604051610290919061135e565b908152602001604051809103902090805190602001906102b1929190610ab3565b507f243e87e2af36dcc83dc397bc3212b2d3ff5c177acb4f24fa9d13e420773187fe82826040516102e3929190611397565b60405180910390a15050565b7fb1e9510308865fc13e0a6ca626d9b758b62ba4014f56dcebc3b9bb48f29b3677868686868686604051610328969594939291906115a1565b60405180910390a1505050505050565b60606000808460405161034b919061135e565b9081526020016040518091039020805461036490611822565b80601f016020809104026020016040519081016040528092919081815260200182805461039090611822565b80156103dd5780601f106103b2576101008083540402835291602001916103dd565b820191906000526020600020905b8154815290600101906020018083116103c057829003601f168201915b5050505050905060006001826040516103f6919061135e565b9081526020016040518091039020600101805461041290611822565b80601f016020809104026020016040519081016040528092919081815260200182805461043e90611822565b801561048b5780601f106104605761010080835404028352916020019161048b565b820191906000526020600020905b81548152906001019060200180831161046e57829003601f168201915b5050505050905060006104b68260405180606001604052806036815260200161194f60369139610a5a565b156104c057600a90505b6104e2826040518060600160405280603881526020016119d460389139610a5a565b156104ec57600f90505b61050e8260405180606001604052806028815260200161198560289139610a5a565b1561051857600a90505b61053a826040518060600160405280602781526020016119ad60279139610a5a565b1561054457600a90505b61056682604051806060016040528060278152602001611a0c60279139610a5a565b1561057057600290505b60608186116105b2576040518060400160405280600681526020017f6e6f726d616c000000000000000000000000000000000000000000000000000081525090505b818611156105f3576040518060400160405280600681526020017f64616e676572000000000000000000000000000000000000000000000000000081525090505b6002828761060191906117a2565b1115610640576040518060400160405280600681526020017f626f72646572000000000000000000000000000000000000000000000000000081525090505b6000821415610682576040518060400160405280600681526020017f64616e676572000000000000000000000000000000000000000000000000000081525090505b8094505050505092915050565b7f336955b7da7b679d593afc111be7d2bb4f7e8ec3e475b9bc4e278c89d67639fa8383836040516106c293929190611678565b60405180910390a1505050565b6000808b6040516106e0919061135e565b908152602001604051809103902080546106f990611822565b80601f016020809104026020016040519081016040528092919081815260200182805461072590611822565b80156107725780601f1061074757610100808354040283529160200191610772565b820191906000526020600020905b81548152906001019060200180831161075557829003601f168201915b5050505050905060006107858c84610338565b90507ff9bc8ba21483b7027aa1f34f4ea906928cee4912de92a81bbb87d8dba48306a3828c8f8d8d8d6040516107c096959493929190611610565b60405180910390a17f338f7c1e01112e350b72bf948d114055675f61acaa6604da7aa7304a54facc198d8787878786604051610801969594939291906116bd565b60405180910390a150505050505050505050505050565b7f88b70c70a23c7727432f1a3b28036b2dd082bbbb8988039ca614109d6b8b1a188484848460405161084d9493929190611413565b60405180910390a150505050565b7fb264336c2c84b60f200063029a96e118c6bed8010791995d4af9f76a49c5647983838360405161088e939291906113ce565b60405180910390a1826000826040516108a7919061135e565b908152602001604051809103902090805190602001906108c8929190610ab3565b506108d1610b39565b838160000181905250806001856040516108eb919061135e565b90815260200160405180910390206000820151816000019080519060200190610915929190610ab3565b506020820151816001019080519060200190610932929190610ab3565b50604082015181600201908051906020019061094f929190610ab3565b5090505050505050565b8660018a60405161096a919061135e565b9081526020016040518091039020600101908051906020019061098e929190610ab3565b508560018a6040516109a0919061135e565b908152602001604051809103902060020190805190602001906109c4929190610ab3565b507f1dcdc60a3ba80f437d4a46a4d03889466c6e0f166d00a52ec7b8d187709d6c4f898989898989898989604051610a04999897969594939291906114f1565b60405180910390a1505050505050505050565b7f3b5e5c06a22fb316a29233424e0aff4278542ad2659bddc62c0db9a4fc0e3c4a84848484604051610a4c9493929190611413565b60405180910390a150505050565b600081604051602001610a6d919061135e565b6040516020818303038152906040528051906020012083604051602001610a94919061135e565b6040516020818303038152906040528051906020012014905092915050565b828054610abf90611822565b90600052602060002090601f016020900481019282610ae15760008555610b28565b82601f10610afa57805160ff1916838001178555610b28565b82800160010185558215610b28579182015b82811115610b27578251825591602001919060010190610b0c565b5b509050610b359190610b5a565b5090565b60405180606001604052806060815260200160608152602001606081525090565b5b80821115610b73576000816000905550600101610b5b565b5090565b6000610b8a610b858461174a565b611725565b905082815260208101848484011115610ba657610ba5611917565b5b610bb18482856117e0565b509392505050565b600082601f830112610bce57610bcd611912565b5b8135610bde848260208601610b77565b91505092915050565b600081359050610bf681611937565b92915050565b60008060408385031215610c1357610c12611921565b5b600083013567ffffffffffffffff811115610c3157610c3061191c565b5b610c3d85828601610bb9565b925050602083013567ffffffffffffffff811115610c5e57610c5d61191c565b5b610c6a85828601610bb9565b9150509250929050565b60008060408385031215610c8b57610c8a611921565b5b600083013567ffffffffffffffff811115610ca957610ca861191c565b5b610cb585828601610bb9565b9250506020610cc685828601610be7565b9150509250929050565b600080600060608486031215610ce957610ce8611921565b5b600084013567ffffffffffffffff811115610d0757610d0661191c565b5b610d1386828701610bb9565b9350506020610d2486828701610be7565b925050604084013567ffffffffffffffff811115610d4557610d4461191c565b5b610d5186828701610bb9565b9150509250925092565b60008060008060808587031215610d7557610d74611921565b5b600085013567ffffffffffffffff811115610d9357610d9261191c565b5b610d9f87828801610bb9565b9450506020610db087828801610be7565b935050604085013567ffffffffffffffff811115610dd157610dd061191c565b5b610ddd87828801610bb9565b925050606085013567ffffffffffffffff811115610dfe57610dfd61191c565b5b610e0a87828801610bb9565b91505092959194509250565b60008060008060008060c08789031215610e3357610e32611921565b5b600087013567ffffffffffffffff811115610e5157610e5061191c565b5b610e5d89828a01610bb9565b9650506020610e6e89828a01610be7565b955050604087013567ffffffffffffffff811115610e8f57610e8e61191c565b5b610e9b89828a01610bb9565b945050606087013567ffffffffffffffff811115610ebc57610ebb61191c565b5b610ec889828a01610bb9565b935050608087013567ffffffffffffffff811115610ee957610ee861191c565b5b610ef589828a01610bb9565b92505060a087013567ffffffffffffffff811115610f1657610f1561191c565b5b610f2289828a01610bb9565b9150509295509295509295565b60008060008060008060008060006101208a8c031215610f5257610f51611921565b5b60008a013567ffffffffffffffff811115610f7057610f6f61191c565b5b610f7c8c828d01610bb9565b9950506020610f8d8c828d01610be7565b98505060408a013567ffffffffffffffff811115610fae57610fad61191c565b5b610fba8c828d01610bb9565b97505060608a013567ffffffffffffffff811115610fdb57610fda61191c565b5b610fe78c828d01610bb9565b9650506080610ff88c828d01610be7565b95505060a08a013567ffffffffffffffff8111156110195761101861191c565b5b6110258c828d01610bb9565b94505060c06110368c828d01610be7565b93505060e06110478c828d01610be7565b9250506101008a013567ffffffffffffffff8111156110695761106861191c565b5b6110758c828d01610bb9565b9150509295985092959850929598565b60008060008060008060c087890312156110a2576110a1611921565b5b600087013567ffffffffffffffff8111156110c0576110bf61191c565b5b6110cc89828a01610bb9565b96505060206110dd89828a01610be7565b95505060406110ee89828a01610be7565b94505060606110ff89828a01610be7565b935050608061111089828a01610be7565b92505060a087013567ffffffffffffffff8111156111315761113061191c565b5b61113d89828a01610bb9565b9150509295509295509295565b60008060006060848603121561116357611162611921565b5b600061117186828701610be7565b935050602084013567ffffffffffffffff8111156111925761119161191c565b5b61119e86828701610bb9565b925050604084013567ffffffffffffffff8111156111bf576111be61191c565b5b6111cb86828701610bb9565b9150509250925092565b60008060008060008060008060008060006101608c8e0312156111fb576111fa611921565b5b60006112098e828f01610be7565b9b505060208c013567ffffffffffffffff81111561122a5761122961191c565b5b6112368e828f01610bb9565b9a505060406112478e828f01610be7565b99505060606112588e828f01610be7565b98505060806112698e828f01610be7565b97505060a061127a8e828f01610be7565b96505060c061128b8e828f01610be7565b95505060e061129c8e828f01610be7565b9450506101006112ae8e828f01610be7565b9350506101206112c08e828f01610be7565b9250506101406112d28e828f01610be7565b9150509295989b509295989b9093969950565b60006112f08261177b565b6112fa8185611786565b935061130a8185602086016117ef565b61131381611926565b840191505092915050565b60006113298261177b565b6113338185611797565b93506113438185602086016117ef565b80840191505092915050565b611358816117d6565b82525050565b600061136a828461131e565b915081905092915050565b6000602082019050818103600083015261138f81846112e5565b905092915050565b600060408201905081810360008301526113b181856112e5565b905081810360208301526113c581846112e5565b90509392505050565b600060608201905081810360008301526113e881866112e5565b90506113f7602083018561134f565b818103604083015261140981846112e5565b9050949350505050565b6000608082019050818103600083015261142d81876112e5565b905061143c602083018661134f565b818103604083015261144e81856112e5565b9050818103606083015261146281846112e5565b905095945050505050565b600060c082019050818103600083015261148781896112e5565b9050611496602083018861134f565b81810360408301526114a881876112e5565b905081810360608301526114bc81866112e5565b905081810360808301526114d081856112e5565b905081810360a08301526114e481846112e5565b9050979650505050505050565b600061012082019050818103600083015261150c818c6112e5565b905061151b602083018b61134f565b818103604083015261152d818a6112e5565b9050818103606083015261154181896112e5565b9050611550608083018861134f565b81810360a083015261156281876112e5565b905061157160c083018661134f565b61157e60e083018561134f565b81810361010083015261159181846112e5565b90509a9950505050505050505050565b600060c08201905081810360008301526115bb81896112e5565b90506115ca602083018861134f565b6115d7604083018761134f565b6115e4606083018661134f565b6115f1608083018561134f565b81810360a083015261160381846112e5565b9050979650505050505050565b600060c082019050818103600083015261162a81896112e5565b9050611639602083018861134f565b611646604083018761134f565b611653606083018661134f565b611660608083018561134f565b61166d60a083018461134f565b979650505050505050565b600060608201905061168d600083018661134f565b818103602083015261169f81856112e5565b905081810360408301526116b381846112e5565b9050949350505050565b600060c0820190506116d2600083018961134f565b6116df602083018861134f565b6116ec604083018761134f565b6116f9606083018661134f565b611706608083018561134f565b81810360a083015261171881846112e5565b9050979650505050505050565b600061172f611740565b905061173b8282611854565b919050565b6000604051905090565b600067ffffffffffffffff821115611765576117646118e3565b5b61176e82611926565b9050602081019050919050565b600081519050919050565b600082825260208201905092915050565b600081905092915050565b60006117ad826117d6565b91506117b8836117d6565b9250828210156117cb576117ca611885565b5b828203905092915050565b6000819050919050565b82818337600083830152505050565b60005b8381101561180d5780820151818401526020810190506117f2565b8381111561181c576000848401525b50505050565b6000600282049050600182168061183a57607f821691505b6020821081141561184e5761184d6118b4565b5b50919050565b61185d82611926565b810181811067ffffffffffffffff8211171561187c5761187b6118e3565b5b80604052505050565b7f4e487b7100000000000000000000000000000000000000000000000000000000600052601160045260246000fd5b7f4e487b7100000000000000000000000000000000000000000000000000000000600052602260045260246000fd5b7f4e487b7100000000000000000000000000000000000000000000000000000000600052604160045260246000fd5b600080fd5b600080fd5b600080fd5b600080fd5b6000601f19601f8301169050919050565b611940816117d6565b811461194b57600080fd5b5056fe436f6e63656e747261746564207761737465206c6971756964206472756d202d2063656d656e7420736f6c6964696669636174696f6e57617374652066696c746572206472756d202d2063656d656e7420736f6c69646966636174696f6e576173746520726573696e206472756d202d2063656d656e7420736f6c69646966636174696f6e436f6e63656e747261746564207761737465206c6971756964206472756d202d20506172616666696e20736f6c6964696669636174696f6e4a61676368616472756d202d20446573616c74656420506170657220436f6d7072657373696f6ea2646970667358221220f425cbd23092ce2d89aa4ac41dbeb9995d89ade2af1901d94e70c06d5bd883c864736f6c63430008060033",
  "immutableReferences": {},
  "source": "pragma solidity ^0.8.6;\n\nimport \"@openzeppelin/contracts/utils/math/SafeMath.sol\";\n\ncontract KCLOUD {\n    // events \n    event NewDrumEnrolled(string drum_id, uint time, string sensor_id);\n    event DrumPackaged(string drum_id, uint time, string classification, string w_type, uint date_unix, string place_of_occurence, uint radioactive_concentration, uint pollution_level, string waste_acceptance_request);\n    event DrumInTransit(string drum_id, uint time, string carrier, string transportation_schedule);\n    event TemporaryStorage(string drum_id, uint time, uint longitude, uint latitude, uint storage_id,  string storage_schedule);\n    event DrumInTransit2(string drum_id, uint time, string carrier, string transportation_schedule);    \n    event TakingOver(string drum_id, uint time, string acquisition, string transferee, string transportation_schedule, string waste_acceptance_request);\n    event NewAlarmEvent(uint data_id, string drum_id, string alarm);\n    event AlarmDismissedEvent(uint data_id, string drum_id, string alarm);\n    event SensorDataEvent(string drum_id, uint time, uint data_id, uint latitude, uint longitude, uint accX);\n    event SensorDataEvent2(uint data_id, uint accZ, uint temp, uint humi, uint radio, string alarm);\n    event GPSDataEvent(string drum_id, uint time, uint longitude, uint latitude);\n    event sensorToDrumPairingEvent(string drum_id, string sensor_id);\n  \n    mapping (string => string) private sensorToDrumID;\n    mapping (string => Drum) private drumIDToDrum;\n    \n    struct Drum{\n        string drum_id;\n        string classification;\n        string w_type;\n    }\n\n    function enrollment(string memory drum_id, uint time, string memory sensor_id) public {\n        emit NewDrumEnrolled(drum_id, time, sensor_id);        \n        sensorToDrumID[sensor_id] = drum_id;\n        \n        Drum memory my_drum;\n        my_drum.drum_id = drum_id;\n        drumIDToDrum[drum_id] = my_drum;\n    }\n\n    \n    function packaging(string memory drum_id, uint time, string memory classification, string memory w_type, uint date_unix, string memory place_of_occurence, uint radioactive_concentration, uint pollution_level, string memory waste_acceptance_request) public {\n        drumIDToDrum[drum_id].classification = classification;\n        drumIDToDrum[drum_id].w_type = w_type; \n        \n        emit DrumPackaged(drum_id, time, classification, w_type, date_unix, place_of_occurence, radioactive_concentration, pollution_level, waste_acceptance_request);        \n    }\n    \n    \n    function checkGPS(string memory drum_id, uint time, uint decimals, uint longitude, uint latitude) private{\n            emit GPSDataEvent(drum_id, time, longitude, latitude);\n    }\n    \n    function transit(string memory drum_id, uint time, string memory carrier, string memory transportation_schedule) public {\n           emit DrumInTransit(drum_id, time, carrier, transportation_schedule);\n    }\n    function transit2(string memory drum_id, uint time, string memory carrier, string memory transportation_schedule) public {\n           emit DrumInTransit2(drum_id, time, carrier, transportation_schedule);\n    }\n    function checkRadio(string memory sensor_id, uint radio) public returns (string memory) {\n        string memory drum_id = sensorToDrumID[sensor_id];\n        \n        string memory classification = drumIDToDrum[drum_id].classification;\n        uint norm; \n\n        if (compareStrings(classification, \"Concentrated waste liquid drum - cement solidification\")){\n            norm = uint256(10);\n        }\n        if (compareStrings(classification, \"Concentrated waste liquid drum - Paraffin solidification\")){\n            norm = uint256(15);\n        }\n        if (compareStrings(classification, \"Waste filter drum - cement solidifcation\")){\n            norm = uint256(10);\n        }\n        if (compareStrings(classification, \"Waste resin drum - cement solidifcation\")){\n            norm = uint256(10);\n        }\n        if (compareStrings(classification, \"Jagchadrum - Desalted Paper Compression\")){\n            norm = uint256(2);\n        }\n\n        string memory alarm;\n            \n        if (radio <= norm){\n                alarm = \"normal\";\n                //emit SensorDataEvent(drum_id, time, type_name[i], alarm, values[i], normal_range[i]);\n        }\n            \n        if (radio > norm){\n                alarm = \"danger\";\n                //emit SensorDataEvent(drum_id, time, type_name[i], alarm, values[i], normal_range[i]);\n        }\n            \n        if (radio - norm > 2) {\n                alarm = \"border\";\n                //emit SensorDataEvent(drum_id, time, type_name[i], alarm, values[i], normal_range[i]);\n        }\n            \n        if (norm == 0) {\n                alarm = \"danger\";\n                //emit SensorDataEvent(drum_id, time, type_name[i], alarm, values[i], normal_range[i]);\n        }\n        \n        return alarm; \n        }\n    function changeSensor(string memory drum_id, string memory sensor_id) public {\n            sensorToDrumID[sensor_id] = drum_id; \n            emit sensorToDrumPairingEvent(drum_id, sensor_id);\n    }\n\n    function passSensorData(uint data_id, string memory sensor_id, uint time, uint latitude, uint longitude, uint accX, uint accY, uint accZ, uint temp, uint humi, uint radio) public{\n           string memory drum_id = sensorToDrumID[sensor_id];\n           string memory alarm = checkRadio(sensor_id, radio);\n\n           emit SensorDataEvent(drum_id, time, data_id, latitude, longitude, accX);\n           emit SensorDataEvent2(data_id, accZ, temp, humi, radio, alarm);\n    }\n    function temporaryStorage(string memory drum_id, uint time, uint longitude, uint latitude, uint storage_id, string memory storage_schedule) public{\n           emit TemporaryStorage(drum_id, time, longitude, latitude, storage_id, storage_schedule);\n    }\n\n    function takingOver(string memory drum_id, uint time, string memory acquisition, string memory transferee, string memory transportation_schedule, string memory waste_acceptance_handover) public {\n           emit TakingOver(drum_id, time, acquisition, transferee, transportation_schedule, waste_acceptance_handover);\n    }\n    function compareStrings(string memory a, string memory b) private pure returns (bool) {\n            return (keccak256(abi.encodePacked((a))) == keccak256(abi.encodePacked((b))));\n    }\n\n    function NewAlarm(uint data_id, string memory drum_id, string memory alarm) public {\n           emit NewAlarmEvent(data_id, drum_id, alarm);\n    }\n    function dismissAlarm(uint data_id, string memory drum_id, string memory alarm) public {\n            emit AlarmDismissedEvent(data_id, drum_id, alarm);\n    }\n\n}",
  "sourcePath": "/home/radblock05/Desktop/kcloud/reactGraphkCLOUD/truffleSide/contracts/kcloud.sol",
  "compiler": {
    "name": "solc",
    "version": "0.8.6+commit.11564f7e.Emscripten.clang"
  },
  "schemaVersion": "3.4.4",
  "updatedAt": "2021-12-24T17:58:37.869Z",
  "devdoc": {
    "kind": "dev",
    "methods": {},
    "version": 1
  },
  "userdoc": {
    "kind": "user",
    "methods": {},
    "version": 1
  }
}