{
  "contractName": "KCLOUD",
  "abi": [
    {
      "anonymous": false,
      "inputs": [
        {
          "indexed": false,
          "internalType": "string",
          "name": "alarm_id",
          "type": "string"
        },
        {
          "indexed": false,
          "internalType": "string",
          "name": "data_id",
          "type": "string"
        },
        {
          "indexed": false,
          "internalType": "string",
          "name": "drum_id",
          "type": "string"
        },
        {
          "indexed": false,
          "internalType": "string",
          "name": "alarm",
          "type": "string"
        }
      ],
      "name": "AlarmDismissedEvent",
      "type": "event"
    },
    {
      "anonymous": false,
      "inputs": [
        {
          "indexed": false,
          "internalType": "string",
          "name": "drum_id",
          "type": "string"
        },
        {
          "indexed": false,
          "internalType": "uint256",
          "name": "time",
          "type": "uint256"
        },
        {
          "indexed": false,
          "internalType": "string",
          "name": "carrier",
          "type": "string"
        },
        {
          "indexed": false,
          "internalType": "string",
          "name": "transportation_schedule",
          "type": "string"
        }
      ],
      "name": "DrumInTransit",
      "type": "event"
    },
    {
      "anonymous": false,
      "inputs": [
        {
          "indexed": false,
          "internalType": "string",
          "name": "drum_id",
          "type": "string"
        },
        {
          "indexed": false,
          "internalType": "uint256",
          "name": "time",
          "type": "uint256"
        },
        {
          "indexed": false,
          "internalType": "string",
          "name": "carrier",
          "type": "string"
        },
        {
          "indexed": false,
          "internalType": "string",
          "name": "transportation_schedule",
          "type": "string"
        }
      ],
      "name": "DrumInTransit2",
      "type": "event"
    },
    {
      "anonymous": false,
      "inputs": [
        {
          "indexed": false,
          "internalType": "string",
          "name": "drum_id",
          "type": "string"
        },
        {
          "indexed": false,
          "internalType": "uint256",
          "name": "time",
          "type": "uint256"
        },
        {
          "indexed": false,
          "internalType": "string",
          "name": "classification",
          "type": "string"
        },
        {
          "indexed": false,
          "internalType": "string",
          "name": "w_type",
          "type": "string"
        },
        {
          "indexed": false,
          "internalType": "uint256",
          "name": "date_unix",
          "type": "uint256"
        },
        {
          "indexed": false,
          "internalType": "string",
          "name": "place_of_occurence",
          "type": "string"
        },
        {
          "indexed": false,
          "internalType": "uint256",
          "name": "radioactive_concentration",
          "type": "uint256"
        },
        {
          "indexed": false,
          "internalType": "uint256",
          "name": "pollution_level",
          "type": "uint256"
        },
        {
          "indexed": false,
          "internalType": "string",
          "name": "waste_acceptance_request",
          "type": "string"
        }
      ],
      "name": "DrumPackaged",
      "type": "event"
    },
    {
      "anonymous": false,
      "inputs": [
        {
          "indexed": false,
          "internalType": "string",
          "name": "drum_id",
          "type": "string"
        },
        {
          "indexed": false,
          "internalType": "uint256",
          "name": "time",
          "type": "uint256"
        },
        {
          "indexed": false,
          "internalType": "uint256",
          "name": "longitude",
          "type": "uint256"
        },
        {
          "indexed": false,
          "internalType": "uint256",
          "name": "latitude",
          "type": "uint256"
        }
      ],
      "name": "GPSDataEvent",
      "type": "event"
    },
    {
      "anonymous": false,
      "inputs": [
        {
          "indexed": false,
          "internalType": "string",
          "name": "alarm_id",
          "type": "string"
        },
        {
          "indexed": false,
          "internalType": "string",
          "name": "data_id",
          "type": "string"
        },
        {
          "indexed": false,
          "internalType": "string",
          "name": "alarmType",
          "type": "string"
        },
        {
          "indexed": false,
          "internalType": "string",
          "name": "drum_id",
          "type": "string"
        },
        {
          "indexed": false,
          "internalType": "string",
          "name": "alarm",
          "type": "string"
        }
      ],
      "name": "NewAlarmEvent",
      "type": "event"
    },
    {
      "anonymous": false,
      "inputs": [
        {
          "indexed": false,
          "internalType": "string",
          "name": "drum_id",
          "type": "string"
        },
        {
          "indexed": false,
          "internalType": "uint256",
          "name": "time",
          "type": "uint256"
        },
        {
          "indexed": false,
          "internalType": "string",
          "name": "sensor_id",
          "type": "string"
        }
      ],
      "name": "NewDrumEnrolled",
      "type": "event"
    },
    {
      "anonymous": false,
      "inputs": [
        {
          "indexed": false,
          "internalType": "string",
          "name": "drum_id",
          "type": "string"
        },
        {
          "indexed": false,
          "internalType": "uint256",
          "name": "time",
          "type": "uint256"
        },
        {
          "indexed": false,
          "internalType": "string",
          "name": "data_id",
          "type": "string"
        },
        {
          "indexed": false,
          "internalType": "uint256",
          "name": "latitude",
          "type": "uint256"
        },
        {
          "indexed": false,
          "internalType": "uint256",
          "name": "longitude",
          "type": "uint256"
        },
        {
          "indexed": false,
          "internalType": "uint256",
          "name": "accX",
          "type": "uint256"
        }
      ],
      "name": "SensorDataEvent",
      "type": "event"
    },
    {
      "anonymous": false,
      "inputs": [
        {
          "indexed": false,
          "internalType": "string",
          "name": "data_id",
          "type": "string"
        },
        {
          "indexed": false,
          "internalType": "uint256",
          "name": "accZ",
          "type": "uint256"
        },
        {
          "indexed": false,
          "internalType": "uint256",
          "name": "temp",
          "type": "uint256"
        },
        {
          "indexed": false,
          "internalType": "uint256",
          "name": "humi",
          "type": "uint256"
        },
        {
          "indexed": false,
          "internalType": "uint256",
          "name": "radio",
          "type": "uint256"
        },
        {
          "indexed": false,
          "internalType": "string",
          "name": "alarm",
          "type": "string"
        }
      ],
      "name": "SensorDataEvent2",
      "type": "event"
    },
    {
      "anonymous": false,
      "inputs": [
        {
          "indexed": false,
          "internalType": "string",
          "name": "drum_id",
          "type": "string"
        },
        {
          "indexed": false,
          "internalType": "uint256",
          "name": "time",
          "type": "uint256"
        },
        {
          "indexed": false,
          "internalType": "string",
          "name": "acquisition",
          "type": "string"
        },
        {
          "indexed": false,
          "internalType": "string",
          "name": "transferee",
          "type": "string"
        },
        {
          "indexed": false,
          "internalType": "string",
          "name": "transportation_schedule",
          "type": "string"
        },
        {
          "indexed": false,
          "internalType": "string",
          "name": "waste_acceptance_request",
          "type": "string"
        }
      ],
      "name": "TakingOver",
      "type": "event"
    },
    {
      "anonymous": false,
      "inputs": [
        {
          "indexed": false,
          "internalType": "string",
          "name": "drum_id",
          "type": "string"
        },
        {
          "indexed": false,
          "internalType": "uint256",
          "name": "time",
          "type": "uint256"
        },
        {
          "indexed": false,
          "internalType": "uint256",
          "name": "longitude",
          "type": "uint256"
        },
        {
          "indexed": false,
          "internalType": "uint256",
          "name": "latitude",
          "type": "uint256"
        },
        {
          "indexed": false,
          "internalType": "uint256",
          "name": "storage_id",
          "type": "uint256"
        },
        {
          "indexed": false,
          "internalType": "string",
          "name": "storage_schedule",
          "type": "string"
        }
      ],
      "name": "TemporaryStorage",
      "type": "event"
    },
    {
      "anonymous": false,
      "inputs": [
        {
          "indexed": false,
          "internalType": "string",
          "name": "drum_id",
          "type": "string"
        },
        {
          "indexed": false,
          "internalType": "string",
          "name": "sensor_id",
          "type": "string"
        }
      ],
      "name": "sensorToDrumPairingEvent",
      "type": "event"
    },
    {
      "inputs": [
        {
          "internalType": "string",
          "name": "drum_id",
          "type": "string"
        },
        {
          "internalType": "uint256",
          "name": "time",
          "type": "uint256"
        },
        {
          "internalType": "string",
          "name": "sensor_id",
          "type": "string"
        }
      ],
      "name": "enrollment",
      "outputs": [],
      "stateMutability": "nonpayable",
      "type": "function"
    },
    {
      "inputs": [
        {
          "internalType": "string",
          "name": "drum_id",
          "type": "string"
        },
        {
          "internalType": "uint256",
          "name": "time",
          "type": "uint256"
        },
        {
          "internalType": "string",
          "name": "classification",
          "type": "string"
        },
        {
          "internalType": "string",
          "name": "w_type",
          "type": "string"
        },
        {
          "internalType": "uint256",
          "name": "date_unix",
          "type": "uint256"
        },
        {
          "internalType": "string",
          "name": "place_of_occurence",
          "type": "string"
        },
        {
          "internalType": "uint256",
          "name": "radioactive_concentration",
          "type": "uint256"
        },
        {
          "internalType": "uint256",
          "name": "pollution_level",
          "type": "uint256"
        },
        {
          "internalType": "string",
          "name": "waste_acceptance_request",
          "type": "string"
        }
      ],
      "name": "packaging",
      "outputs": [],
      "stateMutability": "nonpayable",
      "type": "function"
    },
    {
      "inputs": [
        {
          "internalType": "string",
          "name": "drum_id",
          "type": "string"
        },
        {
          "internalType": "uint256",
          "name": "time",
          "type": "uint256"
        },
        {
          "internalType": "string",
          "name": "carrier",
          "type": "string"
        },
        {
          "internalType": "string",
          "name": "transportation_schedule",
          "type": "string"
        }
      ],
      "name": "transit",
      "outputs": [],
      "stateMutability": "nonpayable",
      "type": "function"
    },
    {
      "inputs": [
        {
          "internalType": "string",
          "name": "drum_id",
          "type": "string"
        },
        {
          "internalType": "uint256",
          "name": "time",
          "type": "uint256"
        },
        {
          "internalType": "string",
          "name": "carrier",
          "type": "string"
        },
        {
          "internalType": "string",
          "name": "transportation_schedule",
          "type": "string"
        }
      ],
      "name": "transit2",
      "outputs": [],
      "stateMutability": "nonpayable",
      "type": "function"
    },
    {
      "inputs": [
        {
          "internalType": "string",
          "name": "drum_id",
          "type": "string"
        },
        {
          "internalType": "string",
          "name": "sensor_id",
          "type": "string"
        }
      ],
      "name": "changeSensor",
      "outputs": [],
      "stateMutability": "nonpayable",
      "type": "function"
    },
    {
      "inputs": [
        {
          "internalType": "string",
          "name": "data_id",
          "type": "string"
        },
        {
          "internalType": "string",
          "name": "sensor_id",
          "type": "string"
        },
        {
          "internalType": "uint256",
          "name": "time",
          "type": "uint256"
        },
        {
          "internalType": "uint256",
          "name": "latitude",
          "type": "uint256"
        },
        {
          "internalType": "uint256",
          "name": "longitude",
          "type": "uint256"
        },
        {
          "internalType": "uint256",
          "name": "accX",
          "type": "uint256"
        },
        {
          "internalType": "uint256",
          "name": "accY",
          "type": "uint256"
        },
        {
          "internalType": "uint256",
          "name": "accZ",
          "type": "uint256"
        },
        {
          "internalType": "uint256",
          "name": "temp",
          "type": "uint256"
        },
        {
          "internalType": "uint256",
          "name": "humi",
          "type": "uint256"
        },
        {
          "internalType": "uint256",
          "name": "radio",
          "type": "uint256"
        }
      ],
      "name": "passSensorData",
      "outputs": [],
      "stateMutability": "nonpayable",
      "type": "function"
    },
    {
      "inputs": [
        {
          "internalType": "string",
          "name": "data_id",
          "type": "string"
        },
        {
          "internalType": "string",
          "name": "sensor_id",
          "type": "string"
        },
        {
          "internalType": "uint256",
          "name": "time",
          "type": "uint256"
        }
      ],
      "name": "generateRadioAlarm",
      "outputs": [],
      "stateMutability": "nonpayable",
      "type": "function"
    },
    {
      "inputs": [
        {
          "internalType": "string",
          "name": "data_id",
          "type": "string"
        },
        {
          "internalType": "string",
          "name": "sensor_id",
          "type": "string"
        },
        {
          "internalType": "uint256",
          "name": "time",
          "type": "uint256"
        }
      ],
      "name": "generateGPSAlarm",
      "outputs": [],
      "stateMutability": "nonpayable",
      "type": "function"
    },
    {
      "inputs": [
        {
          "internalType": "string",
          "name": "drum_id",
          "type": "string"
        },
        {
          "internalType": "uint256",
          "name": "time",
          "type": "uint256"
        },
        {
          "internalType": "uint256",
          "name": "longitude",
          "type": "uint256"
        },
        {
          "internalType": "uint256",
          "name": "latitude",
          "type": "uint256"
        },
        {
          "internalType": "uint256",
          "name": "storage_id",
          "type": "uint256"
        },
        {
          "internalType": "string",
          "name": "storage_schedule",
          "type": "string"
        }
      ],
      "name": "temporaryStorage",
      "outputs": [],
      "stateMutability": "nonpayable",
      "type": "function"
    },
    {
      "inputs": [
        {
          "internalType": "string",
          "name": "drum_id",
          "type": "string"
        },
        {
          "internalType": "uint256",
          "name": "time",
          "type": "uint256"
        },
        {
          "internalType": "string",
          "name": "acquisition",
          "type": "string"
        },
        {
          "internalType": "string",
          "name": "transferee",
          "type": "string"
        },
        {
          "internalType": "string",
          "name": "transportation_schedule",
          "type": "string"
        },
        {
          "internalType": "string",
          "name": "waste_acceptance_handover",
          "type": "string"
        }
      ],
      "name": "takingOver",
      "outputs": [],
      "stateMutability": "nonpayable",
      "type": "function"
    },
    {
      "inputs": [
        {
          "internalType": "string",
          "name": "alarm_id",
          "type": "string"
        },
        {
          "internalType": "string",
          "name": "data_id",
          "type": "string"
        },
        {
          "internalType": "string",
          "name": "drum_id",
          "type": "string"
        },
        {
          "internalType": "string",
          "name": "alarm",
          "type": "string"
        }
      ],
      "name": "dismissAlarm",
      "outputs": [],
      "stateMutability": "nonpayable",
      "type": "function"
    }
  ],
  "bytecode": "0x608060405234801561001057600080fd5b50611cf6806100206000396000f3fe608060405234801561001057600080fd5b50600436106100a85760003560e01c8063a9877f7411610071578063a9877f7414610139578063aca4742f14610155578063bc2e129f14610171578063d8b0f4811461018d578063e8c544b7146101a9578063f3158c0c146101c5576100a8565b80625ac5ab146100ad5780630ecb6f48146100c957806318fb2f21146100e55780631f518e7314610101578063a86a451f1461011d575b600080fd5b6100c760048036038101906100c29190610b75565b6101e1565b005b6100e360048036038101906100de9190610e72565b61023e565b005b6100ff60048036038101906100fa9190610a26565b610287565b005b61011b600480360381019061011691906110e1565b6102f7565b005b61013760048036038101906101329190610b75565b610340565b005b610153600480360381019061014e9190610c00565b61039d565b005b61016f600480360381019061016a9190610db7565b61050d565b005b61018b60048036038101906101869190610a9e565b610550565b005b6101a760048036038101906101a29190610d2c565b610593565b005b6101c360048036038101906101be9190610f8b565b610691565b005b6101df60048036038101906101da9190610db7565b61074f565b005b7f42921310b148f8c9295857e2d3305cb40c466e32447f878a96a8efed8c30f9c983846000856040516102149190611371565b908152602001604051809103902060405161023193929190611506565b60405180910390a1505050565b7ff3a5f947fe924fc3a43a7bf20f90f143373c6b1ba9be11b3fdb5514542986d218686868686866040516102779695949392919061168b565b60405180910390a1505050505050565b816000826040516102989190611371565b908152602001604051809103902090805190602001906102b99291906108dd565b507f243e87e2af36dcc83dc397bc3212b2d3ff5c177acb4f24fa9d13e420773187fe82826040516102eb929190611388565b60405180910390a15050565b7fb1e9510308865fc13e0a6ca626d9b758b62ba4014f56dcebc3b9bb48f29b3677868686868686604051610330969594939291906117bf565b60405180910390a1505050505050565b7f42921310b148f8c9295857e2d3305cb40c466e32447f878a96a8efed8c30f9c983846000856040516103739190611371565b908152602001604051809103902060405161039093929190611420565b60405180910390a1505050565b7f9204ecd7f6261e437fbba05efdf4af1389f7e6dab346617d58b8ba2d87cf912860008b6040516103ce9190611371565b90815260200160405180910390208a8d8b8b8b6040516103f39695949392919061189b565b60405180910390a17f04e3cff6d0d6332bc54fc5be2e2c05a329948141e388a1343265587bb9c24b728b8585858560405161043295949392919061182e565b60405180910390a17f42921310b148f8c9295857e2d3305cb40c466e32447f878a96a8efed8c30f9c98b8c60008d60405161046d9190611371565b90815260200160405180910390206104868a8a8a610792565b6040516104969493929190611578565b60405180910390a17f42921310b148f8c9295857e2d3305cb40c466e32447f878a96a8efed8c30f9c98b8c60008d6040516104d19190611371565b90815260200160405180910390206104e887610842565b6040516104f89493929190611492565b60405180910390a15050505050505050505050565b7f88b70c70a23c7727432f1a3b28036b2dd082bbbb8988039ca614109d6b8b1a18848484846040516105429493929190611631565b60405180910390a150505050565b7f09cdfeade800fd05301d529057e98dab5e22a0b448bf57aae576e2b317d9fb8b8484848460405161058594939291906113bf565b60405180910390a150505050565b7fb264336c2c84b60f200063029a96e118c6bed8010791995d4af9f76a49c564798383836040516105c6939291906115ec565b60405180910390a1826000826040516105df9190611371565b908152602001604051809103902090805190602001906106009291906108dd565b50610609610963565b838160000181905250806001856040516106239190611371565b9081526020016040518091039020600082015181600001908051906020019061064d9291906108dd565b50602082015181600101908051906020019061066a9291906108dd565b5060408201518160020190805190602001906106879291906108dd565b5090505050505050565b8660018a6040516106a29190611371565b908152602001604051809103902060010190805190602001906106c69291906108dd565b508560018a6040516106d89190611371565b908152602001604051809103902060020190805190602001906106fc9291906108dd565b507f1dcdc60a3ba80f437d4a46a4d03889466c6e0f166d00a52ec7b8d187709d6c4f89898989898989898960405161073c9998979695949392919061170f565b60405180910390a1505050505050505050565b7f3b5e5c06a22fb316a29233424e0aff4278542ad2659bddc62c0db9a4fc0e3c4a848484846040516107849493929190611631565b60405180910390a150505050565b606060286107c060038486886107a8919061199c565b6107b2919061199c565b6108c790919063ffffffff16565b11610802576040518060400160405280600681526020017f4e6f726d616c0000000000000000000000000000000000000000000000000000815250905061083b565b6040518060400160405280600681526020017f44616e676572000000000000000000000000000000000000000000000000000081525090505b9392505050565b606060288211610889576040518060400160405280600681526020017f4e6f726d616c000000000000000000000000000000000000000000000000000081525090506108c2565b6040518060400160405280600681526020017f44616e676572000000000000000000000000000000000000000000000000000081525090505b919050565b600081836108d591906119f2565b905092915050565b8280546108e990611a6f565b90600052602060002090601f01602090048101928261090b5760008555610952565b82601f1061092457805160ff1916838001178555610952565b82800160010185558215610952579182015b82811115610951578251825591602001919060010190610936565b5b50905061095f9190610984565b5090565b60405180606001604052806060815260200160608152602001606081525090565b5b8082111561099d576000816000905550600101610985565b5090565b60006109b46109af8461192f565b61190a565b9050828152602081018484840111156109d0576109cf611b93565b5b6109db848285611a2d565b509392505050565b600082601f8301126109f8576109f7611b8e565b5b8135610a088482602086016109a1565b91505092915050565b600081359050610a2081611ca9565b92915050565b60008060408385031215610a3d57610a3c611b9d565b5b600083013567ffffffffffffffff811115610a5b57610a5a611b98565b5b610a67858286016109e3565b925050602083013567ffffffffffffffff811115610a8857610a87611b98565b5b610a94858286016109e3565b9150509250929050565b60008060008060808587031215610ab857610ab7611b9d565b5b600085013567ffffffffffffffff811115610ad657610ad5611b98565b5b610ae2878288016109e3565b945050602085013567ffffffffffffffff811115610b0357610b02611b98565b5b610b0f878288016109e3565b935050604085013567ffffffffffffffff811115610b3057610b2f611b98565b5b610b3c878288016109e3565b925050606085013567ffffffffffffffff811115610b5d57610b5c611b98565b5b610b69878288016109e3565b91505092959194509250565b600080600060608486031215610b8e57610b8d611b9d565b5b600084013567ffffffffffffffff811115610bac57610bab611b98565b5b610bb8868287016109e3565b935050602084013567ffffffffffffffff811115610bd957610bd8611b98565b5b610be5868287016109e3565b9250506040610bf686828701610a11565b9150509250925092565b60008060008060008060008060008060006101608c8e031215610c2657610c25611b9d565b5b60008c013567ffffffffffffffff811115610c4457610c43611b98565b5b610c508e828f016109e3565b9b505060208c013567ffffffffffffffff811115610c7157610c70611b98565b5b610c7d8e828f016109e3565b9a50506040610c8e8e828f01610a11565b9950506060610c9f8e828f01610a11565b9850506080610cb08e828f01610a11565b97505060a0610cc18e828f01610a11565b96505060c0610cd28e828f01610a11565b95505060e0610ce38e828f01610a11565b945050610100610cf58e828f01610a11565b935050610120610d078e828f01610a11565b925050610140610d198e828f01610a11565b9150509295989b509295989b9093969950565b600080600060608486031215610d4557610d44611b9d565b5b600084013567ffffffffffffffff811115610d6357610d62611b98565b5b610d6f868287016109e3565b9350506020610d8086828701610a11565b925050604084013567ffffffffffffffff811115610da157610da0611b98565b5b610dad868287016109e3565b9150509250925092565b60008060008060808587031215610dd157610dd0611b9d565b5b600085013567ffffffffffffffff811115610def57610dee611b98565b5b610dfb878288016109e3565b9450506020610e0c87828801610a11565b935050604085013567ffffffffffffffff811115610e2d57610e2c611b98565b5b610e39878288016109e3565b925050606085013567ffffffffffffffff811115610e5a57610e59611b98565b5b610e66878288016109e3565b91505092959194509250565b60008060008060008060c08789031215610e8f57610e8e611b9d565b5b600087013567ffffffffffffffff811115610ead57610eac611b98565b5b610eb989828a016109e3565b9650506020610eca89828a01610a11565b955050604087013567ffffffffffffffff811115610eeb57610eea611b98565b5b610ef789828a016109e3565b945050606087013567ffffffffffffffff811115610f1857610f17611b98565b5b610f2489828a016109e3565b935050608087013567ffffffffffffffff811115610f4557610f44611b98565b5b610f5189828a016109e3565b92505060a087013567ffffffffffffffff811115610f7257610f71611b98565b5b610f7e89828a016109e3565b9150509295509295509295565b60008060008060008060008060006101208a8c031215610fae57610fad611b9d565b5b60008a013567ffffffffffffffff811115610fcc57610fcb611b98565b5b610fd88c828d016109e3565b9950506020610fe98c828d01610a11565b98505060408a013567ffffffffffffffff81111561100a57611009611b98565b5b6110168c828d016109e3565b97505060608a013567ffffffffffffffff81111561103757611036611b98565b5b6110438c828d016109e3565b96505060806110548c828d01610a11565b95505060a08a013567ffffffffffffffff81111561107557611074611b98565b5b6110818c828d016109e3565b94505060c06110928c828d01610a11565b93505060e06110a38c828d01610a11565b9250506101008a013567ffffffffffffffff8111156110c5576110c4611b98565b5b6110d18c828d016109e3565b9150509295985092959850929598565b60008060008060008060c087890312156110fe576110fd611b9d565b5b600087013567ffffffffffffffff81111561111c5761111b611b98565b5b61112889828a016109e3565b965050602061113989828a01610a11565b955050604061114a89828a01610a11565b945050606061115b89828a01610a11565b935050608061116c89828a01610a11565b92505060a087013567ffffffffffffffff81111561118d5761118c611b98565b5b61119989828a016109e3565b9150509295509295509295565b60006111b182611975565b6111bb8185611980565b93506111cb818560208601611a3c565b6111d481611ba2565b840191505092915050565b60006111ea82611975565b6111f48185611991565b9350611204818560208601611a3c565b80840191505092915050565b6000815461121d81611a6f565b6112278186611980565b94506001821660008114611242576001811461125457611287565b60ff1983168652602086019350611287565b61125d85611960565b60005b8381101561127f57815481890152600182019150602081019050611260565b808801955050505b50505092915050565b600061129d600d83611980565b91506112a882611bb3565b602082019050919050565b60006112c0600683611980565b91506112cb82611bdc565b602082019050919050565b60006112e3600b83611980565b91506112ee82611c05565b602082019050919050565b6000611306600783611980565b915061131182611c2e565b602082019050919050565b6000611329600383611980565b915061133482611c57565b602082019050919050565b600061134c600c83611980565b915061135782611c80565b602082019050919050565b61136b81611a23565b82525050565b600061137d82846111df565b915081905092915050565b600060408201905081810360008301526113a281856111a6565b905081810360208301526113b681846111a6565b90509392505050565b600060808201905081810360008301526113d981876111a6565b905081810360208301526113ed81866111a6565b9050818103604083015261140181856111a6565b9050818103606083015261141581846111a6565b905095945050505050565b600060a082019050818103600083015261143a81866111a6565b9050818103602083015261144e81856111a6565b9050818103604083015261146181611290565b905081810360608301526114758184611210565b90508181036080830152611488816112b3565b9050949350505050565b600060a08201905081810360008301526114ac81876111a6565b905081810360208301526114c081866111a6565b905081810360408301526114d3816112d6565b905081810360608301526114e78185611210565b905081810360808301526114fb81846111a6565b905095945050505050565b600060a082019050818103600083015261152081866111a6565b9050818103602083015261153481856111a6565b905081810360408301526115478161131c565b9050818103606083015261155b8184611210565b9050818103608083015261156e816112b3565b9050949350505050565b600060a082019050818103600083015261159281876111a6565b905081810360208301526115a681866111a6565b905081810360408301526115b98161133f565b905081810360608301526115cd8185611210565b905081810360808301526115e181846111a6565b905095945050505050565b6000606082019050818103600083015261160681866111a6565b90506116156020830185611362565b818103604083015261162781846111a6565b9050949350505050565b6000608082019050818103600083015261164b81876111a6565b905061165a6020830186611362565b818103604083015261166c81856111a6565b9050818103606083015261168081846111a6565b905095945050505050565b600060c08201905081810360008301526116a581896111a6565b90506116b46020830188611362565b81810360408301526116c681876111a6565b905081810360608301526116da81866111a6565b905081810360808301526116ee81856111a6565b905081810360a083015261170281846111a6565b9050979650505050505050565b600061012082019050818103600083015261172a818c6111a6565b9050611739602083018b611362565b818103604083015261174b818a6111a6565b9050818103606083015261175f81896111a6565b905061176e6080830188611362565b81810360a083015261178081876111a6565b905061178f60c0830186611362565b61179c60e0830185611362565b8181036101008301526117af81846111a6565b90509a9950505050505050505050565b600060c08201905081810360008301526117d981896111a6565b90506117e86020830188611362565b6117f56040830187611362565b6118026060830186611362565b61180f6080830185611362565b81810360a083015261182181846111a6565b9050979650505050505050565b600060c082019050818103600083015261184881886111a6565b90506118576020830187611362565b6118646040830186611362565b6118716060830185611362565b61187e6080830184611362565b81810360a083015261188f816112f9565b90509695505050505050565b600060c08201905081810360008301526118b58189611210565b90506118c46020830188611362565b81810360408301526118d681876111a6565b90506118e56060830186611362565b6118f26080830185611362565b6118ff60a0830184611362565b979650505050505050565b6000611914611925565b90506119208282611aa1565b919050565b6000604051905090565b600067ffffffffffffffff82111561194a57611949611b5f565b5b61195382611ba2565b9050602081019050919050565b60008190508160005260206000209050919050565b600081519050919050565b600082825260208201905092915050565b600081905092915050565b60006119a782611a23565b91506119b283611a23565b9250827fffffffffffffffffffffffffffffffffffffffffffffffffffffffffffffffff038211156119e7576119e6611ad2565b5b828201905092915050565b60006119fd82611a23565b9150611a0883611a23565b925082611a1857611a17611b01565b5b828204905092915050565b6000819050919050565b82818337600083830152505050565b60005b83811015611a5a578082015181840152602081019050611a3f565b83811115611a69576000848401525b50505050565b60006002820490506001821680611a8757607f821691505b60208210811415611a9b57611a9a611b30565b5b50919050565b611aaa82611ba2565b810181811067ffffffffffffffff82111715611ac957611ac8611b5f565b5b80604052505050565b7f4e487b7100000000000000000000000000000000000000000000000000000000600052601160045260246000fd5b7f4e487b7100000000000000000000000000000000000000000000000000000000600052601260045260246000fd5b7f4e487b7100000000000000000000000000000000000000000000000000000000600052602260045260246000fd5b7f4e487b7100000000000000000000000000000000000000000000000000000000600052604160045260246000fd5b600080fd5b600080fd5b600080fd5b600080fd5b6000601f19601f8301169050919050565b7f526164696f616374697669747900000000000000000000000000000000000000600082015250565b7f44616e6765720000000000000000000000000000000000000000000000000000600082015250565b7f54656d7065726174757265000000000000000000000000000000000000000000600082015250565b7f50726f626c656d00000000000000000000000000000000000000000000000000600082015250565b7f4750530000000000000000000000000000000000000000000000000000000000600082015250565b7f416363656c65726174696f6e0000000000000000000000000000000000000000600082015250565b611cb281611a23565b8114611cbd57600080fd5b5056fea2646970667358221220856db918316285396d700d4adce9d6d171e66a2fd8134719abbf4cd12027390b64736f6c63430008060033",
  "immutableReferences": {},
  "source": "pragma solidity ^0.8.6;\n\nimport \"@openzeppelin/contracts/utils/math/SafeMath.sol\";\n\ncontract KCLOUD {\n    using SafeMath for uint256;\n    event NewDrumEnrolled(string drum_id, uint time, string sensor_id);\n    event DrumPackaged(string drum_id, uint time, string classification, string w_type, uint date_unix, string place_of_occurence, uint radioactive_concentration, uint pollution_level, string waste_acceptance_request);\n    event DrumInTransit(string drum_id, uint time, string carrier, string transportation_schedule);\n    event TemporaryStorage(string drum_id, uint time, uint longitude, uint latitude, uint storage_id,  string storage_schedule);\n    event DrumInTransit2(string drum_id, uint time, string carrier, string transportation_schedule);    \n    event TakingOver(string drum_id, uint time, string acquisition, string transferee, string transportation_schedule, string waste_acceptance_request);\n    event NewAlarmEvent(string alarm_id, string data_id, string alarmType, string drum_id, string alarm);\n    event SensorDataEvent(string drum_id, uint time, string data_id, uint latitude, uint longitude, uint accX);\n    event AlarmDismissedEvent(string alarm_id, string data_id, string drum_id, string alarm);\n    event SensorDataEvent2(string data_id, uint accZ, uint temp, uint humi, uint radio, string alarm);\n    event GPSDataEvent(string drum_id, uint time, uint longitude, uint latitude);\n    event sensorToDrumPairingEvent(string drum_id, string sensor_id);\n    mapping (string => string) private sensorToDrumID;\n    mapping (string => Drum) private drumIDToDrum;\n    //    function between(uint x, uint min, uint max) private returns (bool){\n    //     bool first_condition = (x >= min);\n    //     bool second_condition = (x <= max);\n    //     return first_condition && second_condition;\n    // }\n\n    // function basic_check(uint radio, uint min, uint max, uint variation) private returns (string memory){\n    //     if (between(radio, min, max)){\n    //         return \"Normal\";        \n    //     }\n    //     if (between(radio, min - variation, max + variation)){\n    //         return \"Border\";\n    //     }\n    //     if (!between(radio, min - variation, max + variation)){\n    //         return \"Danger\";\n    //     }\n    //     if (radio==0){\n    //         return \"Border\";\n    //     }\n    //     return \"Problem\";\n    // }\n    //   function append(string memory a, string memory b) public returns (string memory) {\n    //     return string(abi.encodePacked(a, b));\n    // }\n    function checkTemperature(uint temperature) private returns (string memory) {\n        if (temperature<=40){\n            return \"Normal\";        \n        }else{\n            return \"Danger\";\n        }\n    }\n    function checkRadio(uint radio) private returns (string memory) {\n        if (radio<=40){\n            return \"Normal\";        \n        }else{\n            return \"Danger\";\n        }\n    }\n    function checkAcceleration(uint accX, uint accY, uint accZ) private returns (string memory) {\n        if ((accX+accY+accZ).div(3)<=40){\n            return \"Normal\";        \n        }else{\n            return \"Danger\";\n        }\n    }\n    struct Drum{\n        string drum_id;\n        string classification;\n        string w_type;\n    }\n  function enrollment(string memory drum_id, uint time, string memory sensor_id) public {\n        emit NewDrumEnrolled(drum_id, time, sensor_id);        \n        sensorToDrumID[sensor_id] = drum_id;\n        \n        Drum memory my_drum;\n        my_drum.drum_id = drum_id;\n        drumIDToDrum[drum_id] = my_drum;\n    }\n    function packaging(string memory drum_id, uint time, string memory classification, string memory w_type, uint date_unix, string memory place_of_occurence, uint radioactive_concentration, uint pollution_level, string memory waste_acceptance_request) public {\n        drumIDToDrum[drum_id].classification = classification;\n        drumIDToDrum[drum_id].w_type = w_type;\n        emit DrumPackaged(drum_id, time, classification, w_type, date_unix, place_of_occurence, radioactive_concentration, pollution_level, waste_acceptance_request);        \n    }\n    \n    function transit(string memory drum_id, uint time, string memory carrier, string memory transportation_schedule) public {\n           emit DrumInTransit(drum_id, time, carrier, transportation_schedule);\n    }\n    function transit2(string memory drum_id, uint time, string memory carrier, string memory transportation_schedule) public {\n           emit DrumInTransit2(drum_id, time, carrier, transportation_schedule);\n    }\n\n    function changeSensor(string memory drum_id, string memory sensor_id) public {\n            sensorToDrumID[sensor_id] = drum_id; \n            emit sensorToDrumPairingEvent(drum_id, sensor_id);\n    }\n    function passSensorData(string memory data_id, string memory sensor_id, uint time, uint latitude, uint longitude, uint accX, uint accY, uint accZ, uint temp, uint humi, uint radio) public{\n           emit SensorDataEvent(sensorToDrumID[sensor_id], time, data_id, latitude, longitude, accX);\n           emit SensorDataEvent2(data_id, accZ, temp, humi, radio, \"Problem\"); // checkAcceleration(uint accX, uint accY, uint accZ)\n           emit NewAlarmEvent(data_id, data_id, \"Acceleration\", sensorToDrumID[sensor_id], checkAcceleration(accX, accY, accZ));\n           emit NewAlarmEvent(data_id, data_id, \"Temperature\", sensorToDrumID[sensor_id], checkRadio(temp));\n    }\n    function generateRadioAlarm(string memory data_id, string memory sensor_id, uint time) public{\n           emit NewAlarmEvent(data_id, data_id, \"Radioactivity\", sensorToDrumID[sensor_id], \"Danger\");\n    }\n    \n    function generateGPSAlarm(string memory data_id, string memory sensor_id, uint time) public{\n            emit NewAlarmEvent(data_id, data_id, \"GPS\", sensorToDrumID[sensor_id], \"Danger\");\n    }\n\n    function temporaryStorage(string memory drum_id, uint time, uint longitude, uint latitude, uint storage_id, string memory storage_schedule) public{\n           emit TemporaryStorage(drum_id, time, longitude, latitude, storage_id, storage_schedule);\n    }\n\n    function takingOver(string memory drum_id, uint time, string memory acquisition, string memory transferee, string memory transportation_schedule, string memory waste_acceptance_handover) public {\n           emit TakingOver(drum_id, time, acquisition, transferee, transportation_schedule, waste_acceptance_handover);\n    }\n    function compareStrings(string memory a, string memory b) private pure returns (bool) {\n            return (keccak256(abi.encodePacked((a))) == keccak256(abi.encodePacked((b))));\n    }\n    function dismissAlarm(string memory alarm_id, string memory data_id, string memory drum_id, string memory alarm) public {\n            emit AlarmDismissedEvent(alarm_id, data_id, drum_id, alarm);\n    }\n}\n",
  "sourcePath": "/home/radblock01/Desktop/kcloud/reactGraphkCLOUD/truffleSide/contracts/kcloud.sol",
  "compiler": {
    "name": "solc",
    "version": "0.8.6+commit.11564f7e.Emscripten.clang"
  },
  "schemaVersion": "3.4.3",
  "updatedAt": "2022-02-10T11:53:31.584Z",
  "networkType": "ethereum",
  "devdoc": {
    "kind": "dev",
    "methods": {},
    "version": 1
  },
  "userdoc": {
    "kind": "user",
    "methods": {},
    "version": 1
  }
}