{
  "contractName": "KCLOUD",
  "abi": [
    {
      "anonymous": false,
      "inputs": [
        {
          "indexed": false,
          "internalType": "string",
          "name": "alarm_id",
          "type": "string"
        },
        {
          "indexed": false,
          "internalType": "string",
          "name": "data_id",
          "type": "string"
        },
        {
          "indexed": false,
          "internalType": "string",
          "name": "drum_id",
          "type": "string"
        },
        {
          "indexed": false,
          "internalType": "string",
          "name": "alarm",
          "type": "string"
        }
      ],
      "name": "AlarmDismissedEvent",
      "type": "event"
    },
    {
      "anonymous": false,
      "inputs": [
        {
          "indexed": false,
          "internalType": "string",
          "name": "drum_id",
          "type": "string"
        },
        {
          "indexed": false,
          "internalType": "uint256",
          "name": "time",
          "type": "uint256"
        },
        {
          "indexed": false,
          "internalType": "string",
          "name": "carrier",
          "type": "string"
        },
        {
          "indexed": false,
          "internalType": "string",
          "name": "transportation_schedule",
          "type": "string"
        }
      ],
      "name": "DrumInTransit",
      "type": "event"
    },
    {
      "anonymous": false,
      "inputs": [
        {
          "indexed": false,
          "internalType": "string",
          "name": "drum_id",
          "type": "string"
        },
        {
          "indexed": false,
          "internalType": "uint256",
          "name": "time",
          "type": "uint256"
        },
        {
          "indexed": false,
          "internalType": "string",
          "name": "carrier",
          "type": "string"
        },
        {
          "indexed": false,
          "internalType": "string",
          "name": "transportation_schedule",
          "type": "string"
        }
      ],
      "name": "DrumInTransit2",
      "type": "event"
    },
    {
      "anonymous": false,
      "inputs": [
        {
          "indexed": false,
          "internalType": "string",
          "name": "drum_id",
          "type": "string"
        },
        {
          "indexed": false,
          "internalType": "uint256",
          "name": "time",
          "type": "uint256"
        },
        {
          "indexed": false,
          "internalType": "string",
          "name": "classification",
          "type": "string"
        },
        {
          "indexed": false,
          "internalType": "string",
          "name": "w_type",
          "type": "string"
        },
        {
          "indexed": false,
          "internalType": "uint256",
          "name": "date_unix",
          "type": "uint256"
        },
        {
          "indexed": false,
          "internalType": "string",
          "name": "place_of_occurence",
          "type": "string"
        },
        {
          "indexed": false,
          "internalType": "uint256",
          "name": "radioactive_concentration",
          "type": "uint256"
        },
        {
          "indexed": false,
          "internalType": "uint256",
          "name": "pollution_level",
          "type": "uint256"
        },
        {
          "indexed": false,
          "internalType": "string",
          "name": "waste_acceptance_request",
          "type": "string"
        }
      ],
      "name": "DrumPackaged",
      "type": "event"
    },
    {
      "anonymous": false,
      "inputs": [
        {
          "indexed": false,
          "internalType": "string",
          "name": "drum_id",
          "type": "string"
        },
        {
          "indexed": false,
          "internalType": "uint256",
          "name": "time",
          "type": "uint256"
        },
        {
          "indexed": false,
          "internalType": "uint256",
          "name": "longitude",
          "type": "uint256"
        },
        {
          "indexed": false,
          "internalType": "uint256",
          "name": "latitude",
          "type": "uint256"
        }
      ],
      "name": "GPSDataEvent",
      "type": "event"
    },
    {
      "anonymous": false,
      "inputs": [
        {
          "indexed": false,
          "internalType": "string",
          "name": "alarm_id",
          "type": "string"
        },
        {
          "indexed": false,
          "internalType": "string",
          "name": "data_id",
          "type": "string"
        },
        {
          "indexed": false,
          "internalType": "string",
          "name": "alarmType",
          "type": "string"
        },
        {
          "indexed": false,
          "internalType": "string",
          "name": "drum_id",
          "type": "string"
        },
        {
          "indexed": false,
          "internalType": "string",
          "name": "alarm",
          "type": "string"
        }
      ],
      "name": "NewAlarmEvent",
      "type": "event"
    },
    {
      "anonymous": false,
      "inputs": [
        {
          "indexed": false,
          "internalType": "string",
          "name": "drum_id",
          "type": "string"
        },
        {
          "indexed": false,
          "internalType": "uint256",
          "name": "time",
          "type": "uint256"
        },
        {
          "indexed": false,
          "internalType": "string",
          "name": "sensor_id",
          "type": "string"
        }
      ],
      "name": "NewDrumEnrolled",
      "type": "event"
    },
    {
      "anonymous": false,
      "inputs": [
        {
          "indexed": false,
          "internalType": "string",
          "name": "drum_id",
          "type": "string"
        },
        {
          "indexed": false,
          "internalType": "uint256",
          "name": "time",
          "type": "uint256"
        },
        {
          "indexed": false,
          "internalType": "string",
          "name": "data_id",
          "type": "string"
        },
        {
          "indexed": false,
          "internalType": "uint256",
          "name": "latitude",
          "type": "uint256"
        },
        {
          "indexed": false,
          "internalType": "uint256",
          "name": "longitude",
          "type": "uint256"
        },
        {
          "indexed": false,
          "internalType": "uint256",
          "name": "accX",
          "type": "uint256"
        }
      ],
      "name": "SensorDataEvent",
      "type": "event"
    },
    {
      "anonymous": false,
      "inputs": [
        {
          "indexed": false,
          "internalType": "string",
          "name": "data_id",
          "type": "string"
        },
        {
          "indexed": false,
          "internalType": "uint256",
          "name": "accZ",
          "type": "uint256"
        },
        {
          "indexed": false,
          "internalType": "uint256",
          "name": "temp",
          "type": "uint256"
        },
        {
          "indexed": false,
          "internalType": "uint256",
          "name": "humi",
          "type": "uint256"
        },
        {
          "indexed": false,
          "internalType": "uint256",
          "name": "radio",
          "type": "uint256"
        },
        {
          "indexed": false,
          "internalType": "string",
          "name": "alarm",
          "type": "string"
        }
      ],
      "name": "SensorDataEvent2",
      "type": "event"
    },
    {
      "anonymous": false,
      "inputs": [
        {
          "indexed": false,
          "internalType": "string",
          "name": "drum_id",
          "type": "string"
        },
        {
          "indexed": false,
          "internalType": "uint256",
          "name": "time",
          "type": "uint256"
        },
        {
          "indexed": false,
          "internalType": "string",
          "name": "acquisition",
          "type": "string"
        },
        {
          "indexed": false,
          "internalType": "string",
          "name": "transferee",
          "type": "string"
        },
        {
          "indexed": false,
          "internalType": "string",
          "name": "transportation_schedule",
          "type": "string"
        },
        {
          "indexed": false,
          "internalType": "string",
          "name": "waste_acceptance_request",
          "type": "string"
        }
      ],
      "name": "TakingOver",
      "type": "event"
    },
    {
      "anonymous": false,
      "inputs": [
        {
          "indexed": false,
          "internalType": "string",
          "name": "drum_id",
          "type": "string"
        },
        {
          "indexed": false,
          "internalType": "uint256",
          "name": "time",
          "type": "uint256"
        },
        {
          "indexed": false,
          "internalType": "uint256",
          "name": "longitude",
          "type": "uint256"
        },
        {
          "indexed": false,
          "internalType": "uint256",
          "name": "latitude",
          "type": "uint256"
        },
        {
          "indexed": false,
          "internalType": "uint256",
          "name": "storage_id",
          "type": "uint256"
        },
        {
          "indexed": false,
          "internalType": "string",
          "name": "storage_schedule",
          "type": "string"
        }
      ],
      "name": "TemporaryStorage",
      "type": "event"
    },
    {
      "anonymous": false,
      "inputs": [
        {
          "indexed": false,
          "internalType": "string",
          "name": "drum_id",
          "type": "string"
        },
        {
          "indexed": false,
          "internalType": "string",
          "name": "sensor_id",
          "type": "string"
        }
      ],
      "name": "sensorToDrumPairingEvent",
      "type": "event"
    },
    {
      "inputs": [
        {
          "internalType": "string",
          "name": "drum_id",
          "type": "string"
        },
        {
          "internalType": "uint256",
          "name": "time",
          "type": "uint256"
        },
        {
          "internalType": "string",
          "name": "sensor_id",
          "type": "string"
        }
      ],
      "name": "enrollment",
      "outputs": [],
      "stateMutability": "nonpayable",
      "type": "function"
    },
    {
      "inputs": [
        {
          "internalType": "string",
          "name": "drum_id",
          "type": "string"
        },
        {
          "internalType": "uint256",
          "name": "time",
          "type": "uint256"
        },
        {
          "internalType": "string",
          "name": "classification",
          "type": "string"
        },
        {
          "internalType": "string",
          "name": "w_type",
          "type": "string"
        },
        {
          "internalType": "uint256",
          "name": "date_unix",
          "type": "uint256"
        },
        {
          "internalType": "string",
          "name": "place_of_occurence",
          "type": "string"
        },
        {
          "internalType": "uint256",
          "name": "radioactive_concentration",
          "type": "uint256"
        },
        {
          "internalType": "uint256",
          "name": "pollution_level",
          "type": "uint256"
        },
        {
          "internalType": "string",
          "name": "waste_acceptance_request",
          "type": "string"
        }
      ],
      "name": "packaging",
      "outputs": [],
      "stateMutability": "nonpayable",
      "type": "function"
    },
    {
      "inputs": [
        {
          "internalType": "string",
          "name": "drum_id",
          "type": "string"
        },
        {
          "internalType": "uint256",
          "name": "time",
          "type": "uint256"
        },
        {
          "internalType": "string",
          "name": "carrier",
          "type": "string"
        },
        {
          "internalType": "string",
          "name": "transportation_schedule",
          "type": "string"
        }
      ],
      "name": "transit",
      "outputs": [],
      "stateMutability": "nonpayable",
      "type": "function"
    },
    {
      "inputs": [
        {
          "internalType": "string",
          "name": "drum_id",
          "type": "string"
        },
        {
          "internalType": "uint256",
          "name": "time",
          "type": "uint256"
        },
        {
          "internalType": "string",
          "name": "carrier",
          "type": "string"
        },
        {
          "internalType": "string",
          "name": "transportation_schedule",
          "type": "string"
        }
      ],
      "name": "transit2",
      "outputs": [],
      "stateMutability": "nonpayable",
      "type": "function"
    },
    {
      "inputs": [
        {
          "internalType": "string",
          "name": "drum_id",
          "type": "string"
        },
        {
          "internalType": "string",
          "name": "sensor_id",
          "type": "string"
        }
      ],
      "name": "changeSensor",
      "outputs": [],
      "stateMutability": "nonpayable",
      "type": "function"
    },
    {
      "inputs": [
        {
          "internalType": "string",
          "name": "data_id",
          "type": "string"
        },
        {
          "internalType": "string",
          "name": "sensor_id",
          "type": "string"
        },
        {
          "internalType": "uint256",
          "name": "time",
          "type": "uint256"
        },
        {
          "internalType": "uint256",
          "name": "latitude",
          "type": "uint256"
        },
        {
          "internalType": "uint256",
          "name": "longitude",
          "type": "uint256"
        },
        {
          "internalType": "uint256",
          "name": "accX",
          "type": "uint256"
        },
        {
          "internalType": "uint256",
          "name": "accY",
          "type": "uint256"
        },
        {
          "internalType": "uint256",
          "name": "accZ",
          "type": "uint256"
        },
        {
          "internalType": "uint256",
          "name": "temp",
          "type": "uint256"
        },
        {
          "internalType": "uint256",
          "name": "humi",
          "type": "uint256"
        },
        {
          "internalType": "uint256",
          "name": "radio",
          "type": "uint256"
        }
      ],
      "name": "passSensorData",
      "outputs": [],
      "stateMutability": "nonpayable",
      "type": "function"
    },
    {
      "inputs": [
        {
          "internalType": "string",
          "name": "drum_id",
          "type": "string"
        },
        {
          "internalType": "uint256",
          "name": "time",
          "type": "uint256"
        },
        {
          "internalType": "uint256",
          "name": "longitude",
          "type": "uint256"
        },
        {
          "internalType": "uint256",
          "name": "latitude",
          "type": "uint256"
        },
        {
          "internalType": "uint256",
          "name": "storage_id",
          "type": "uint256"
        },
        {
          "internalType": "string",
          "name": "storage_schedule",
          "type": "string"
        }
      ],
      "name": "temporaryStorage",
      "outputs": [],
      "stateMutability": "nonpayable",
      "type": "function"
    },
    {
      "inputs": [
        {
          "internalType": "string",
          "name": "drum_id",
          "type": "string"
        },
        {
          "internalType": "uint256",
          "name": "time",
          "type": "uint256"
        },
        {
          "internalType": "string",
          "name": "acquisition",
          "type": "string"
        },
        {
          "internalType": "string",
          "name": "transferee",
          "type": "string"
        },
        {
          "internalType": "string",
          "name": "transportation_schedule",
          "type": "string"
        },
        {
          "internalType": "string",
          "name": "waste_acceptance_handover",
          "type": "string"
        }
      ],
      "name": "takingOver",
      "outputs": [],
      "stateMutability": "nonpayable",
      "type": "function"
    },
    {
      "inputs": [
        {
          "internalType": "string",
          "name": "alarm_id",
          "type": "string"
        },
        {
          "internalType": "string",
          "name": "data_id",
          "type": "string"
        },
        {
          "internalType": "string",
          "name": "drum_id",
          "type": "string"
        },
        {
          "internalType": "string",
          "name": "alarm",
          "type": "string"
        }
      ],
      "name": "dismissAlarm",
      "outputs": [],
      "stateMutability": "nonpayable",
      "type": "function"
    }
  ],
  "bytecode": "0x608060405234801561001057600080fd5b50611abe806100206000396000f3fe608060405234801561001057600080fd5b50600436106100935760003560e01c8063aca4742f11610066578063aca4742f14610108578063bc2e129f14610124578063d8b0f48114610140578063e8c544b71461015c578063f3158c0c1461017857610093565b80630ecb6f481461009857806318fb2f21146100b45780631f518e73146100d0578063a9877f74146100ec575b600080fd5b6100b260048036038101906100ad9190610d42565b610194565b005b6100ce60048036038101906100c99190610981565b6101dd565b005b6100ea60048036038101906100e59190610fb1565b61024d565b005b61010660048036038101906101019190610ad0565b610296565b005b610122600480360381019061011d9190610c87565b610468565b005b61013e600480360381019061013991906109f9565b6104ab565b005b61015a60048036038101906101559190610bfc565b6104ee565b005b61017660048036038101906101719190610e5b565b6105ec565b005b610192600480360381019061018d9190610c87565b6106aa565b005b7ff3a5f947fe924fc3a43a7bf20f90f143373c6b1ba9be11b3fdb5514542986d218686868686866040516101cd969594939291906114a5565b60405180910390a1505050505050565b816000826040516101ee91906111fb565b9081526020016040518091039020908051906020019061020f929190610838565b507f243e87e2af36dcc83dc397bc3212b2d3ff5c177acb4f24fa9d13e420773187fe8282604051610241929190611212565b60405180910390a15050565b7fb1e9510308865fc13e0a6ca626d9b758b62ba4014f56dcebc3b9bb48f29b3677868686868686604051610286969594939291906115d9565b60405180910390a1505050505050565b7f9204ecd7f6261e437fbba05efdf4af1389f7e6dab346617d58b8ba2d87cf912860008b6040516102c791906111fb565b90815260200160405180910390208a8d8b8b8b6040516102ec969594939291906116b5565b60405180910390a17f04e3cff6d0d6332bc54fc5be2e2c05a329948141e388a1343265587bb9c24b728b8585858560405161032b959493929190611648565b60405180910390a17f42921310b148f8c9295857e2d3305cb40c466e32447f878a96a8efed8c30f9c98b8c60008d60405161036691906111fb565b908152602001604051809103902061037f8a8a8a6106ed565b60405161038f9493929190611392565b60405180910390a17f42921310b148f8c9295857e2d3305cb40c466e32447f878a96a8efed8c30f9c98b8c60008d6040516103ca91906111fb565b90815260200160405180910390206103e18761079d565b6040516103f1949392919061131e565b60405180910390a17f42921310b148f8c9295857e2d3305cb40c466e32447f878a96a8efed8c30f9c98b8c60008d60405161042c91906111fb565b90815260200160405180910390206104438561079d565b60405161045394939291906112aa565b60405180910390a15050505050505050505050565b7f88b70c70a23c7727432f1a3b28036b2dd082bbbb8988039ca614109d6b8b1a188484848460405161049d949392919061144b565b60405180910390a150505050565b7f09cdfeade800fd05301d529057e98dab5e22a0b448bf57aae576e2b317d9fb8b848484846040516104e09493929190611249565b60405180910390a150505050565b7fb264336c2c84b60f200063029a96e118c6bed8010791995d4af9f76a49c5647983838360405161052193929190611406565b60405180910390a18260008260405161053a91906111fb565b9081526020016040518091039020908051906020019061055b929190610838565b506105646108be565b8381600001819052508060018560405161057e91906111fb565b908152602001604051809103902060008201518160000190805190602001906105a8929190610838565b5060208201518160010190805190602001906105c5929190610838565b5060408201518160020190805190602001906105e2929190610838565b5090505050505050565b8660018a6040516105fd91906111fb565b90815260200160405180910390206001019080519060200190610621929190610838565b508560018a60405161063391906111fb565b90815260200160405180910390206002019080519060200190610657929190610838565b507f1dcdc60a3ba80f437d4a46a4d03889466c6e0f166d00a52ec7b8d187709d6c4f89898989898989898960405161069799989796959493929190611529565b60405180910390a1505050505050505050565b7f3b5e5c06a22fb316a29233424e0aff4278542ad2659bddc62c0db9a4fc0e3c4a848484846040516106df949392919061144b565b60405180910390a150505050565b6060602861071b600384868861070391906117b6565b61070d91906117b6565b61082290919063ffffffff16565b1161075d576040518060400160405280600681526020017f4e6f726d616c00000000000000000000000000000000000000000000000000008152509050610796565b6040518060400160405280600681526020017f44616e676572000000000000000000000000000000000000000000000000000081525090505b9392505050565b6060602882116107e4576040518060400160405280600681526020017f4e6f726d616c0000000000000000000000000000000000000000000000000000815250905061081d565b6040518060400160405280600681526020017f44616e676572000000000000000000000000000000000000000000000000000081525090505b919050565b60008183610830919061180c565b905092915050565b82805461084490611889565b90600052602060002090601f01602090048101928261086657600085556108ad565b82601f1061087f57805160ff19168380011785556108ad565b828001600101855582156108ad579182015b828111156108ac578251825591602001919060010190610891565b5b5090506108ba91906108df565b5090565b60405180606001604052806060815260200160608152602001606081525090565b5b808211156108f85760008160009055506001016108e0565b5090565b600061090f61090a84611749565b611724565b90508281526020810184848401111561092b5761092a6119ad565b5b610936848285611847565b509392505050565b600082601f830112610953576109526119a8565b5b81356109638482602086016108fc565b91505092915050565b60008135905061097b81611a71565b92915050565b60008060408385031215610998576109976119b7565b5b600083013567ffffffffffffffff8111156109b6576109b56119b2565b5b6109c28582860161093e565b925050602083013567ffffffffffffffff8111156109e3576109e26119b2565b5b6109ef8582860161093e565b9150509250929050565b60008060008060808587031215610a1357610a126119b7565b5b600085013567ffffffffffffffff811115610a3157610a306119b2565b5b610a3d8782880161093e565b945050602085013567ffffffffffffffff811115610a5e57610a5d6119b2565b5b610a6a8782880161093e565b935050604085013567ffffffffffffffff811115610a8b57610a8a6119b2565b5b610a978782880161093e565b925050606085013567ffffffffffffffff811115610ab857610ab76119b2565b5b610ac48782880161093e565b91505092959194509250565b60008060008060008060008060008060006101608c8e031215610af657610af56119b7565b5b60008c013567ffffffffffffffff811115610b1457610b136119b2565b5b610b208e828f0161093e565b9b505060208c013567ffffffffffffffff811115610b4157610b406119b2565b5b610b4d8e828f0161093e565b9a50506040610b5e8e828f0161096c565b9950506060610b6f8e828f0161096c565b9850506080610b808e828f0161096c565b97505060a0610b918e828f0161096c565b96505060c0610ba28e828f0161096c565b95505060e0610bb38e828f0161096c565b945050610100610bc58e828f0161096c565b935050610120610bd78e828f0161096c565b925050610140610be98e828f0161096c565b9150509295989b509295989b9093969950565b600080600060608486031215610c1557610c146119b7565b5b600084013567ffffffffffffffff811115610c3357610c326119b2565b5b610c3f8682870161093e565b9350506020610c508682870161096c565b925050604084013567ffffffffffffffff811115610c7157610c706119b2565b5b610c7d8682870161093e565b9150509250925092565b60008060008060808587031215610ca157610ca06119b7565b5b600085013567ffffffffffffffff811115610cbf57610cbe6119b2565b5b610ccb8782880161093e565b9450506020610cdc8782880161096c565b935050604085013567ffffffffffffffff811115610cfd57610cfc6119b2565b5b610d098782880161093e565b925050606085013567ffffffffffffffff811115610d2a57610d296119b2565b5b610d368782880161093e565b91505092959194509250565b60008060008060008060c08789031215610d5f57610d5e6119b7565b5b600087013567ffffffffffffffff811115610d7d57610d7c6119b2565b5b610d8989828a0161093e565b9650506020610d9a89828a0161096c565b955050604087013567ffffffffffffffff811115610dbb57610dba6119b2565b5b610dc789828a0161093e565b945050606087013567ffffffffffffffff811115610de857610de76119b2565b5b610df489828a0161093e565b935050608087013567ffffffffffffffff811115610e1557610e146119b2565b5b610e2189828a0161093e565b92505060a087013567ffffffffffffffff811115610e4257610e416119b2565b5b610e4e89828a0161093e565b9150509295509295509295565b60008060008060008060008060006101208a8c031215610e7e57610e7d6119b7565b5b60008a013567ffffffffffffffff811115610e9c57610e9b6119b2565b5b610ea88c828d0161093e565b9950506020610eb98c828d0161096c565b98505060408a013567ffffffffffffffff811115610eda57610ed96119b2565b5b610ee68c828d0161093e565b97505060608a013567ffffffffffffffff811115610f0757610f066119b2565b5b610f138c828d0161093e565b9650506080610f248c828d0161096c565b95505060a08a013567ffffffffffffffff811115610f4557610f446119b2565b5b610f518c828d0161093e565b94505060c0610f628c828d0161096c565b93505060e0610f738c828d0161096c565b9250506101008a013567ffffffffffffffff811115610f9557610f946119b2565b5b610fa18c828d0161093e565b9150509295985092959850929598565b60008060008060008060c08789031215610fce57610fcd6119b7565b5b600087013567ffffffffffffffff811115610fec57610feb6119b2565b5b610ff889828a0161093e565b965050602061100989828a0161096c565b955050604061101a89828a0161096c565b945050606061102b89828a0161096c565b935050608061103c89828a0161096c565b92505060a087013567ffffffffffffffff81111561105d5761105c6119b2565b5b61106989828a0161093e565b9150509295509295509295565b60006110818261178f565b61108b818561179a565b935061109b818560208601611856565b6110a4816119bc565b840191505092915050565b60006110ba8261178f565b6110c481856117ab565b93506110d4818560208601611856565b80840191505092915050565b600081546110ed81611889565b6110f7818661179a565b94506001821660008114611112576001811461112457611157565b60ff1983168652602086019350611157565b61112d8561177a565b60005b8381101561114f57815481890152600182019150602081019050611130565b808801955050505b50505092915050565b600061116d600d8361179a565b9150611178826119cd565b602082019050919050565b6000611190600b8361179a565b915061119b826119f6565b602082019050919050565b60006111b360078361179a565b91506111be82611a1f565b602082019050919050565b60006111d6600c8361179a565b91506111e182611a48565b602082019050919050565b6111f58161183d565b82525050565b600061120782846110af565b915081905092915050565b6000604082019050818103600083015261122c8185611076565b905081810360208301526112408184611076565b90509392505050565b600060808201905081810360008301526112638187611076565b905081810360208301526112778186611076565b9050818103604083015261128b8185611076565b9050818103606083015261129f8184611076565b905095945050505050565b600060a08201905081810360008301526112c48187611076565b905081810360208301526112d88186611076565b905081810360408301526112eb81611160565b905081810360608301526112ff81856110e0565b905081810360808301526113138184611076565b905095945050505050565b600060a08201905081810360008301526113388187611076565b9050818103602083015261134c8186611076565b9050818103604083015261135f81611183565b9050818103606083015261137381856110e0565b905081810360808301526113878184611076565b905095945050505050565b600060a08201905081810360008301526113ac8187611076565b905081810360208301526113c08186611076565b905081810360408301526113d3816111c9565b905081810360608301526113e781856110e0565b905081810360808301526113fb8184611076565b905095945050505050565b600060608201905081810360008301526114208186611076565b905061142f60208301856111ec565b81810360408301526114418184611076565b9050949350505050565b600060808201905081810360008301526114658187611076565b905061147460208301866111ec565b81810360408301526114868185611076565b9050818103606083015261149a8184611076565b905095945050505050565b600060c08201905081810360008301526114bf8189611076565b90506114ce60208301886111ec565b81810360408301526114e08187611076565b905081810360608301526114f48186611076565b905081810360808301526115088185611076565b905081810360a083015261151c8184611076565b9050979650505050505050565b6000610120820190508181036000830152611544818c611076565b9050611553602083018b6111ec565b8181036040830152611565818a611076565b905081810360608301526115798189611076565b905061158860808301886111ec565b81810360a083015261159a8187611076565b90506115a960c08301866111ec565b6115b660e08301856111ec565b8181036101008301526115c98184611076565b90509a9950505050505050505050565b600060c08201905081810360008301526115f38189611076565b905061160260208301886111ec565b61160f60408301876111ec565b61161c60608301866111ec565b61162960808301856111ec565b81810360a083015261163b8184611076565b9050979650505050505050565b600060c08201905081810360008301526116628188611076565b905061167160208301876111ec565b61167e60408301866111ec565b61168b60608301856111ec565b61169860808301846111ec565b81810360a08301526116a9816111a6565b90509695505050505050565b600060c08201905081810360008301526116cf81896110e0565b90506116de60208301886111ec565b81810360408301526116f08187611076565b90506116ff60608301866111ec565b61170c60808301856111ec565b61171960a08301846111ec565b979650505050505050565b600061172e61173f565b905061173a82826118bb565b919050565b6000604051905090565b600067ffffffffffffffff82111561176457611763611979565b5b61176d826119bc565b9050602081019050919050565b60008190508160005260206000209050919050565b600081519050919050565b600082825260208201905092915050565b600081905092915050565b60006117c18261183d565b91506117cc8361183d565b9250827fffffffffffffffffffffffffffffffffffffffffffffffffffffffffffffffff03821115611801576118006118ec565b5b828201905092915050565b60006118178261183d565b91506118228361183d565b9250826118325761183161191b565b5b828204905092915050565b6000819050919050565b82818337600083830152505050565b60005b83811015611874578082015181840152602081019050611859565b83811115611883576000848401525b50505050565b600060028204905060018216806118a157607f821691505b602082108114156118b5576118b461194a565b5b50919050565b6118c4826119bc565b810181811067ffffffffffffffff821117156118e3576118e2611979565b5b80604052505050565b7f4e487b7100000000000000000000000000000000000000000000000000000000600052601160045260246000fd5b7f4e487b7100000000000000000000000000000000000000000000000000000000600052601260045260246000fd5b7f4e487b7100000000000000000000000000000000000000000000000000000000600052602260045260246000fd5b7f4e487b7100000000000000000000000000000000000000000000000000000000600052604160045260246000fd5b600080fd5b600080fd5b600080fd5b600080fd5b6000601f19601f8301169050919050565b7f526164696f616374697669747900000000000000000000000000000000000000600082015250565b7f54656d7065726174757265000000000000000000000000000000000000000000600082015250565b7f50726f626c656d00000000000000000000000000000000000000000000000000600082015250565b7f416363656c65726174696f6e0000000000000000000000000000000000000000600082015250565b611a7a8161183d565b8114611a8557600080fd5b5056fea2646970667358221220da2be60b2f44f1608c64733859b2df59b2600edc8f73838e51f77b4fa62aeaa064736f6c63430008060033",
  "immutableReferences": {},
  "source": "pragma solidity ^0.8.6;\n\nimport \"@openzeppelin/contracts/utils/math/SafeMath.sol\";\n\ncontract KCLOUD {\n    using SafeMath for uint256;\n    event NewDrumEnrolled(string drum_id, uint time, string sensor_id);\n    event DrumPackaged(string drum_id, uint time, string classification, string w_type, uint date_unix, string place_of_occurence, uint radioactive_concentration, uint pollution_level, string waste_acceptance_request);\n    event DrumInTransit(string drum_id, uint time, string carrier, string transportation_schedule);\n    event TemporaryStorage(string drum_id, uint time, uint longitude, uint latitude, uint storage_id,  string storage_schedule);\n    event DrumInTransit2(string drum_id, uint time, string carrier, string transportation_schedule);    \n    event TakingOver(string drum_id, uint time, string acquisition, string transferee, string transportation_schedule, string waste_acceptance_request);\n    event NewAlarmEvent(string alarm_id, string data_id, string alarmType, string drum_id, string alarm);\n    event SensorDataEvent(string drum_id, uint time, string data_id, uint latitude, uint longitude, uint accX);\n    event AlarmDismissedEvent(string alarm_id, string data_id, string drum_id, string alarm);\n    event SensorDataEvent2(string data_id, uint accZ, uint temp, uint humi, uint radio, string alarm);\n    event GPSDataEvent(string drum_id, uint time, uint longitude, uint latitude);\n    event sensorToDrumPairingEvent(string drum_id, string sensor_id);\n    mapping (string => string) private sensorToDrumID;\n    mapping (string => Drum) private drumIDToDrum;\n    //    function between(uint x, uint min, uint max) private returns (bool){\n    //     bool first_condition = (x >= min);\n    //     bool second_condition = (x <= max);\n    //     return first_condition && second_condition;\n    // }\n\n    // function basic_check(uint radio, uint min, uint max, uint variation) private returns (string memory){\n    //     if (between(radio, min, max)){\n    //         return \"Normal\";        \n    //     }\n    //     if (between(radio, min - variation, max + variation)){\n    //         return \"Border\";\n    //     }\n    //     if (!between(radio, min - variation, max + variation)){\n    //         return \"Danger\";\n    //     }\n    //     if (radio==0){\n    //         return \"Border\";\n    //     }\n    //     return \"Problem\";\n    // }\n    //   function append(string memory a, string memory b) public returns (string memory) {\n    //     return string(abi.encodePacked(a, b));\n    // }\n\n    function checkTemperature(uint temperature) private returns (string memory) {\n        if (temperature<=40){\n            return \"Normal\";        \n        }else{\n            return \"Danger\";\n        }\n    }\n    function checkRadio(uint radio) private returns (string memory) {\n        if (radio<=40){\n            return \"Normal\";        \n        }else{\n            return \"Danger\";\n        }\n    }\n    function checkAcceleration(uint accX, uint accY, uint accZ) private returns (string memory) {\n        if ((accX+accY+accZ).div(3)<=40){\n            return \"Normal\";        \n        }else{\n            return \"Danger\";\n        }\n    }\n    struct Drum{\n        string drum_id;\n        string classification;\n        string w_type;\n    }\n  function enrollment(string memory drum_id, uint time, string memory sensor_id) public {\n        emit NewDrumEnrolled(drum_id, time, sensor_id);        \n        sensorToDrumID[sensor_id] = drum_id;\n        \n        Drum memory my_drum;\n        my_drum.drum_id = drum_id;\n        drumIDToDrum[drum_id] = my_drum;\n    }\n\n    \n    function packaging(string memory drum_id, uint time, string memory classification, string memory w_type, uint date_unix, string memory place_of_occurence, uint radioactive_concentration, uint pollution_level, string memory waste_acceptance_request) public {\n        drumIDToDrum[drum_id].classification = classification;\n        drumIDToDrum[drum_id].w_type = w_type;\n        emit DrumPackaged(drum_id, time, classification, w_type, date_unix, place_of_occurence, radioactive_concentration, pollution_level, waste_acceptance_request);        \n    }\n    \n    \n    function checkGPS(string memory drum_id, uint time, uint decimals, uint longitude, uint latitude) private{\n            emit GPSDataEvent(drum_id, time, longitude, latitude);\n    }\n    \n    function transit(string memory drum_id, uint time, string memory carrier, string memory transportation_schedule) public {\n           emit DrumInTransit(drum_id, time, carrier, transportation_schedule);\n    }\n    function transit2(string memory drum_id, uint time, string memory carrier, string memory transportation_schedule) public {\n           emit DrumInTransit2(drum_id, time, carrier, transportation_schedule);\n    }\n\n    function changeSensor(string memory drum_id, string memory sensor_id) public {\n            sensorToDrumID[sensor_id] = drum_id; \n            emit sensorToDrumPairingEvent(drum_id, sensor_id);\n    }\n    function passSensorData(string memory data_id, string memory sensor_id, uint time, uint latitude, uint longitude, uint accX, uint accY, uint accZ, uint temp, uint humi, uint radio) public{\n           emit SensorDataEvent(sensorToDrumID[sensor_id], time, data_id, latitude, longitude, accX);\n           emit SensorDataEvent2(data_id, accZ, temp, humi, radio, \"Problem\"); // checkAcceleration(uint accX, uint accY, uint accZ)\n           emit NewAlarmEvent(data_id, data_id, \"Acceleration\", sensorToDrumID[sensor_id], checkAcceleration(accX, accY, accZ));\n           emit NewAlarmEvent(data_id, data_id, \"Temperature\", sensorToDrumID[sensor_id], checkRadio(temp));\n           emit NewAlarmEvent(data_id, data_id, \"Radioactivity\", sensorToDrumID[sensor_id], checkRadio(radio));\n    }\n\n    function temporaryStorage(string memory drum_id, uint time, uint longitude, uint latitude, uint storage_id, string memory storage_schedule) public{\n           emit TemporaryStorage(drum_id, time, longitude, latitude, storage_id, storage_schedule);\n    }\n\n    function takingOver(string memory drum_id, uint time, string memory acquisition, string memory transferee, string memory transportation_schedule, string memory waste_acceptance_handover) public {\n           emit TakingOver(drum_id, time, acquisition, transferee, transportation_schedule, waste_acceptance_handover);\n    }\n    function compareStrings(string memory a, string memory b) private pure returns (bool) {\n            return (keccak256(abi.encodePacked((a))) == keccak256(abi.encodePacked((b))));\n    }\n    function dismissAlarm(string memory alarm_id, string memory data_id, string memory drum_id, string memory alarm) public {\n            emit AlarmDismissedEvent(alarm_id, data_id, drum_id, alarm);\n    }\n}",
  "sourcePath": "/home/radblock01/Desktop/kcloud2/reactGraphkCLOUD/truffleSide/contracts/kcloud.sol",
  "compiler": {
    "name": "solc",
    "version": "0.8.6+commit.11564f7e.Emscripten.clang"
  },
  "schemaVersion": "3.4.3",
  "updatedAt": "2021-12-26T19:28:38.929Z",
  "networkType": "ethereum",
  "devdoc": {
    "kind": "dev",
    "methods": {},
    "version": 1
  },
  "userdoc": {
    "kind": "user",
    "methods": {},
    "version": 1
  }
}