{
  "contractName": "checks",
  "abi": [
    {
      "inputs": [
        {
          "internalType": "string",
          "name": "a",
          "type": "string"
        },
        {
          "internalType": "string",
          "name": "b",
          "type": "string"
        }
      ],
      "name": "append",
      "outputs": [
        {
          "internalType": "string",
          "name": "",
          "type": "string"
        }
      ],
      "stateMutability": "nonpayable",
      "type": "function"
    },
    {
      "inputs": [
        {
          "internalType": "uint256",
          "name": "_i",
          "type": "uint256"
        }
      ],
      "name": "uint2str",
      "outputs": [
        {
          "internalType": "string",
          "name": "_uintAsString",
          "type": "string"
        }
      ],
      "stateMutability": "nonpayable",
      "type": "function"
    },
    {
      "inputs": [
        {
          "internalType": "string",
          "name": "sensor_id",
          "type": "string"
        },
        {
          "internalType": "uint256",
          "name": "temperature",
          "type": "uint256"
        }
      ],
      "name": "checkTemperature",
      "outputs": [
        {
          "internalType": "string",
          "name": "",
          "type": "string"
        }
      ],
      "stateMutability": "nonpayable",
      "type": "function"
    },
    {
      "inputs": [
        {
          "internalType": "string",
          "name": "sensor_id",
          "type": "string"
        },
        {
          "internalType": "uint256",
          "name": "radio",
          "type": "uint256"
        }
      ],
      "name": "checkRadio",
      "outputs": [
        {
          "internalType": "string",
          "name": "",
          "type": "string"
        }
      ],
      "stateMutability": "nonpayable",
      "type": "function"
    },
    {
      "inputs": [
        {
          "internalType": "string",
          "name": "sensor_id",
          "type": "string"
        },
        {
          "internalType": "uint256",
          "name": "humidity",
          "type": "uint256"
        }
      ],
      "name": "checkHumidity",
      "outputs": [
        {
          "internalType": "string",
          "name": "",
          "type": "string"
        }
      ],
      "stateMutability": "nonpayable",
      "type": "function"
    }
  ],
  "bytecode": "0x608060405234801561001057600080fd5b50610b33806100206000396000f3fe608060405234801561001057600080fd5b50600436106100575760003560e01c80634bc6309a1461005c578063591c515f1461008c5780637ba3517e146100bc578063ee8a60d0146100ec578063f76f950e1461011c575b600080fd5b61007660048036038101906100719190610630565b61014c565b6040516100839190610747565b60405180910390f35b6100a660048036038101906100a191906105b8565b610172565b6040516100b39190610747565b60405180910390f35b6100d660048036038101906100d19190610630565b61019e565b6040516100e39190610747565b60405180910390f35b61010660048036038101906101019190610630565b6101c9565b6040516101139190610747565b60405180910390f35b6101366004803603810190610131919061068c565b6101f4565b6040516101439190610747565b60405180910390f35b6060600080600590506000600290506101678583858461037d565b935050505092915050565b60608282604051602001610187929190610723565b604051602081830303815290604052905092915050565b60606000601690506000602090506000600590506101be8583858461037d565b935050505092915050565b60606000601690506000602c90506000600a90506101e98583858461037d565b935050505092915050565b6060600082141561023c576040518060400160405280600181526020017f30000000000000000000000000000000000000000000000000000000000000008152509050610378565b600082905060005b6000821461026e578080610257906109bc565b915050600a826102679190610873565b9150610244565b60008167ffffffffffffffff81111561028a57610289610a92565b5b6040519080825280601f01601f1916602001820160405280156102bc5781602001600182028036833780820191505090505b50905060008290505b60008614610370576001816102da91906108fe565b90506000600a80886102ec9190610873565b6102f691906108a4565b8761030191906108fe565b603061030d919061083c565b905060008160f81b90508084848151811061032b5761032a610a63565b5b60200101907effffffffffffffffffffffffffffffffffffffffffffffffffffffffffffff1916908160001a905350600a886103679190610873565b975050506102c5565b819450505050505b919050565b606061038a858585610518565b156103cc576040518060400160405280600681526020017f4e6f726d616c00000000000000000000000000000000000000000000000000008152509050610510565b6103ed8583866103dc91906108fe565b84866103e891906107e6565b610518565b1561042f576040518060400160405280600681526020017f426f7264657200000000000000000000000000000000000000000000000000008152509050610510565b61045085838661043f91906108fe565b848661044b91906107e6565b610518565b610491576040518060400160405280600681526020017f44616e67657200000000000000000000000000000000000000000000000000008152509050610510565b60008514156104d7576040518060400160405280600681526020017f426f7264657200000000000000000000000000000000000000000000000000008152509050610510565b6040518060400160405280600781526020017f50726f626c656d0000000000000000000000000000000000000000000000000081525090505b949350505050565b600082841015801561052a5750818411155b90509392505050565b60006105466105418461078e565b610769565b90508281526020810184848401111561056257610561610ac6565b5b61056d848285610949565b509392505050565b600082601f83011261058a57610589610ac1565b5b813561059a848260208601610533565b91505092915050565b6000813590506105b281610ae6565b92915050565b600080604083850312156105cf576105ce610ad0565b5b600083013567ffffffffffffffff8111156105ed576105ec610acb565b5b6105f985828601610575565b925050602083013567ffffffffffffffff81111561061a57610619610acb565b5b61062685828601610575565b9150509250929050565b6000806040838503121561064757610646610ad0565b5b600083013567ffffffffffffffff81111561066557610664610acb565b5b61067185828601610575565b9250506020610682858286016105a3565b9150509250929050565b6000602082840312156106a2576106a1610ad0565b5b60006106b0848285016105a3565b91505092915050565b60006106c4826107bf565b6106ce81856107ca565b93506106de818560208601610958565b6106e781610ad5565b840191505092915050565b60006106fd826107bf565b61070781856107db565b9350610717818560208601610958565b80840191505092915050565b600061072f82856106f2565b915061073b82846106f2565b91508190509392505050565b6000602082019050818103600083015261076181846106b9565b905092915050565b6000610773610784565b905061077f828261098b565b919050565b6000604051905090565b600067ffffffffffffffff8211156107a9576107a8610a92565b5b6107b282610ad5565b9050602081019050919050565b600081519050919050565b600082825260208201905092915050565b600081905092915050565b60006107f182610932565b91506107fc83610932565b9250827fffffffffffffffffffffffffffffffffffffffffffffffffffffffffffffffff0382111561083157610830610a05565b5b828201905092915050565b60006108478261093c565b91506108528361093c565b92508260ff0382111561086857610867610a05565b5b828201905092915050565b600061087e82610932565b915061088983610932565b92508261089957610898610a34565b5b828204905092915050565b60006108af82610932565b91506108ba83610932565b9250817fffffffffffffffffffffffffffffffffffffffffffffffffffffffffffffffff04831182151516156108f3576108f2610a05565b5b828202905092915050565b600061090982610932565b915061091483610932565b92508282101561092757610926610a05565b5b828203905092915050565b6000819050919050565b600060ff82169050919050565b82818337600083830152505050565b60005b8381101561097657808201518184015260208101905061095b565b83811115610985576000848401525b50505050565b61099482610ad5565b810181811067ffffffffffffffff821117156109b3576109b2610a92565b5b80604052505050565b60006109c782610932565b91507fffffffffffffffffffffffffffffffffffffffffffffffffffffffffffffffff8214156109fa576109f9610a05565b5b600182019050919050565b7f4e487b7100000000000000000000000000000000000000000000000000000000600052601160045260246000fd5b7f4e487b7100000000000000000000000000000000000000000000000000000000600052601260045260246000fd5b7f4e487b7100000000000000000000000000000000000000000000000000000000600052603260045260246000fd5b7f4e487b7100000000000000000000000000000000000000000000000000000000600052604160045260246000fd5b600080fd5b600080fd5b600080fd5b600080fd5b6000601f19601f8301169050919050565b610aef81610932565b8114610afa57600080fd5b5056fea26469706673582212205284bd91e45fc1b69b7acab4dcab1a5dc85f51fc5ff4ec301d55930d3096e9c464736f6c63430008060033",
  "immutableReferences": {},
  "source": "pragma solidity ^0.8.6;\n\nimport \"@openzeppelin/contracts/utils/math/SafeMath.sol\";\n\ncontract checks {\n\n    function between(uint x, uint min, uint max) private returns (bool){\n        return x >= min && x <= max;\n    }\n    function basic_check(uint radio, uint min, uint max, uint variation) private returns (string memory){\n        if (between(radio, min, max)){\n            return \"Normal\";        \n        }\n        if (between(radio, min - variation, max + variation)){\n            return \"Border\";\n        }\n        if (!between(radio, min - variation, max + variation)){\n            return \"Danger\";\n        }\n        if (radio==0){\n            return \"Border\";\n        }\n        return \"Problem\";\n    }\n      function append(string memory a, string memory b) public returns (string memory) {\n        return string(abi.encodePacked(a, b));\n    }\n    function uint2str(uint _i) public returns (string memory _uintAsString) {\n        if (_i == 0) {\n            return \"0\";\n        }\n        uint j = _i;\n        uint len;\n        while (j != 0) {\n            len++;\n            j /= 10;\n        }\n        bytes memory bstr = new bytes(len);\n        uint k = len;\n        while (_i != 0) {\n            k = k-1;\n            uint8 temp = (48 + uint8(_i - _i / 10 * 10));\n            bytes1 b1 = bytes1(temp);\n            bstr[k] = b1;\n            _i /= 10;\n        }\n        return string(bstr);\n    }\n    function checkTemperature(string memory sensor_id, uint temperature) public returns (string memory) {\n        uint max = uint(22);\n        uint min = uint(32);\n        uint variation = uint(5);\n        return basic_check(temperature, min, max, variation);\n    }\n    function checkRadio(string memory sensor_id, uint radio) public returns (string memory) {\n        uint max = uint(0);\n        uint min = uint(5);\n        uint variation = uint(2);\n        return basic_check(radio, min, max, variation);\n    }\n    function checkHumidity(string memory sensor_id, uint humidity) public returns (string memory) {\n        uint max = uint(22);\n        uint min = uint(44);\n        uint variation = uint(10);\n        return basic_check(humidity, min, max, variation);\n    }\n}",
  "sourcePath": "/home/radblock05/Desktop/kcloud/reactGraphkCLOUD/truffleSide/contracts/checks.sol",
  "compiler": {
    "name": "solc",
    "version": "0.8.6+commit.11564f7e.Emscripten.clang"
  },
  "schemaVersion": "3.4.4",
  "updatedAt": "2021-12-25T17:25:45.436Z",
  "devdoc": {
    "kind": "dev",
    "methods": {},
    "version": 1
  },
  "userdoc": {
    "kind": "user",
    "methods": {},
    "version": 1
  }
}