{
  "contractName": "checks",
  "abi": [
    {
      "inputs": [
        {
          "internalType": "string",
          "name": "a",
          "type": "string"
        },
        {
          "internalType": "string",
          "name": "b",
          "type": "string"
        }
      ],
      "name": "append",
      "outputs": [
        {
          "internalType": "string",
          "name": "",
          "type": "string"
        }
      ],
      "stateMutability": "nonpayable",
      "type": "function"
    },
    {
      "inputs": [
        {
          "internalType": "uint256",
          "name": "_i",
          "type": "uint256"
        }
      ],
      "name": "uint2str",
      "outputs": [
        {
          "internalType": "string",
          "name": "_uintAsString",
          "type": "string"
        }
      ],
      "stateMutability": "nonpayable",
      "type": "function"
    },
    {
      "inputs": [
        {
          "internalType": "string",
          "name": "sensor_id",
          "type": "string"
        },
        {
          "internalType": "uint256",
          "name": "temperature",
          "type": "uint256"
        }
      ],
      "name": "checkTemperature",
      "outputs": [
        {
          "internalType": "string",
          "name": "",
          "type": "string"
        }
      ],
      "stateMutability": "nonpayable",
      "type": "function"
    },
    {
      "inputs": [
        {
          "internalType": "string",
          "name": "sensor_id",
          "type": "string"
        },
        {
          "internalType": "uint256",
          "name": "radio",
          "type": "uint256"
        }
      ],
      "name": "checkRadio",
      "outputs": [
        {
          "internalType": "string",
          "name": "",
          "type": "string"
        }
      ],
      "stateMutability": "nonpayable",
      "type": "function"
    },
    {
      "inputs": [
        {
          "internalType": "uint256",
          "name": "accX",
          "type": "uint256"
        },
        {
          "internalType": "uint256",
          "name": "accY",
          "type": "uint256"
        },
        {
          "internalType": "uint256",
          "name": "accZ",
          "type": "uint256"
        }
      ],
      "name": "checkAcceleration",
      "outputs": [
        {
          "internalType": "string",
          "name": "",
          "type": "string"
        }
      ],
      "stateMutability": "nonpayable",
      "type": "function"
    }
  ],
  "bytecode": "0x608060405234801561001057600080fd5b50610c1c806100206000396000f3fe608060405234801561001057600080fd5b50600436106100575760003560e01c80634bc6309a1461005c578063591c515f1461008c5780637ba3517e146100bc578063f7548a00146100ec578063f76f950e1461011c575b600080fd5b610076600480360381019061007191906106c6565b61014c565b6040516100839190610830565b60405180910390f35b6100a660048036038101906100a1919061064e565b61019f565b6040516100b39190610830565b60405180910390f35b6100d660048036038101906100d191906106c6565b6101cb565b6040516100e39190610830565b60405180910390f35b6101066004803603810190610101919061074f565b61021e565b6040516101139190610830565b60405180910390f35b61013660048036038101906101319190610722565b61028a565b6040516101439190610830565b60405180910390f35b60606000600a90506000816004610163919061098d565b90506000826000610174919061098d565b90506000836001610185919061098d565b905061019386838584610413565b94505050505092915050565b606082826040516020016101b492919061080c565b604051602081830303815290604052905092915050565b606060006064905060008160286101e2919061098d565b905060008260006101f3919061098d565b90506000836005610204919061098d565b905061021286838584610413565b94505050505092915050565b60606000600190506000600384868861023791906108cf565b61024191906108cf565b61024b919061095c565b9050600082603761025c919061098d565b905060008084600561026e919061098d565b905061027c84838584610413565b955050505050509392505050565b606060008214156102d2576040518060400160405280600181526020017f3000000000000000000000000000000000000000000000000000000000000000815250905061040e565b600082905060005b600082146103045780806102ed90610aa5565b915050600a826102fd919061095c565b91506102da565b60008167ffffffffffffffff8111156103205761031f610b7b565b5b6040519080825280601f01601f1916602001820160405280156103525781602001600182028036833780820191505090505b50905060008290505b600086146104065760018161037091906109e7565b90506000600a8088610382919061095c565b61038c919061098d565b8761039791906109e7565b60306103a39190610925565b905060008160f81b9050808484815181106103c1576103c0610b4c565b5b60200101907effffffffffffffffffffffffffffffffffffffffffffffffffffffffffffff1916908160001a905350600a886103fd919061095c565b9750505061035b565b819450505050505b919050565b60606104208585856105ae565b15610462576040518060400160405280600681526020017f4e6f726d616c000000000000000000000000000000000000000000000000000081525090506105a6565b61048385838661047291906109e7565b848661047e91906108cf565b6105ae565b156104c5576040518060400160405280600681526020017f426f72646572000000000000000000000000000000000000000000000000000081525090506105a6565b6104e68583866104d591906109e7565b84866104e191906108cf565b6105ae565b610527576040518060400160405280600681526020017f44616e676572000000000000000000000000000000000000000000000000000081525090506105a6565b600085141561056d576040518060400160405280600681526020017f426f72646572000000000000000000000000000000000000000000000000000081525090506105a6565b6040518060400160405280600781526020017f50726f626c656d0000000000000000000000000000000000000000000000000081525090505b949350505050565b60008284101580156105c05750818411155b90509392505050565b60006105dc6105d784610877565b610852565b9050828152602081018484840111156105f8576105f7610baf565b5b610603848285610a32565b509392505050565b600082601f8301126106205761061f610baa565b5b81356106308482602086016105c9565b91505092915050565b60008135905061064881610bcf565b92915050565b6000806040838503121561066557610664610bb9565b5b600083013567ffffffffffffffff81111561068357610682610bb4565b5b61068f8582860161060b565b925050602083013567ffffffffffffffff8111156106b0576106af610bb4565b5b6106bc8582860161060b565b9150509250929050565b600080604083850312156106dd576106dc610bb9565b5b600083013567ffffffffffffffff8111156106fb576106fa610bb4565b5b6107078582860161060b565b925050602061071885828601610639565b9150509250929050565b60006020828403121561073857610737610bb9565b5b600061074684828501610639565b91505092915050565b60008060006060848603121561076857610767610bb9565b5b600061077686828701610639565b935050602061078786828701610639565b925050604061079886828701610639565b9150509250925092565b60006107ad826108a8565b6107b781856108b3565b93506107c7818560208601610a41565b6107d081610bbe565b840191505092915050565b60006107e6826108a8565b6107f081856108c4565b9350610800818560208601610a41565b80840191505092915050565b600061081882856107db565b915061082482846107db565b91508190509392505050565b6000602082019050818103600083015261084a81846107a2565b905092915050565b600061085c61086d565b90506108688282610a74565b919050565b6000604051905090565b600067ffffffffffffffff82111561089257610891610b7b565b5b61089b82610bbe565b9050602081019050919050565b600081519050919050565b600082825260208201905092915050565b600081905092915050565b60006108da82610a1b565b91506108e583610a1b565b9250827fffffffffffffffffffffffffffffffffffffffffffffffffffffffffffffffff0382111561091a57610919610aee565b5b828201905092915050565b600061093082610a25565b915061093b83610a25565b92508260ff0382111561095157610950610aee565b5b828201905092915050565b600061096782610a1b565b915061097283610a1b565b92508261098257610981610b1d565b5b828204905092915050565b600061099882610a1b565b91506109a383610a1b565b9250817fffffffffffffffffffffffffffffffffffffffffffffffffffffffffffffffff04831182151516156109dc576109db610aee565b5b828202905092915050565b60006109f282610a1b565b91506109fd83610a1b565b925082821015610a1057610a0f610aee565b5b828203905092915050565b6000819050919050565b600060ff82169050919050565b82818337600083830152505050565b60005b83811015610a5f578082015181840152602081019050610a44565b83811115610a6e576000848401525b50505050565b610a7d82610bbe565b810181811067ffffffffffffffff82111715610a9c57610a9b610b7b565b5b80604052505050565b6000610ab082610a1b565b91507fffffffffffffffffffffffffffffffffffffffffffffffffffffffffffffffff821415610ae357610ae2610aee565b5b600182019050919050565b7f4e487b7100000000000000000000000000000000000000000000000000000000600052601160045260246000fd5b7f4e487b7100000000000000000000000000000000000000000000000000000000600052601260045260246000fd5b7f4e487b7100000000000000000000000000000000000000000000000000000000600052603260045260246000fd5b7f4e487b7100000000000000000000000000000000000000000000000000000000600052604160045260246000fd5b600080fd5b600080fd5b600080fd5b600080fd5b6000601f19601f8301169050919050565b610bd881610a1b565b8114610be357600080fd5b5056fea2646970667358221220a90b05d0413ea651ba61bd890df169865037791c715947180404e253aa33169264736f6c63430008060033",
  "immutableReferences": {},
  "source": "pragma solidity ^0.8.6;\n\nimport \"@openzeppelin/contracts/utils/math/SafeMath.sol\";\n\ncontract checks {\n\n    function between(uint x, uint min, uint max) private returns (bool){\n        return x >= min && x <= max;\n    }\n    function basic_check(uint radio, uint min, uint max, uint variation) private returns (string memory){\n        if (between(radio, min, max)){\n            return \"Normal\";        \n        }\n        if (between(radio, min - variation, max + variation)){\n            return \"Border\";\n        }\n        if (!between(radio, min - variation, max + variation)){\n            return \"Danger\";\n        }\n        if (radio==0){\n            return \"Border\";\n        }\n        return \"Problem\";\n    }\n      function append(string memory a, string memory b) public returns (string memory) {\n        return string(abi.encodePacked(a, b));\n    }\n    function uint2str(uint _i) public returns (string memory _uintAsString) {\n        if (_i == 0) {\n            return \"0\";\n        }\n        uint j = _i;\n        uint len;\n        while (j != 0) {\n            len++;\n            j /= 10;\n        }\n        bytes memory bstr = new bytes(len);\n        uint k = len;\n        while (_i != 0) {\n            k = k-1;\n            uint8 temp = (48 + uint8(_i - _i / 10 * 10));\n            bytes1 b1 = bytes1(temp);\n            bstr[k] = b1;\n            _i /= 10;\n        }\n        return string(bstr);\n    }\n    function checkTemperature(string memory sensor_id, uint temperature) public returns (string memory) {\n        uint multiplier = 100;\n        uint max = uint(40*multiplier);\n        uint min = uint(0*multiplier);\n        uint variation = uint(5*multiplier);\n        return basic_check(temperature, min, max, variation);\n    }\n    function checkRadio(string memory sensor_id, uint radio) public returns (string memory) {\n        uint multiplier = 10;\n        uint max = uint(4*multiplier);\n        uint min = uint(0*multiplier);\n        uint variation = uint(1*multiplier);\n        return basic_check(radio, min, max, variation);\n    }\n    function checkAcceleration(uint accX, uint accY, uint accZ) public returns (string memory) {\n        uint multiplier = 1;\n        uint val = uint((accX + accY + accZ)/3);\n        uint max = 55*multiplier;\n        uint min = 0; \n        uint variation = uint(5*multiplier);\n        return basic_check(val, min, max, variation);\n    }\n}",
  "sourcePath": "/home/radblock01/Desktop/kcloud2/reactGraphkCLOUD/truffleSide/contracts/checks.sol",
  "compiler": {
    "name": "solc",
    "version": "0.8.6+commit.11564f7e.Emscripten.clang"
  },
  "schemaVersion": "3.4.3",
  "updatedAt": "2021-12-26T05:33:45.643Z",
  "devdoc": {
    "kind": "dev",
    "methods": {},
    "version": 1
  },
  "userdoc": {
    "kind": "user",
    "methods": {},
    "version": 1
  }
}