{
  "contractName": "KCLOUD",
  "abi": [
    {
      "anonymous": false,
      "inputs": [
        {
          "indexed": false,
          "internalType": "uint256",
          "name": "drum_id",
          "type": "uint256"
        },
        {
          "indexed": false,
          "internalType": "uint256",
          "name": "time",
          "type": "uint256"
        },
        {
          "indexed": false,
          "internalType": "string",
          "name": "carrier",
          "type": "string"
        },
        {
          "indexed": false,
          "internalType": "string",
          "name": "transportation_schedule",
          "type": "string"
        }
      ],
      "name": "DrumInTransit",
      "type": "event"
    },
    {
      "anonymous": false,
      "inputs": [
        {
          "indexed": false,
          "internalType": "uint256",
          "name": "drum_id",
          "type": "uint256"
        },
        {
          "indexed": false,
          "internalType": "uint256",
          "name": "time",
          "type": "uint256"
        },
        {
          "indexed": false,
          "internalType": "string",
          "name": "classification",
          "type": "string"
        },
        {
          "indexed": false,
          "internalType": "string",
          "name": "w_type",
          "type": "string"
        },
        {
          "indexed": false,
          "internalType": "uint256",
          "name": "date_unix",
          "type": "uint256"
        },
        {
          "indexed": false,
          "internalType": "string",
          "name": "place_of_occurence",
          "type": "string"
        },
        {
          "indexed": false,
          "internalType": "uint256",
          "name": "dose_rate",
          "type": "uint256"
        },
        {
          "indexed": false,
          "internalType": "string",
          "name": "waste_acceptance_request",
          "type": "string"
        }
      ],
      "name": "DrumPackaged",
      "type": "event"
    },
    {
      "anonymous": false,
      "inputs": [
        {
          "indexed": false,
          "internalType": "uint256",
          "name": "drum_id",
          "type": "uint256"
        },
        {
          "indexed": false,
          "internalType": "uint256",
          "name": "time",
          "type": "uint256"
        },
        {
          "indexed": false,
          "internalType": "uint256",
          "name": "longitude",
          "type": "uint256"
        },
        {
          "indexed": false,
          "internalType": "uint256",
          "name": "latitude",
          "type": "uint256"
        }
      ],
      "name": "GPSDataEvent",
      "type": "event"
    },
    {
      "anonymous": false,
      "inputs": [
        {
          "indexed": false,
          "internalType": "uint256",
          "name": "drum_id",
          "type": "uint256"
        },
        {
          "indexed": false,
          "internalType": "uint256",
          "name": "time",
          "type": "uint256"
        },
        {
          "indexed": false,
          "internalType": "uint256",
          "name": "sensor_id",
          "type": "uint256"
        }
      ],
      "name": "NewDrumEnrolled",
      "type": "event"
    },
    {
      "anonymous": false,
      "inputs": [
        {
          "indexed": false,
          "internalType": "uint256",
          "name": "sensor_id",
          "type": "uint256"
        },
        {
          "indexed": false,
          "internalType": "uint256",
          "name": "time",
          "type": "uint256"
        },
        {
          "indexed": false,
          "internalType": "uint256",
          "name": "data_id",
          "type": "uint256"
        },
        {
          "indexed": false,
          "internalType": "uint256",
          "name": "latitude",
          "type": "uint256"
        },
        {
          "indexed": false,
          "internalType": "uint256",
          "name": "longitude",
          "type": "uint256"
        },
        {
          "indexed": false,
          "internalType": "uint256",
          "name": "accX",
          "type": "uint256"
        }
      ],
      "name": "SensorDataEvent",
      "type": "event"
    },
    {
      "anonymous": false,
      "inputs": [
        {
          "indexed": false,
          "internalType": "uint256",
          "name": "data_id",
          "type": "uint256"
        },
        {
          "indexed": false,
          "internalType": "uint256",
          "name": "accZ",
          "type": "uint256"
        },
        {
          "indexed": false,
          "internalType": "uint256",
          "name": "temp",
          "type": "uint256"
        },
        {
          "indexed": false,
          "internalType": "uint256",
          "name": "humi",
          "type": "uint256"
        },
        {
          "indexed": false,
          "internalType": "uint256",
          "name": "radio",
          "type": "uint256"
        },
        {
          "indexed": false,
          "internalType": "string",
          "name": "alarm",
          "type": "string"
        }
      ],
      "name": "SensorDataEvent2",
      "type": "event"
    },
    {
      "anonymous": false,
      "inputs": [
        {
          "indexed": false,
          "internalType": "uint256",
          "name": "drum_id",
          "type": "uint256"
        },
        {
          "indexed": false,
          "internalType": "uint256",
          "name": "time",
          "type": "uint256"
        },
        {
          "indexed": false,
          "internalType": "string",
          "name": "acquisition",
          "type": "string"
        },
        {
          "indexed": false,
          "internalType": "string",
          "name": "transferee",
          "type": "string"
        },
        {
          "indexed": false,
          "internalType": "string",
          "name": "transportation_schedule",
          "type": "string"
        },
        {
          "indexed": false,
          "internalType": "string",
          "name": "waste_acceptance_request",
          "type": "string"
        }
      ],
      "name": "TakingOver",
      "type": "event"
    },
    {
      "anonymous": false,
      "inputs": [
        {
          "indexed": false,
          "internalType": "uint256",
          "name": "drum_id",
          "type": "uint256"
        },
        {
          "indexed": false,
          "internalType": "uint256",
          "name": "time",
          "type": "uint256"
        },
        {
          "indexed": false,
          "internalType": "uint256",
          "name": "longitude",
          "type": "uint256"
        },
        {
          "indexed": false,
          "internalType": "uint256",
          "name": "latitude",
          "type": "uint256"
        },
        {
          "indexed": false,
          "internalType": "uint256",
          "name": "storage_id",
          "type": "uint256"
        },
        {
          "indexed": false,
          "internalType": "string",
          "name": "storage_schedule",
          "type": "string"
        }
      ],
      "name": "TemporaryStorage",
      "type": "event"
    },
    {
      "inputs": [
        {
          "internalType": "uint256",
          "name": "drum_id",
          "type": "uint256"
        },
        {
          "internalType": "uint256",
          "name": "time",
          "type": "uint256"
        },
        {
          "internalType": "uint256",
          "name": "sensor_id",
          "type": "uint256"
        }
      ],
      "name": "enrollment",
      "outputs": [],
      "stateMutability": "nonpayable",
      "type": "function"
    },
    {
      "inputs": [
        {
          "internalType": "uint256",
          "name": "drum_id",
          "type": "uint256"
        },
        {
          "internalType": "uint256",
          "name": "time",
          "type": "uint256"
        },
        {
          "internalType": "string",
          "name": "classification",
          "type": "string"
        },
        {
          "internalType": "string",
          "name": "w_type",
          "type": "string"
        },
        {
          "internalType": "uint256",
          "name": "date_unix",
          "type": "uint256"
        },
        {
          "internalType": "string",
          "name": "place_of_occurence",
          "type": "string"
        },
        {
          "internalType": "uint256",
          "name": "dose_rate",
          "type": "uint256"
        },
        {
          "internalType": "string",
          "name": "waste_acceptance_request",
          "type": "string"
        }
      ],
      "name": "packaging",
      "outputs": [],
      "stateMutability": "nonpayable",
      "type": "function"
    },
    {
      "inputs": [
        {
          "internalType": "uint256",
          "name": "drum_id",
          "type": "uint256"
        },
        {
          "internalType": "uint256",
          "name": "time",
          "type": "uint256"
        },
        {
          "internalType": "string",
          "name": "carrier",
          "type": "string"
        },
        {
          "internalType": "string",
          "name": "transportation_schedule",
          "type": "string"
        }
      ],
      "name": "transit",
      "outputs": [],
      "stateMutability": "nonpayable",
      "type": "function"
    },
    {
      "inputs": [
        {
          "internalType": "uint256",
          "name": "sensor_id",
          "type": "uint256"
        },
        {
          "internalType": "uint256",
          "name": "radio",
          "type": "uint256"
        }
      ],
      "name": "checkRadio",
      "outputs": [
        {
          "internalType": "string",
          "name": "",
          "type": "string"
        }
      ],
      "stateMutability": "nonpayable",
      "type": "function"
    },
    {
      "inputs": [
        {
          "internalType": "uint256",
          "name": "data_id",
          "type": "uint256"
        },
        {
          "internalType": "uint256",
          "name": "sensor_id",
          "type": "uint256"
        },
        {
          "internalType": "uint256",
          "name": "time",
          "type": "uint256"
        },
        {
          "internalType": "uint256",
          "name": "latitude",
          "type": "uint256"
        },
        {
          "internalType": "uint256",
          "name": "longitude",
          "type": "uint256"
        },
        {
          "internalType": "uint256",
          "name": "accX",
          "type": "uint256"
        },
        {
          "internalType": "uint256",
          "name": "accY",
          "type": "uint256"
        },
        {
          "internalType": "uint256",
          "name": "accZ",
          "type": "uint256"
        },
        {
          "internalType": "uint256",
          "name": "temp",
          "type": "uint256"
        },
        {
          "internalType": "uint256",
          "name": "humi",
          "type": "uint256"
        },
        {
          "internalType": "uint256",
          "name": "radio",
          "type": "uint256"
        }
      ],
      "name": "passSensorData",
      "outputs": [],
      "stateMutability": "nonpayable",
      "type": "function"
    },
    {
      "inputs": [
        {
          "internalType": "uint256",
          "name": "drum_id",
          "type": "uint256"
        },
        {
          "internalType": "uint256",
          "name": "time",
          "type": "uint256"
        },
        {
          "internalType": "uint256",
          "name": "longitude",
          "type": "uint256"
        },
        {
          "internalType": "uint256",
          "name": "latitude",
          "type": "uint256"
        },
        {
          "internalType": "uint256",
          "name": "storage_id",
          "type": "uint256"
        },
        {
          "internalType": "string",
          "name": "storage_schedule",
          "type": "string"
        }
      ],
      "name": "temporaryStorage",
      "outputs": [],
      "stateMutability": "nonpayable",
      "type": "function"
    },
    {
      "inputs": [
        {
          "internalType": "uint256",
          "name": "drum_id",
          "type": "uint256"
        },
        {
          "internalType": "uint256",
          "name": "time",
          "type": "uint256"
        },
        {
          "internalType": "string",
          "name": "acquisition",
          "type": "string"
        },
        {
          "internalType": "string",
          "name": "transferee",
          "type": "string"
        },
        {
          "internalType": "string",
          "name": "transportation_schedule",
          "type": "string"
        },
        {
          "internalType": "string",
          "name": "waste_acceptance_handover",
          "type": "string"
        }
      ],
      "name": "takingOver",
      "outputs": [],
      "stateMutability": "nonpayable",
      "type": "function"
    }
  ],
  "bytecode": "0x608060405234801561001057600080fd5b506113e3806100206000396000f3fe608060405234801561001057600080fd5b506004361061007d5760003560e01c80633c367a6c1161005b5780633c367a6c146100d65780634b9bbb98146100f2578063790eee4d1461010e57806397e133341461013e5761007d565b8063131281b0146100825780631be4ae2a1461009e5780632798ca7f146100ba575b600080fd5b61009c60048036038101906100979190610a6e565b61015a565b005b6100b860048036038101906100b39190610b94565b6101ff565b005b6100d460048036038101906100cf91906108d2565b6102c4565b005b6100f060048036038101906100eb9190610971565b610307565b005b61010c60048036038101906101079190610be7565b610350565b005b61012860048036038101906101239190610892565b610399565b6040516101359190610e14565b60405180910390f35b61015860048036038101906101539190610c90565b610652565b005b85600160008a81526020019081526020016000206001019080519060200190610184929190610749565b5084600160008a815260200190815260200160002060020190805190602001906101af929190610749565b507f68e306d105c3fb23c1542a3b9107558837290603fb5cee8c46c13d422c6f00e388888888888888886040516101ed989796959493929190610f06565b60405180910390a15050505050505050565b7fd53614e44ad442d0d7579a267cde9b765c44bd0d6f9ea9d8a9ecbb5598cd30b483838360405161023293929190610fa0565b60405180910390a182600080838152602001908152602001600020819055506102596107cf565b83816000018181525050806001600086815260200190815260200160002060008201518160000155602082015181600101908051906020019061029d929190610749565b5060408201518160020190805190602001906102ba929190610749565b5090505050505050565b7f4af3e093b8455bb5936effedabe6053923c5a2222076915a675c169359efaea9848484846040516102f99493929190610e36565b60405180910390a150505050565b7fdaf310f394dfab8e5be21cdeff3ab385f3ebb8c67c774d96e143d676c860050a86868686868660405161034096959493929190610e89565b60405180910390a1505050505050565b7f94dc220b54fb5e3a297b3511c07bb71c80e3b7153c18be9754bfcb0faaec6f6586868686868660405161038996959493929190610fd7565b60405180910390a1505050505050565b6060600080600085815260200190815260200160002054905060006001600083815260200190815260200160002060010180546103d59061119d565b80601f01602080910402602001604051908101604052809291908181526020018280546104019061119d565b801561044e5780601f106104235761010080835404028352916020019161044e565b820191906000526020600020905b81548152906001019060200180831161043157829003601f168201915b505050505090506000610479826040518060600160405280603681526020016112ca603691396106f0565b1561048357600a90505b6104a58260405180606001604052806038815260200161134f603891396106f0565b156104af57600f90505b6104d182604051806060016040528060288152602001611300602891396106f0565b156104db57600a90505b6104fd82604051806060016040528060278152602001611328602791396106f0565b1561050757600a90505b61052982604051806060016040528060278152602001611387602791396106f0565b1561053357600290505b6060818611610575576040518060400160405280600681526020017f6e6f726d616c000000000000000000000000000000000000000000000000000081525090505b818611156105b6576040518060400160405280600681526020017f64616e676572000000000000000000000000000000000000000000000000000081525090505b600282876105c4919061111d565b1115610603576040518060400160405280600681526020017f626f72646572000000000000000000000000000000000000000000000000000081525090505b6000821415610645576040518060400160405280600681526020017f64616e676572000000000000000000000000000000000000000000000000000081525090505b8094505050505092915050565b600061065e8b83610399565b90507f73b6be938dc8944696ea7738d229a689ccf5018a852a93e21e9432f9e993b1cf8b8b8e8c8c8c6040516106999695949392919061103f565b60405180910390a17f338f7c1e01112e350b72bf948d114055675f61acaa6604da7aa7304a54facc198c86868686866040516106da96959493929190610fd7565b60405180910390a1505050505050505050505050565b6000816040516020016107039190610dfd565b604051602081830303815290604052805190602001208360405160200161072a9190610dfd565b6040516020818303038152906040528051906020012014905092915050565b8280546107559061119d565b90600052602060002090601f01602090048101928261077757600085556107be565b82601f1061079057805160ff19168380011785556107be565b828001600101855582156107be579182015b828111156107bd5782518255916020019190600101906107a2565b5b5090506107cb91906107f0565b5090565b60405180606001604052806000815260200160608152602001606081525090565b5b808211156108095760008160009055506001016107f1565b5090565b600061082061081b846110c5565b6110a0565b90508281526020810184848401111561083c5761083b611292565b5b61084784828561115b565b509392505050565b600082601f8301126108645761086361128d565b5b813561087484826020860161080d565b91505092915050565b60008135905061088c816112b2565b92915050565b600080604083850312156108a9576108a861129c565b5b60006108b78582860161087d565b92505060206108c88582860161087d565b9150509250929050565b600080600080608085870312156108ec576108eb61129c565b5b60006108fa8782880161087d565b945050602061090b8782880161087d565b935050604085013567ffffffffffffffff81111561092c5761092b611297565b5b6109388782880161084f565b925050606085013567ffffffffffffffff81111561095957610958611297565b5b6109658782880161084f565b91505092959194509250565b60008060008060008060c0878903121561098e5761098d61129c565b5b600061099c89828a0161087d565b96505060206109ad89828a0161087d565b955050604087013567ffffffffffffffff8111156109ce576109cd611297565b5b6109da89828a0161084f565b945050606087013567ffffffffffffffff8111156109fb576109fa611297565b5b610a0789828a0161084f565b935050608087013567ffffffffffffffff811115610a2857610a27611297565b5b610a3489828a0161084f565b92505060a087013567ffffffffffffffff811115610a5557610a54611297565b5b610a6189828a0161084f565b9150509295509295509295565b600080600080600080600080610100898b031215610a8f57610a8e61129c565b5b6000610a9d8b828c0161087d565b9850506020610aae8b828c0161087d565b975050604089013567ffffffffffffffff811115610acf57610ace611297565b5b610adb8b828c0161084f565b965050606089013567ffffffffffffffff811115610afc57610afb611297565b5b610b088b828c0161084f565b9550506080610b198b828c0161087d565b94505060a089013567ffffffffffffffff811115610b3a57610b39611297565b5b610b468b828c0161084f565b93505060c0610b578b828c0161087d565b92505060e089013567ffffffffffffffff811115610b7857610b77611297565b5b610b848b828c0161084f565b9150509295985092959890939650565b600080600060608486031215610bad57610bac61129c565b5b6000610bbb8682870161087d565b9350506020610bcc8682870161087d565b9250506040610bdd8682870161087d565b9150509250925092565b60008060008060008060c08789031215610c0457610c0361129c565b5b6000610c1289828a0161087d565b9650506020610c2389828a0161087d565b9550506040610c3489828a0161087d565b9450506060610c4589828a0161087d565b9350506080610c5689828a0161087d565b92505060a087013567ffffffffffffffff811115610c7757610c76611297565b5b610c8389828a0161084f565b9150509295509295509295565b60008060008060008060008060008060006101608c8e031215610cb657610cb561129c565b5b6000610cc48e828f0161087d565b9b50506020610cd58e828f0161087d565b9a50506040610ce68e828f0161087d565b9950506060610cf78e828f0161087d565b9850506080610d088e828f0161087d565b97505060a0610d198e828f0161087d565b96505060c0610d2a8e828f0161087d565b95505060e0610d3b8e828f0161087d565b945050610100610d4d8e828f0161087d565b935050610120610d5f8e828f0161087d565b925050610140610d718e828f0161087d565b9150509295989b509295989b9093969950565b6000610d8f826110f6565b610d998185611101565b9350610da981856020860161116a565b610db2816112a1565b840191505092915050565b6000610dc8826110f6565b610dd28185611112565b9350610de281856020860161116a565b80840191505092915050565b610df781611151565b82525050565b6000610e098284610dbd565b915081905092915050565b60006020820190508181036000830152610e2e8184610d84565b905092915050565b6000608082019050610e4b6000830187610dee565b610e586020830186610dee565b8181036040830152610e6a8185610d84565b90508181036060830152610e7e8184610d84565b905095945050505050565b600060c082019050610e9e6000830189610dee565b610eab6020830188610dee565b8181036040830152610ebd8187610d84565b90508181036060830152610ed18186610d84565b90508181036080830152610ee58185610d84565b905081810360a0830152610ef98184610d84565b9050979650505050505050565b600061010082019050610f1c600083018b610dee565b610f29602083018a610dee565b8181036040830152610f3b8189610d84565b90508181036060830152610f4f8188610d84565b9050610f5e6080830187610dee565b81810360a0830152610f708186610d84565b9050610f7f60c0830185610dee565b81810360e0830152610f918184610d84565b90509998505050505050505050565b6000606082019050610fb56000830186610dee565b610fc26020830185610dee565b610fcf6040830184610dee565b949350505050565b600060c082019050610fec6000830189610dee565b610ff96020830188610dee565b6110066040830187610dee565b6110136060830186610dee565b6110206080830185610dee565b81810360a08301526110328184610d84565b9050979650505050505050565b600060c0820190506110546000830189610dee565b6110616020830188610dee565b61106e6040830187610dee565b61107b6060830186610dee565b6110886080830185610dee565b61109560a0830184610dee565b979650505050505050565b60006110aa6110bb565b90506110b682826111cf565b919050565b6000604051905090565b600067ffffffffffffffff8211156110e0576110df61125e565b5b6110e9826112a1565b9050602081019050919050565b600081519050919050565b600082825260208201905092915050565b600081905092915050565b600061112882611151565b915061113383611151565b92508282101561114657611145611200565b5b828203905092915050565b6000819050919050565b82818337600083830152505050565b60005b8381101561118857808201518184015260208101905061116d565b83811115611197576000848401525b50505050565b600060028204905060018216806111b557607f821691505b602082108114156111c9576111c861122f565b5b50919050565b6111d8826112a1565b810181811067ffffffffffffffff821117156111f7576111f661125e565b5b80604052505050565b7f4e487b7100000000000000000000000000000000000000000000000000000000600052601160045260246000fd5b7f4e487b7100000000000000000000000000000000000000000000000000000000600052602260045260246000fd5b7f4e487b7100000000000000000000000000000000000000000000000000000000600052604160045260246000fd5b600080fd5b600080fd5b600080fd5b600080fd5b6000601f19601f8301169050919050565b6112bb81611151565b81146112c657600080fd5b5056fe436f6e63656e747261746564207761737465206c6971756964206472756d202d2063656d656e7420736f6c6964696669636174696f6e57617374652066696c746572206472756d202d2063656d656e7420736f6c69646966636174696f6e576173746520726573696e206472756d202d2063656d656e7420736f6c69646966636174696f6e436f6e63656e747261746564207761737465206c6971756964206472756d202d20506172616666696e20736f6c6964696669636174696f6e4a61676368616472756d202d20446573616c74656420506170657220436f6d7072657373696f6ea26469706673582212206203d7c2b224b574bc0d9dc189ca410f55fbb777b39476b9dbf7a3f07bdee48464736f6c63430008060033",
  "immutableReferences": {},
  "source": "pragma solidity ^0.8.6;\n\nimport \"@openzeppelin/contracts/utils/math/SafeMath.sol\";\n\ncontract KCLOUD {\n    // events \n    event NewDrumEnrolled(uint drum_id, uint time, uint sensor_id);\n    event DrumPackaged(uint drum_id, uint time, string classification, string w_type, uint date_unix, string place_of_occurence, uint dose_rate, string waste_acceptance_request);\n    event DrumInTransit(uint drum_id, uint time, string carrier, string transportation_schedule);\n    event TemporaryStorage(uint drum_id, uint time, uint longitude, uint latitude, uint storage_id,  string storage_schedule);\n    event TakingOver(uint drum_id, uint time, string acquisition, string transferee, string transportation_schedule, string waste_acceptance_request);\n    \n    event SensorDataEvent(uint sensor_id, uint time, uint data_id, uint latitude, uint longitude, uint accX);\n           //emit SensorDataEvent2(data_id, longitude, accX, accY, accZ);\n    event SensorDataEvent2(uint data_id, uint accZ, uint temp, uint humi, uint radio, string alarm);\n    \n    event GPSDataEvent(uint drum_id, uint time, uint longitude, uint latitude);\n    \n    mapping (uint => uint) private sensorToDrumID;\n    mapping (uint => Drum) private drumIDToDrum;\n    \n    struct Drum{\n        uint drum_id;\n        string classification;\n        string w_type;\n    }\n\n    function enrollment(uint drum_id, uint time, uint sensor_id) public {\n        emit NewDrumEnrolled(drum_id, time, sensor_id);        \n        sensorToDrumID[sensor_id] = drum_id;\n        \n        Drum memory my_drum;\n        my_drum.drum_id = drum_id;\n\n        drumIDToDrum[drum_id] = my_drum;\n    }\n\n    \n    function packaging(uint drum_id, uint time, string memory classification, string memory w_type, uint date_unix, string memory place_of_occurence, uint dose_rate, string memory waste_acceptance_request) public {\n        drumIDToDrum[drum_id].classification = classification;\n        drumIDToDrum[drum_id].w_type = w_type; \n        \n        emit DrumPackaged(drum_id, time, classification, w_type, date_unix, place_of_occurence, dose_rate, waste_acceptance_request);        \n    }\n    \n    \n    function checkGPS(uint drum_id, uint time, uint decimals, uint longitude, uint latitude) private{\n            emit GPSDataEvent(drum_id, time, longitude, latitude);\n    }\n    \n    function transit(uint drum_id, uint time, string memory carrier, string memory transportation_schedule) public {\n           emit DrumInTransit(drum_id, time, carrier, transportation_schedule);\n    }\n     \n    function checkRadio(uint sensor_id, uint radio) public returns (string memory) {\n        uint drum_id = sensorToDrumID[sensor_id];\n        \n        string memory classification = drumIDToDrum[drum_id].classification;\n        uint norm; \n\n        if (compareStrings(classification, \"Concentrated waste liquid drum - cement solidification\")){\n            norm = uint256(10);\n        }\n        if (compareStrings(classification, \"Concentrated waste liquid drum - Paraffin solidification\")){\n            norm = uint256(15);\n        }\n        if (compareStrings(classification, \"Waste filter drum - cement solidifcation\")){\n            norm = uint256(10);\n        }\n        if (compareStrings(classification, \"Waste resin drum - cement solidifcation\")){\n            norm = uint256(10);\n        }\n        if (compareStrings(classification, \"Jagchadrum - Desalted Paper Compression\")){\n            norm = uint256(2);\n        }\n\n        string memory alarm;\n            \n        if (radio <= norm){\n                alarm = \"normal\";\n                //emit SensorDataEvent(drum_id, time, type_name[i], alarm, values[i], normal_range[i]);\n        }\n            \n        if (radio > norm){\n                alarm = \"danger\";\n                //emit SensorDataEvent(drum_id, time, type_name[i], alarm, values[i], normal_range[i]);\n        }\n            \n        if (radio - norm > 2) {\n                alarm = \"border\";\n                //emit SensorDataEvent(drum_id, time, type_name[i], alarm, values[i], normal_range[i]);\n        }\n            \n        if (norm == 0) {\n                alarm = \"danger\";\n                //emit SensorDataEvent(drum_id, time, type_name[i], alarm, values[i], normal_range[i]);\n        }\n        \n        return alarm; \n        }\n    \n    function passSensorData(uint data_id, uint sensor_id, uint time, uint latitude, uint longitude, uint accX, uint accY, uint accZ, uint temp, uint humi, uint radio) public{\n\n           string memory alarm = checkRadio(sensor_id, radio);\n          \n          // dataIdToSensorDatum[dataId] = u;\n           emit SensorDataEvent(sensor_id, time, data_id, latitude, longitude, accX);\n           //emit SensorDataEvent2(data_id, longitude, accX, accY, accZ);\n           emit SensorDataEvent2(data_id, accZ, temp, humi, radio, alarm);\n           //emit SensorDataEvent2(dataId, temp, humi, radio);\n\n    }\n    \n    function temporaryStorage(uint drum_id, uint time, uint longitude, uint latitude, uint storage_id, string memory storage_schedule) public{\n           emit TemporaryStorage(drum_id, time, longitude, latitude, storage_id, storage_schedule);\n    }\n\n    function takingOver(uint drum_id, uint time, string memory acquisition, string memory transferee, string memory transportation_schedule, string memory waste_acceptance_handover) public {\n           emit TakingOver(drum_id, time, acquisition, transferee, transportation_schedule, waste_acceptance_handover);\n    }\n    \n\n        function compareStrings(string memory a, string memory b) private pure returns (bool) {\n            return (keccak256(abi.encodePacked((a))) == keccak256(abi.encodePacked((b))));\n    }\n    \n    \n}",
  "sourcePath": "/home/olzhas/Desktop/kcloud/reactGraphkCLOUD/truffleSide/contracts/kcloud.sol",
  "compiler": {
    "name": "solc",
    "version": "0.8.6+commit.11564f7e.Emscripten.clang"
  },
  "schemaVersion": "3.4.2",
  "updatedAt": "2021-10-05T17:22:19.085Z",
  "networkType": "ethereum",
  "devdoc": {
    "kind": "dev",
    "methods": {},
    "version": 1
  },
  "userdoc": {
    "kind": "user",
    "methods": {},
    "version": 1
  }
}