{
  "contractName": "KCLOUD",
  "abi": [
    {
      "anonymous": false,
      "inputs": [
        {
          "indexed": false,
          "internalType": "string",
          "name": "alarm_id",
          "type": "string"
        },
        {
          "indexed": false,
          "internalType": "uint256",
          "name": "data_id",
          "type": "uint256"
        },
        {
          "indexed": false,
          "internalType": "string",
          "name": "drum_id",
          "type": "string"
        },
        {
          "indexed": false,
          "internalType": "string",
          "name": "alarm",
          "type": "string"
        }
      ],
      "name": "AlarmDismissedEvent",
      "type": "event"
    },
    {
      "anonymous": false,
      "inputs": [
        {
          "indexed": false,
          "internalType": "string",
          "name": "drum_id",
          "type": "string"
        },
        {
          "indexed": false,
          "internalType": "uint256",
          "name": "time",
          "type": "uint256"
        },
        {
          "indexed": false,
          "internalType": "string",
          "name": "carrier",
          "type": "string"
        },
        {
          "indexed": false,
          "internalType": "string",
          "name": "transportation_schedule",
          "type": "string"
        }
      ],
      "name": "DrumInTransit",
      "type": "event"
    },
    {
      "anonymous": false,
      "inputs": [
        {
          "indexed": false,
          "internalType": "string",
          "name": "drum_id",
          "type": "string"
        },
        {
          "indexed": false,
          "internalType": "uint256",
          "name": "time",
          "type": "uint256"
        },
        {
          "indexed": false,
          "internalType": "string",
          "name": "carrier",
          "type": "string"
        },
        {
          "indexed": false,
          "internalType": "string",
          "name": "transportation_schedule",
          "type": "string"
        }
      ],
      "name": "DrumInTransit2",
      "type": "event"
    },
    {
      "anonymous": false,
      "inputs": [
        {
          "indexed": false,
          "internalType": "string",
          "name": "drum_id",
          "type": "string"
        },
        {
          "indexed": false,
          "internalType": "uint256",
          "name": "time",
          "type": "uint256"
        },
        {
          "indexed": false,
          "internalType": "string",
          "name": "classification",
          "type": "string"
        },
        {
          "indexed": false,
          "internalType": "string",
          "name": "w_type",
          "type": "string"
        },
        {
          "indexed": false,
          "internalType": "uint256",
          "name": "date_unix",
          "type": "uint256"
        },
        {
          "indexed": false,
          "internalType": "string",
          "name": "place_of_occurence",
          "type": "string"
        },
        {
          "indexed": false,
          "internalType": "uint256",
          "name": "radioactive_concentration",
          "type": "uint256"
        },
        {
          "indexed": false,
          "internalType": "uint256",
          "name": "pollution_level",
          "type": "uint256"
        },
        {
          "indexed": false,
          "internalType": "string",
          "name": "waste_acceptance_request",
          "type": "string"
        }
      ],
      "name": "DrumPackaged",
      "type": "event"
    },
    {
      "anonymous": false,
      "inputs": [
        {
          "indexed": false,
          "internalType": "string",
          "name": "drum_id",
          "type": "string"
        },
        {
          "indexed": false,
          "internalType": "uint256",
          "name": "time",
          "type": "uint256"
        },
        {
          "indexed": false,
          "internalType": "uint256",
          "name": "longitude",
          "type": "uint256"
        },
        {
          "indexed": false,
          "internalType": "uint256",
          "name": "latitude",
          "type": "uint256"
        }
      ],
      "name": "GPSDataEvent",
      "type": "event"
    },
    {
      "anonymous": false,
      "inputs": [
        {
          "indexed": false,
          "internalType": "string",
          "name": "alarm_id",
          "type": "string"
        },
        {
          "indexed": false,
          "internalType": "uint256",
          "name": "data_id",
          "type": "uint256"
        },
        {
          "indexed": false,
          "internalType": "string",
          "name": "alarmType",
          "type": "string"
        },
        {
          "indexed": false,
          "internalType": "string",
          "name": "drum_id",
          "type": "string"
        },
        {
          "indexed": false,
          "internalType": "string",
          "name": "alarm",
          "type": "string"
        }
      ],
      "name": "NewAlarmEvent",
      "type": "event"
    },
    {
      "anonymous": false,
      "inputs": [
        {
          "indexed": false,
          "internalType": "string",
          "name": "drum_id",
          "type": "string"
        },
        {
          "indexed": false,
          "internalType": "uint256",
          "name": "time",
          "type": "uint256"
        },
        {
          "indexed": false,
          "internalType": "string",
          "name": "sensor_id",
          "type": "string"
        }
      ],
      "name": "NewDrumEnrolled",
      "type": "event"
    },
    {
      "anonymous": false,
      "inputs": [
        {
          "indexed": false,
          "internalType": "string",
          "name": "drum_id",
          "type": "string"
        },
        {
          "indexed": false,
          "internalType": "uint256",
          "name": "time",
          "type": "uint256"
        },
        {
          "indexed": false,
          "internalType": "uint256",
          "name": "data_id",
          "type": "uint256"
        },
        {
          "indexed": false,
          "internalType": "uint256",
          "name": "latitude",
          "type": "uint256"
        },
        {
          "indexed": false,
          "internalType": "uint256",
          "name": "longitude",
          "type": "uint256"
        },
        {
          "indexed": false,
          "internalType": "uint256",
          "name": "accX",
          "type": "uint256"
        }
      ],
      "name": "SensorDataEvent",
      "type": "event"
    },
    {
      "anonymous": false,
      "inputs": [
        {
          "indexed": false,
          "internalType": "uint256",
          "name": "data_id",
          "type": "uint256"
        },
        {
          "indexed": false,
          "internalType": "uint256",
          "name": "accZ",
          "type": "uint256"
        },
        {
          "indexed": false,
          "internalType": "uint256",
          "name": "temp",
          "type": "uint256"
        },
        {
          "indexed": false,
          "internalType": "uint256",
          "name": "humi",
          "type": "uint256"
        },
        {
          "indexed": false,
          "internalType": "uint256",
          "name": "radio",
          "type": "uint256"
        },
        {
          "indexed": false,
          "internalType": "string",
          "name": "alarm",
          "type": "string"
        }
      ],
      "name": "SensorDataEvent2",
      "type": "event"
    },
    {
      "anonymous": false,
      "inputs": [
        {
          "indexed": false,
          "internalType": "string",
          "name": "drum_id",
          "type": "string"
        },
        {
          "indexed": false,
          "internalType": "uint256",
          "name": "time",
          "type": "uint256"
        },
        {
          "indexed": false,
          "internalType": "string",
          "name": "acquisition",
          "type": "string"
        },
        {
          "indexed": false,
          "internalType": "string",
          "name": "transferee",
          "type": "string"
        },
        {
          "indexed": false,
          "internalType": "string",
          "name": "transportation_schedule",
          "type": "string"
        },
        {
          "indexed": false,
          "internalType": "string",
          "name": "waste_acceptance_request",
          "type": "string"
        }
      ],
      "name": "TakingOver",
      "type": "event"
    },
    {
      "anonymous": false,
      "inputs": [
        {
          "indexed": false,
          "internalType": "string",
          "name": "drum_id",
          "type": "string"
        },
        {
          "indexed": false,
          "internalType": "uint256",
          "name": "time",
          "type": "uint256"
        },
        {
          "indexed": false,
          "internalType": "uint256",
          "name": "longitude",
          "type": "uint256"
        },
        {
          "indexed": false,
          "internalType": "uint256",
          "name": "latitude",
          "type": "uint256"
        },
        {
          "indexed": false,
          "internalType": "uint256",
          "name": "storage_id",
          "type": "uint256"
        },
        {
          "indexed": false,
          "internalType": "string",
          "name": "storage_schedule",
          "type": "string"
        }
      ],
      "name": "TemporaryStorage",
      "type": "event"
    },
    {
      "anonymous": false,
      "inputs": [
        {
          "indexed": false,
          "internalType": "string",
          "name": "drum_id",
          "type": "string"
        },
        {
          "indexed": false,
          "internalType": "string",
          "name": "sensor_id",
          "type": "string"
        }
      ],
      "name": "sensorToDrumPairingEvent",
      "type": "event"
    },
    {
      "inputs": [
        {
          "internalType": "string",
          "name": "drum_id",
          "type": "string"
        },
        {
          "internalType": "uint256",
          "name": "time",
          "type": "uint256"
        },
        {
          "internalType": "string",
          "name": "sensor_id",
          "type": "string"
        }
      ],
      "name": "enrollment",
      "outputs": [],
      "stateMutability": "nonpayable",
      "type": "function"
    },
    {
      "inputs": [
        {
          "internalType": "string",
          "name": "drum_id",
          "type": "string"
        },
        {
          "internalType": "uint256",
          "name": "time",
          "type": "uint256"
        },
        {
          "internalType": "string",
          "name": "classification",
          "type": "string"
        },
        {
          "internalType": "string",
          "name": "w_type",
          "type": "string"
        },
        {
          "internalType": "uint256",
          "name": "date_unix",
          "type": "uint256"
        },
        {
          "internalType": "string",
          "name": "place_of_occurence",
          "type": "string"
        },
        {
          "internalType": "uint256",
          "name": "radioactive_concentration",
          "type": "uint256"
        },
        {
          "internalType": "uint256",
          "name": "pollution_level",
          "type": "uint256"
        },
        {
          "internalType": "string",
          "name": "waste_acceptance_request",
          "type": "string"
        }
      ],
      "name": "packaging",
      "outputs": [],
      "stateMutability": "nonpayable",
      "type": "function"
    },
    {
      "inputs": [
        {
          "internalType": "string",
          "name": "drum_id",
          "type": "string"
        },
        {
          "internalType": "uint256",
          "name": "time",
          "type": "uint256"
        },
        {
          "internalType": "string",
          "name": "carrier",
          "type": "string"
        },
        {
          "internalType": "string",
          "name": "transportation_schedule",
          "type": "string"
        }
      ],
      "name": "transit",
      "outputs": [],
      "stateMutability": "nonpayable",
      "type": "function"
    },
    {
      "inputs": [
        {
          "internalType": "string",
          "name": "drum_id",
          "type": "string"
        },
        {
          "internalType": "uint256",
          "name": "time",
          "type": "uint256"
        },
        {
          "internalType": "string",
          "name": "carrier",
          "type": "string"
        },
        {
          "internalType": "string",
          "name": "transportation_schedule",
          "type": "string"
        }
      ],
      "name": "transit2",
      "outputs": [],
      "stateMutability": "nonpayable",
      "type": "function"
    },
    {
      "inputs": [
        {
          "internalType": "string",
          "name": "drum_id",
          "type": "string"
        },
        {
          "internalType": "string",
          "name": "sensor_id",
          "type": "string"
        }
      ],
      "name": "changeSensor",
      "outputs": [],
      "stateMutability": "nonpayable",
      "type": "function"
    },
    {
      "inputs": [
        {
          "internalType": "uint256",
          "name": "data_id",
          "type": "uint256"
        },
        {
          "internalType": "string",
          "name": "sensor_id",
          "type": "string"
        },
        {
          "internalType": "uint256",
          "name": "time",
          "type": "uint256"
        },
        {
          "internalType": "uint256",
          "name": "latitude",
          "type": "uint256"
        },
        {
          "internalType": "uint256",
          "name": "longitude",
          "type": "uint256"
        },
        {
          "internalType": "uint256",
          "name": "accX",
          "type": "uint256"
        },
        {
          "internalType": "uint256",
          "name": "accY",
          "type": "uint256"
        },
        {
          "internalType": "uint256",
          "name": "accZ",
          "type": "uint256"
        },
        {
          "internalType": "uint256",
          "name": "temp",
          "type": "uint256"
        },
        {
          "internalType": "uint256",
          "name": "humi",
          "type": "uint256"
        },
        {
          "internalType": "uint256",
          "name": "radio",
          "type": "uint256"
        }
      ],
      "name": "passSensorData",
      "outputs": [],
      "stateMutability": "nonpayable",
      "type": "function"
    },
    {
      "inputs": [
        {
          "internalType": "string",
          "name": "drum_id",
          "type": "string"
        },
        {
          "internalType": "uint256",
          "name": "time",
          "type": "uint256"
        },
        {
          "internalType": "uint256",
          "name": "longitude",
          "type": "uint256"
        },
        {
          "internalType": "uint256",
          "name": "latitude",
          "type": "uint256"
        },
        {
          "internalType": "uint256",
          "name": "storage_id",
          "type": "uint256"
        },
        {
          "internalType": "string",
          "name": "storage_schedule",
          "type": "string"
        }
      ],
      "name": "temporaryStorage",
      "outputs": [],
      "stateMutability": "nonpayable",
      "type": "function"
    },
    {
      "inputs": [
        {
          "internalType": "string",
          "name": "drum_id",
          "type": "string"
        },
        {
          "internalType": "uint256",
          "name": "time",
          "type": "uint256"
        },
        {
          "internalType": "string",
          "name": "acquisition",
          "type": "string"
        },
        {
          "internalType": "string",
          "name": "transferee",
          "type": "string"
        },
        {
          "internalType": "string",
          "name": "transportation_schedule",
          "type": "string"
        },
        {
          "internalType": "string",
          "name": "waste_acceptance_handover",
          "type": "string"
        }
      ],
      "name": "takingOver",
      "outputs": [],
      "stateMutability": "nonpayable",
      "type": "function"
    },
    {
      "inputs": [
        {
          "internalType": "string",
          "name": "alarm_id",
          "type": "string"
        },
        {
          "internalType": "uint256",
          "name": "data_id",
          "type": "uint256"
        },
        {
          "internalType": "string",
          "name": "drum_id",
          "type": "string"
        },
        {
          "internalType": "string",
          "name": "alarm",
          "type": "string"
        }
      ],
      "name": "dismissAlarm",
      "outputs": [],
      "stateMutability": "nonpayable",
      "type": "function"
    }
  ],
  "bytecode": "0x60806040526040516100109061007f565b604051809103906000f08015801561002c573d6000803e3d6000fd5b50600260006101000a81548173ffffffffffffffffffffffffffffffffffffffff021916908373ffffffffffffffffffffffffffffffffffffffff16021790555034801561007957600080fd5b5061008d565b610b538062001fca83390190565b611f2d806200009d6000396000f3fe608060405234801561001057600080fd5b50600436106100935760003560e01c8063aca4742f11610066578063aca4742f14610108578063bf0af8a114610124578063d8b0f48114610140578063e8c544b71461015c578063f3158c0c1461017857610093565b80630ecb6f481461009857806318fb2f21146100b45780631f518e73146100d057806391b440ba146100ec575b600080fd5b6100b260048036038101906100ad919061103c565b610194565b005b6100ce60048036038101906100c99190610e7e565b6101dd565b005b6100ea60048036038101906100e591906112ab565b61024d565b005b61010660048036038101906101019190611370565b610296565b005b610122600480360381019061011d9190610f81565b6109f7565b005b61013e60048036038101906101399190610f81565b610a3a565b005b61015a60048036038101906101559190610ef6565b610a7d565b005b61017660048036038101906101719190611155565b610b7b565b005b610192600480360381019061018d9190610f81565b610c39565b005b7ff3a5f947fe924fc3a43a7bf20f90f143373c6b1ba9be11b3fdb5514542986d218686868686866040516101cd9695949392919061182a565b60405180910390a1505050505050565b816000826040516101ee919061166e565b9081526020016040518091039020908051906020019061020f929190610c7c565b507f243e87e2af36dcc83dc397bc3212b2d3ff5c177acb4f24fa9d13e420773187fe8282604051610241929190611685565b60405180910390a15050565b7fb1e9510308865fc13e0a6ca626d9b758b62ba4014f56dcebc3b9bb48f29b367786868686868660405161028696959493929190611aa5565b60405180910390a1505050505050565b7ff9bc8ba21483b7027aa1f34f4ea906928cee4912de92a81bbb87d8dba48306a360008b6040516102c7919061166e565b90815260200160405180910390208a8d8b8b8b6040516102ec96959493929190611b14565b60405180910390a17f338f7c1e01112e350b72bf948d114055675f61acaa6604da7aa7304a54facc198b8585858560405161032b959493929190611b97565b60405180910390a17f09a2fddae7b5badf7a06c333ae5cc3e7acefb2d4a252a050ec6fea67ea1d6bd2600260009054906101000a900473ffffffffffffffffffffffffffffffffffffffff1673ffffffffffffffffffffffffffffffffffffffff1663591c515f600260009054906101000a900473ffffffffffffffffffffffffffffffffffffffff1673ffffffffffffffffffffffffffffffffffffffff1663f76f950e8f6040518263ffffffff1660e01b81526004016103ed9190611b7c565b600060405180830381600087803b15801561040757600080fd5b505af115801561041b573d6000803e3d6000fd5b505050506040513d6000823e3d601f19601f820116820180604052508101906104449190610e35565b6040518263ffffffff1660e01b815260040161046091906116bc565b600060405180830381600087803b15801561047a57600080fd5b505af115801561048e573d6000803e3d6000fd5b505050506040513d6000823e3d601f19601f820116820180604052508101906104b79190610e35565b8c60008d6040516104c8919061166e565b908152602001604051809103902060008e6040516104e6919061166e565b90815260200160405180910390206040516105049493929190611a38565b60405180910390a17f09a2fddae7b5badf7a06c333ae5cc3e7acefb2d4a252a050ec6fea67ea1d6bd2600260009054906101000a900473ffffffffffffffffffffffffffffffffffffffff1673ffffffffffffffffffffffffffffffffffffffff1663591c515f600260009054906101000a900473ffffffffffffffffffffffffffffffffffffffff1673ffffffffffffffffffffffffffffffffffffffff1663f76f950e8f6040518263ffffffff1660e01b81526004016105c69190611b7c565b600060405180830381600087803b1580156105e057600080fd5b505af11580156105f4573d6000803e3d6000fd5b505050506040513d6000823e3d601f19601f8201168201806040525081019061061d9190610e35565b6040518263ffffffff1660e01b815260040161063991906116f1565b600060405180830381600087803b15801561065357600080fd5b505af1158015610667573d6000803e3d6000fd5b505050506040513d6000823e3d601f19601f820116820180604052508101906106909190610e35565b8c60008d6040516106a1919061166e565b9081526020016040518091039020600260009054906101000a900473ffffffffffffffffffffffffffffffffffffffff1673ffffffffffffffffffffffffffffffffffffffff16634bc6309a8f896040518363ffffffff1660e01b815260040161070c92919061175b565b600060405180830381600087803b15801561072657600080fd5b505af115801561073a573d6000803e3d6000fd5b505050506040513d6000823e3d601f19601f820116820180604052508101906107639190610e35565b60405161077394939291906119cb565b60405180910390a17f09a2fddae7b5badf7a06c333ae5cc3e7acefb2d4a252a050ec6fea67ea1d6bd2600260009054906101000a900473ffffffffffffffffffffffffffffffffffffffff1673ffffffffffffffffffffffffffffffffffffffff1663591c515f600260009054906101000a900473ffffffffffffffffffffffffffffffffffffffff1673ffffffffffffffffffffffffffffffffffffffff1663f76f950e8f6040518263ffffffff1660e01b81526004016108359190611b7c565b600060405180830381600087803b15801561084f57600080fd5b505af1158015610863573d6000803e3d6000fd5b505050506040513d6000823e3d601f19601f8201168201806040525081019061088c9190610e35565b6040518263ffffffff1660e01b81526004016108a89190611726565b600060405180830381600087803b1580156108c257600080fd5b505af11580156108d6573d6000803e3d6000fd5b505050506040513d6000823e3d601f19601f820116820180604052508101906108ff9190610e35565b8c60008d604051610910919061166e565b9081526020016040518091039020600260009054906101000a900473ffffffffffffffffffffffffffffffffffffffff1673ffffffffffffffffffffffffffffffffffffffff16634bc6309a8f876040518363ffffffff1660e01b815260040161097b92919061175b565b600060405180830381600087803b15801561099557600080fd5b505af11580156109a9573d6000803e3d6000fd5b505050506040513d6000823e3d601f19601f820116820180604052508101906109d29190610e35565b6040516109e2949392919061195e565b60405180910390a15050505050505050505050565b7f88b70c70a23c7727432f1a3b28036b2dd082bbbb8988039ca614109d6b8b1a1884848484604051610a2c94939291906117d0565b60405180910390a150505050565b7fef769475476378d281e9255b578eeb9d94eb56fb0c476038afb701d60f38399084848484604051610a6f94939291906117d0565b60405180910390a150505050565b7fb264336c2c84b60f200063029a96e118c6bed8010791995d4af9f76a49c56479838383604051610ab09392919061178b565b60405180910390a182600082604051610ac9919061166e565b90815260200160405180910390209080519060200190610aea929190610c7c565b50610af3610d02565b83816000018190525080600185604051610b0d919061166e565b90815260200160405180910390206000820151816000019080519060200190610b37929190610c7c565b506020820151816001019080519060200190610b54929190610c7c565b506040820151816002019080519060200190610b71929190610c7c565b5090505050505050565b8660018a604051610b8c919061166e565b90815260200160405180910390206001019080519060200190610bb0929190610c7c565b508560018a604051610bc2919061166e565b90815260200160405180910390206002019080519060200190610be6929190610c7c565b507f1dcdc60a3ba80f437d4a46a4d03889466c6e0f166d00a52ec7b8d187709d6c4f898989898989898989604051610c26999897969594939291906118ae565b60405180910390a1505050505050505050565b7f3b5e5c06a22fb316a29233424e0aff4278542ad2659bddc62c0db9a4fc0e3c4a84848484604051610c6e94939291906117d0565b60405180910390a150505050565b828054610c8890611cdb565b90600052602060002090601f016020900481019282610caa5760008555610cf1565b82601f10610cc357805160ff1916838001178555610cf1565b82800160010185558215610cf1579182015b82811115610cf0578251825591602001919060010190610cd5565b5b509050610cfe9190610d23565b5090565b60405180606001604052806060815260200160608152602001606081525090565b5b80821115610d3c576000816000905550600101610d24565b5090565b6000610d53610d4e84611c22565b611bfd565b905082815260208101848484011115610d6f57610d6e611da1565b5b610d7a848285611c99565b509392505050565b6000610d95610d9084611c22565b611bfd565b905082815260208101848484011115610db157610db0611da1565b5b610dbc848285611ca8565b509392505050565b600082601f830112610dd957610dd8611d9c565b5b8135610de9848260208601610d40565b91505092915050565b600082601f830112610e0757610e06611d9c565b5b8151610e17848260208601610d82565b91505092915050565b600081359050610e2f81611ee0565b92915050565b600060208284031215610e4b57610e4a611dab565b5b600082015167ffffffffffffffff811115610e6957610e68611da6565b5b610e7584828501610df2565b91505092915050565b60008060408385031215610e9557610e94611dab565b5b600083013567ffffffffffffffff811115610eb357610eb2611da6565b5b610ebf85828601610dc4565b925050602083013567ffffffffffffffff811115610ee057610edf611da6565b5b610eec85828601610dc4565b9150509250929050565b600080600060608486031215610f0f57610f0e611dab565b5b600084013567ffffffffffffffff811115610f2d57610f2c611da6565b5b610f3986828701610dc4565b9350506020610f4a86828701610e20565b925050604084013567ffffffffffffffff811115610f6b57610f6a611da6565b5b610f7786828701610dc4565b9150509250925092565b60008060008060808587031215610f9b57610f9a611dab565b5b600085013567ffffffffffffffff811115610fb957610fb8611da6565b5b610fc587828801610dc4565b9450506020610fd687828801610e20565b935050604085013567ffffffffffffffff811115610ff757610ff6611da6565b5b61100387828801610dc4565b925050606085013567ffffffffffffffff81111561102457611023611da6565b5b61103087828801610dc4565b91505092959194509250565b60008060008060008060c0878903121561105957611058611dab565b5b600087013567ffffffffffffffff81111561107757611076611da6565b5b61108389828a01610dc4565b965050602061109489828a01610e20565b955050604087013567ffffffffffffffff8111156110b5576110b4611da6565b5b6110c189828a01610dc4565b945050606087013567ffffffffffffffff8111156110e2576110e1611da6565b5b6110ee89828a01610dc4565b935050608087013567ffffffffffffffff81111561110f5761110e611da6565b5b61111b89828a01610dc4565b92505060a087013567ffffffffffffffff81111561113c5761113b611da6565b5b61114889828a01610dc4565b9150509295509295509295565b60008060008060008060008060006101208a8c03121561117857611177611dab565b5b60008a013567ffffffffffffffff81111561119657611195611da6565b5b6111a28c828d01610dc4565b99505060206111b38c828d01610e20565b98505060408a013567ffffffffffffffff8111156111d4576111d3611da6565b5b6111e08c828d01610dc4565b97505060608a013567ffffffffffffffff81111561120157611200611da6565b5b61120d8c828d01610dc4565b965050608061121e8c828d01610e20565b95505060a08a013567ffffffffffffffff81111561123f5761123e611da6565b5b61124b8c828d01610dc4565b94505060c061125c8c828d01610e20565b93505060e061126d8c828d01610e20565b9250506101008a013567ffffffffffffffff81111561128f5761128e611da6565b5b61129b8c828d01610dc4565b9150509295985092959850929598565b60008060008060008060c087890312156112c8576112c7611dab565b5b600087013567ffffffffffffffff8111156112e6576112e5611da6565b5b6112f289828a01610dc4565b965050602061130389828a01610e20565b955050604061131489828a01610e20565b945050606061132589828a01610e20565b935050608061133689828a01610e20565b92505060a087013567ffffffffffffffff81111561135757611356611da6565b5b61136389828a01610dc4565b9150509295509295509295565b60008060008060008060008060008060006101608c8e03121561139657611395611dab565b5b60006113a48e828f01610e20565b9b505060208c013567ffffffffffffffff8111156113c5576113c4611da6565b5b6113d18e828f01610dc4565b9a505060406113e28e828f01610e20565b99505060606113f38e828f01610e20565b98505060806114048e828f01610e20565b97505060a06114158e828f01610e20565b96505060c06114268e828f01610e20565b95505060e06114378e828f01610e20565b9450506101006114498e828f01610e20565b93505061012061145b8e828f01610e20565b92505061014061146d8e828f01610e20565b9150509295989b509295989b9093969950565b600061148b82611c68565b6114958185611c73565b93506114a5818560208601611ca8565b6114ae81611db0565b840191505092915050565b60006114c482611c68565b6114ce8185611c84565b93506114de818560208601611ca8565b80840191505092915050565b600081546114f781611cdb565b6115018186611c73565b9450600182166000811461151c576001811461152e57611561565b60ff1983168652602086019350611561565b61153785611c53565b60005b838110156115595781548189015260018201915060208101905061153a565b808801955050505b50505092915050565b6000611577600d83611c73565b915061158282611dc1565b602082019050919050565b600061159a600b83611c73565b91506115a582611dea565b602082019050919050565b60006115bd600783611c73565b91506115c882611e13565b602082019050919050565b60006115e0600183611c73565b91506115eb82611e3c565b602082019050919050565b6000611603600183611c73565b915061160e82611e65565b602082019050919050565b6000611626600883611c73565b915061163182611e8e565b602082019050919050565b6000611649600183611c73565b915061165482611eb7565b602082019050919050565b61166881611c8f565b82525050565b600061167a82846114b9565b915081905092915050565b6000604082019050818103600083015261169f8185611480565b905081810360208301526116b38184611480565b90509392505050565b600060408201905081810360008301526116d68184611480565b905081810360208301526116e9816115d3565b905092915050565b6000604082019050818103600083015261170b8184611480565b9050818103602083015261171e816115f6565b905092915050565b600060408201905081810360008301526117408184611480565b905081810360208301526117538161163c565b905092915050565b600060408201905081810360008301526117758185611480565b9050611784602083018461165f565b9392505050565b600060608201905081810360008301526117a58186611480565b90506117b4602083018561165f565b81810360408301526117c68184611480565b9050949350505050565b600060808201905081810360008301526117ea8187611480565b90506117f9602083018661165f565b818103604083015261180b8185611480565b9050818103606083015261181f8184611480565b905095945050505050565b600060c08201905081810360008301526118448189611480565b9050611853602083018861165f565b81810360408301526118658187611480565b905081810360608301526118798186611480565b9050818103608083015261188d8185611480565b905081810360a08301526118a18184611480565b9050979650505050505050565b60006101208201905081810360008301526118c9818c611480565b90506118d8602083018b61165f565b81810360408301526118ea818a611480565b905081810360608301526118fe8189611480565b905061190d608083018861165f565b81810360a083015261191f8187611480565b905061192e60c083018661165f565b61193b60e083018561165f565b81810361010083015261194e8184611480565b90509a9950505050505050505050565b600060a08201905081810360008301526119788187611480565b9050611987602083018661165f565b81810360408301526119988161156a565b905081810360608301526119ac81856114ea565b905081810360808301526119c08184611480565b905095945050505050565b600060a08201905081810360008301526119e58187611480565b90506119f4602083018661165f565b8181036040830152611a058161158d565b90508181036060830152611a1981856114ea565b90508181036080830152611a2d8184611480565b905095945050505050565b600060a0820190508181036000830152611a528187611480565b9050611a61602083018661165f565b8181036040830152611a7281611619565b90508181036060830152611a8681856114ea565b90508181036080830152611a9a81846114ea565b905095945050505050565b600060c0820190508181036000830152611abf8189611480565b9050611ace602083018861165f565b611adb604083018761165f565b611ae8606083018661165f565b611af5608083018561165f565b81810360a0830152611b078184611480565b9050979650505050505050565b600060c0820190508181036000830152611b2e81896114ea565b9050611b3d602083018861165f565b611b4a604083018761165f565b611b57606083018661165f565b611b64608083018561165f565b611b7160a083018461165f565b979650505050505050565b6000602082019050611b91600083018461165f565b92915050565b600060c082019050611bac600083018861165f565b611bb9602083018761165f565b611bc6604083018661165f565b611bd3606083018561165f565b611be0608083018461165f565b81810360a0830152611bf1816115b0565b90509695505050505050565b6000611c07611c18565b9050611c138282611d0d565b919050565b6000604051905090565b600067ffffffffffffffff821115611c3d57611c3c611d6d565b5b611c4682611db0565b9050602081019050919050565b60008190508160005260206000209050919050565b600081519050919050565b600082825260208201905092915050565b600081905092915050565b6000819050919050565b82818337600083830152505050565b60005b83811015611cc6578082015181840152602081019050611cab565b83811115611cd5576000848401525b50505050565b60006002820490506001821680611cf357607f821691505b60208210811415611d0757611d06611d3e565b5b50919050565b611d1682611db0565b810181811067ffffffffffffffff82111715611d3557611d34611d6d565b5b80604052505050565b7f4e487b7100000000000000000000000000000000000000000000000000000000600052602260045260246000fd5b7f4e487b7100000000000000000000000000000000000000000000000000000000600052604160045260246000fd5b600080fd5b600080fd5b600080fd5b600080fd5b6000601f19601f8301169050919050565b7f526164696f616374697669747900000000000000000000000000000000000000600082015250565b7f54656d7065726174757265000000000000000000000000000000000000000000600082015250565b7f50726f626c656d00000000000000000000000000000000000000000000000000600082015250565b7f4800000000000000000000000000000000000000000000000000000000000000600082015250565b7f5400000000000000000000000000000000000000000000000000000000000000600082015250565b7f48756d6964697479000000000000000000000000000000000000000000000000600082015250565b7f5200000000000000000000000000000000000000000000000000000000000000600082015250565b611ee981611c8f565b8114611ef457600080fd5b5056fea2646970667358221220b85c843678fcb8eb94df9bfb5d3246b0831c7741381d9a773f11df3a5d2dc83264736f6c63430008060033608060405234801561001057600080fd5b50610b33806100206000396000f3fe608060405234801561001057600080fd5b50600436106100575760003560e01c80634bc6309a1461005c578063591c515f1461008c5780637ba3517e146100bc578063ee8a60d0146100ec578063f76f950e1461011c575b600080fd5b61007660048036038101906100719190610630565b61014c565b6040516100839190610747565b60405180910390f35b6100a660048036038101906100a191906105b8565b610172565b6040516100b39190610747565b60405180910390f35b6100d660048036038101906100d19190610630565b61019e565b6040516100e39190610747565b60405180910390f35b61010660048036038101906101019190610630565b6101c9565b6040516101139190610747565b60405180910390f35b6101366004803603810190610131919061068c565b6101f4565b6040516101439190610747565b60405180910390f35b6060600080600590506000600290506101678583858461037d565b935050505092915050565b60608282604051602001610187929190610723565b604051602081830303815290604052905092915050565b60606000601690506000602090506000600590506101be8583858461037d565b935050505092915050565b60606000601690506000602c90506000600a90506101e98583858461037d565b935050505092915050565b6060600082141561023c576040518060400160405280600181526020017f30000000000000000000000000000000000000000000000000000000000000008152509050610378565b600082905060005b6000821461026e578080610257906109bc565b915050600a826102679190610873565b9150610244565b60008167ffffffffffffffff81111561028a57610289610a92565b5b6040519080825280601f01601f1916602001820160405280156102bc5781602001600182028036833780820191505090505b50905060008290505b60008614610370576001816102da91906108fe565b90506000600a80886102ec9190610873565b6102f691906108a4565b8761030191906108fe565b603061030d919061083c565b905060008160f81b90508084848151811061032b5761032a610a63565b5b60200101907effffffffffffffffffffffffffffffffffffffffffffffffffffffffffffff1916908160001a905350600a886103679190610873565b975050506102c5565b819450505050505b919050565b606061038a858585610518565b156103cc576040518060400160405280600681526020017f4e6f726d616c00000000000000000000000000000000000000000000000000008152509050610510565b6103ed8583866103dc91906108fe565b84866103e891906107e6565b610518565b1561042f576040518060400160405280600681526020017f426f7264657200000000000000000000000000000000000000000000000000008152509050610510565b61045085838661043f91906108fe565b848661044b91906107e6565b610518565b610491576040518060400160405280600681526020017f44616e67657200000000000000000000000000000000000000000000000000008152509050610510565b60008514156104d7576040518060400160405280600681526020017f426f7264657200000000000000000000000000000000000000000000000000008152509050610510565b6040518060400160405280600781526020017f50726f626c656d0000000000000000000000000000000000000000000000000081525090505b949350505050565b600082841015801561052a5750818411155b90509392505050565b60006105466105418461078e565b610769565b90508281526020810184848401111561056257610561610ac6565b5b61056d848285610949565b509392505050565b600082601f83011261058a57610589610ac1565b5b813561059a848260208601610533565b91505092915050565b6000813590506105b281610ae6565b92915050565b600080604083850312156105cf576105ce610ad0565b5b600083013567ffffffffffffffff8111156105ed576105ec610acb565b5b6105f985828601610575565b925050602083013567ffffffffffffffff81111561061a57610619610acb565b5b61062685828601610575565b9150509250929050565b6000806040838503121561064757610646610ad0565b5b600083013567ffffffffffffffff81111561066557610664610acb565b5b61067185828601610575565b9250506020610682858286016105a3565b9150509250929050565b6000602082840312156106a2576106a1610ad0565b5b60006106b0848285016105a3565b91505092915050565b60006106c4826107bf565b6106ce81856107ca565b93506106de818560208601610958565b6106e781610ad5565b840191505092915050565b60006106fd826107bf565b61070781856107db565b9350610717818560208601610958565b80840191505092915050565b600061072f82856106f2565b915061073b82846106f2565b91508190509392505050565b6000602082019050818103600083015261076181846106b9565b905092915050565b6000610773610784565b905061077f828261098b565b919050565b6000604051905090565b600067ffffffffffffffff8211156107a9576107a8610a92565b5b6107b282610ad5565b9050602081019050919050565b600081519050919050565b600082825260208201905092915050565b600081905092915050565b60006107f182610932565b91506107fc83610932565b9250827fffffffffffffffffffffffffffffffffffffffffffffffffffffffffffffffff0382111561083157610830610a05565b5b828201905092915050565b60006108478261093c565b91506108528361093c565b92508260ff0382111561086857610867610a05565b5b828201905092915050565b600061087e82610932565b915061088983610932565b92508261089957610898610a34565b5b828204905092915050565b60006108af82610932565b91506108ba83610932565b9250817fffffffffffffffffffffffffffffffffffffffffffffffffffffffffffffffff04831182151516156108f3576108f2610a05565b5b828202905092915050565b600061090982610932565b915061091483610932565b92508282101561092757610926610a05565b5b828203905092915050565b6000819050919050565b600060ff82169050919050565b82818337600083830152505050565b60005b8381101561097657808201518184015260208101905061095b565b83811115610985576000848401525b50505050565b61099482610ad5565b810181811067ffffffffffffffff821117156109b3576109b2610a92565b5b80604052505050565b60006109c782610932565b91507fffffffffffffffffffffffffffffffffffffffffffffffffffffffffffffffff8214156109fa576109f9610a05565b5b600182019050919050565b7f4e487b7100000000000000000000000000000000000000000000000000000000600052601160045260246000fd5b7f4e487b7100000000000000000000000000000000000000000000000000000000600052601260045260246000fd5b7f4e487b7100000000000000000000000000000000000000000000000000000000600052603260045260246000fd5b7f4e487b7100000000000000000000000000000000000000000000000000000000600052604160045260246000fd5b600080fd5b600080fd5b600080fd5b600080fd5b6000601f19601f8301169050919050565b610aef81610932565b8114610afa57600080fd5b5056fea26469706673582212205284bd91e45fc1b69b7acab4dcab1a5dc85f51fc5ff4ec301d55930d3096e9c464736f6c63430008060033",
  "immutableReferences": {},
  "source": "pragma solidity ^0.8.6;\n\nimport \"@openzeppelin/contracts/utils/math/SafeMath.sol\";\nimport \"./checks.sol\";\n\ncontract KCLOUD {\n    event NewDrumEnrolled(string drum_id, uint time, string sensor_id);\n    event DrumPackaged(string drum_id, uint time, string classification, string w_type, uint date_unix, string place_of_occurence, uint radioactive_concentration, uint pollution_level, string waste_acceptance_request);\n    event DrumInTransit(string drum_id, uint time, string carrier, string transportation_schedule);\n    event TemporaryStorage(string drum_id, uint time, uint longitude, uint latitude, uint storage_id,  string storage_schedule);\n    event DrumInTransit2(string drum_id, uint time, string carrier, string transportation_schedule);    \n    event TakingOver(string drum_id, uint time, string acquisition, string transferee, string transportation_schedule, string waste_acceptance_request);\n    event NewAlarmEvent(string alarm_id, uint data_id, string alarmType, string drum_id, string alarm);\n    event SensorDataEvent(string drum_id, uint time, uint data_id, uint latitude, uint longitude, uint accX);\n    event AlarmDismissedEvent(string alarm_id, uint data_id, string drum_id, string alarm);\n    event SensorDataEvent2(uint data_id, uint accZ, uint temp, uint humi, uint radio, string alarm);\n    event GPSDataEvent(string drum_id, uint time, uint longitude, uint latitude);\n    event sensorToDrumPairingEvent(string drum_id, string sensor_id);\n    mapping (string => string) private sensorToDrumID;\n    mapping (string => Drum) private drumIDToDrum;\n    \n    struct Drum{\n        string drum_id;\n        string classification;\n        string w_type;\n    }\n    checks Checks = new checks(); // new contract\n    function enrollment(string memory drum_id, uint time, string memory sensor_id) public {\n        emit NewDrumEnrolled(drum_id, time, sensor_id);        \n        sensorToDrumID[sensor_id] = drum_id;\n        \n        Drum memory my_drum;\n        my_drum.drum_id = drum_id;\n        drumIDToDrum[drum_id] = my_drum;\n    }\n\n    \n    function packaging(string memory drum_id, uint time, string memory classification, string memory w_type, uint date_unix, string memory place_of_occurence, uint radioactive_concentration, uint pollution_level, string memory waste_acceptance_request) public {\n        drumIDToDrum[drum_id].classification = classification;\n        drumIDToDrum[drum_id].w_type = w_type;\n        emit DrumPackaged(drum_id, time, classification, w_type, date_unix, place_of_occurence, radioactive_concentration, pollution_level, waste_acceptance_request);        \n    }\n    \n    \n    function checkGPS(string memory drum_id, uint time, uint decimals, uint longitude, uint latitude) private{\n            emit GPSDataEvent(drum_id, time, longitude, latitude);\n    }\n    \n    function transit(string memory drum_id, uint time, string memory carrier, string memory transportation_schedule) public {\n           emit DrumInTransit(drum_id, time, carrier, transportation_schedule);\n    }\n    function transit2(string memory drum_id, uint time, string memory carrier, string memory transportation_schedule) public {\n           emit DrumInTransit2(drum_id, time, carrier, transportation_schedule);\n    }\n\n    function changeSensor(string memory drum_id, string memory sensor_id) public {\n            sensorToDrumID[sensor_id] = drum_id; \n            emit sensorToDrumPairingEvent(drum_id, sensor_id);\n    }\n    function passSensorData(uint data_id, string memory sensor_id, uint time, uint latitude, uint longitude, uint accX, uint accY, uint accZ, uint temp, uint humi, uint radio) public{\n           emit SensorDataEvent(sensorToDrumID[sensor_id], time, data_id, latitude, longitude, accX);\n           emit SensorDataEvent2(data_id, accZ, temp, humi, radio, \"Problem\");\n           emit NewAlarmEvent(Checks.append(Checks.uint2str(data_id), \"H\"), data_id, \"Humidity\", sensorToDrumID[sensor_id], sensorToDrumID[sensor_id]);\n           emit NewAlarmEvent(Checks.append(Checks.uint2str(data_id), \"T\"), data_id, \"Temperature\", sensorToDrumID[sensor_id], Checks.checkRadio(sensor_id, temp));\n           emit NewAlarmEvent(Checks.append(Checks.uint2str(data_id), \"R\"), data_id, \"Radioactivity\", sensorToDrumID[sensor_id], Checks.checkRadio(sensor_id, radio));\n    }\n    function temporaryStorage(string memory drum_id, uint time, uint longitude, uint latitude, uint storage_id, string memory storage_schedule) public{\n           emit TemporaryStorage(drum_id, time, longitude, latitude, storage_id, storage_schedule);\n    }\n\n    function takingOver(string memory drum_id, uint time, string memory acquisition, string memory transferee, string memory transportation_schedule, string memory waste_acceptance_handover) public {\n           emit TakingOver(drum_id, time, acquisition, transferee, transportation_schedule, waste_acceptance_handover);\n    }\n    function compareStrings(string memory a, string memory b) private pure returns (bool) {\n            return (keccak256(abi.encodePacked((a))) == keccak256(abi.encodePacked((b))));\n    }\n    function dismissAlarm(string memory alarm_id, uint data_id, string memory drum_id, string memory alarm) public {\n            emit AlarmDismissedEvent(alarm_id, data_id, drum_id, alarm);\n    }\n}",
  "sourcePath": "/home/radblock05/Desktop/kcloud/reactGraphkCLOUD/truffleSide/contracts/kcloud.sol",
  "compiler": {
    "name": "solc",
    "version": "0.8.6+commit.11564f7e.Emscripten.clang"
  },
  "schemaVersion": "3.4.4",
  "updatedAt": "2021-12-25T17:32:32.787Z",
  "networkType": "ethereum",
  "devdoc": {
    "kind": "dev",
    "methods": {},
    "version": 1
  },
  "userdoc": {
    "kind": "user",
    "methods": {},
    "version": 1
  }
}