{
  "contractName": "KCLOUD",
  "abi": [
    {
      "anonymous": false,
      "inputs": [
        {
          "indexed": false,
          "internalType": "uint256",
          "name": "drum_id",
          "type": "uint256"
        },
        {
          "indexed": false,
          "internalType": "uint256",
          "name": "time",
          "type": "uint256"
        },
        {
          "indexed": false,
          "internalType": "string",
          "name": "carrier",
          "type": "string"
        },
        {
          "indexed": false,
          "internalType": "string",
          "name": "transportation_schedule",
          "type": "string"
        }
      ],
      "name": "DrumInTransit",
      "type": "event"
    },
    {
      "anonymous": false,
      "inputs": [
        {
          "indexed": false,
          "internalType": "uint256",
          "name": "drum_id",
          "type": "uint256"
        },
        {
          "indexed": false,
          "internalType": "uint256",
          "name": "time",
          "type": "uint256"
        },
        {
          "indexed": false,
          "internalType": "string",
          "name": "classification",
          "type": "string"
        },
        {
          "indexed": false,
          "internalType": "string",
          "name": "w_type",
          "type": "string"
        },
        {
          "indexed": false,
          "internalType": "uint256",
          "name": "date_unix",
          "type": "uint256"
        },
        {
          "indexed": false,
          "internalType": "string",
          "name": "place_of_occurence",
          "type": "string"
        },
        {
          "indexed": false,
          "internalType": "uint256",
          "name": "dose_rate",
          "type": "uint256"
        },
        {
          "indexed": false,
          "internalType": "string",
          "name": "waste_acceptance_request",
          "type": "string"
        }
      ],
      "name": "DrumPackaged",
      "type": "event"
    },
    {
      "anonymous": false,
      "inputs": [
        {
          "indexed": false,
          "internalType": "uint256",
          "name": "drum_id",
          "type": "uint256"
        },
        {
          "indexed": false,
          "internalType": "uint256",
          "name": "time",
          "type": "uint256"
        },
        {
          "indexed": false,
          "internalType": "uint256",
          "name": "longitude",
          "type": "uint256"
        },
        {
          "indexed": false,
          "internalType": "uint256",
          "name": "latitude",
          "type": "uint256"
        }
      ],
      "name": "GPSDataEvent",
      "type": "event"
    },
    {
      "anonymous": false,
      "inputs": [
        {
          "indexed": false,
          "internalType": "uint256",
          "name": "drum_id",
          "type": "uint256"
        },
        {
          "indexed": false,
          "internalType": "uint256",
          "name": "time",
          "type": "uint256"
        },
        {
          "indexed": false,
          "internalType": "uint256",
          "name": "sensor_id",
          "type": "uint256"
        }
      ],
      "name": "NewDrumEnrolled",
      "type": "event"
    },
    {
      "anonymous": false,
      "inputs": [
        {
          "indexed": false,
          "internalType": "uint256",
          "name": "drum_id",
          "type": "uint256"
        },
        {
          "indexed": false,
          "internalType": "uint256",
          "name": "time",
          "type": "uint256"
        },
        {
          "indexed": false,
          "internalType": "string",
          "name": "what",
          "type": "string"
        },
        {
          "indexed": false,
          "internalType": "string",
          "name": "message",
          "type": "string"
        },
        {
          "indexed": false,
          "internalType": "uint256",
          "name": "value",
          "type": "uint256"
        },
        {
          "indexed": false,
          "internalType": "uint256",
          "name": "expected_value",
          "type": "uint256"
        }
      ],
      "name": "SensorDataEvent",
      "type": "event"
    },
    {
      "anonymous": false,
      "inputs": [
        {
          "indexed": false,
          "internalType": "uint256",
          "name": "drum_id",
          "type": "uint256"
        },
        {
          "indexed": false,
          "internalType": "uint256",
          "name": "time",
          "type": "uint256"
        },
        {
          "indexed": false,
          "internalType": "string",
          "name": "acquisition",
          "type": "string"
        },
        {
          "indexed": false,
          "internalType": "string",
          "name": "transferee",
          "type": "string"
        },
        {
          "indexed": false,
          "internalType": "string",
          "name": "transportation_schedule",
          "type": "string"
        },
        {
          "indexed": false,
          "internalType": "string",
          "name": "waste_acceptance_request",
          "type": "string"
        }
      ],
      "name": "TakingOver",
      "type": "event"
    },
    {
      "anonymous": false,
      "inputs": [
        {
          "indexed": false,
          "internalType": "uint256",
          "name": "drum_id",
          "type": "uint256"
        },
        {
          "indexed": false,
          "internalType": "uint256",
          "name": "time",
          "type": "uint256"
        },
        {
          "indexed": false,
          "internalType": "uint256",
          "name": "longitude",
          "type": "uint256"
        },
        {
          "indexed": false,
          "internalType": "uint256",
          "name": "latitude",
          "type": "uint256"
        },
        {
          "indexed": false,
          "internalType": "uint256",
          "name": "storage_id",
          "type": "uint256"
        },
        {
          "indexed": false,
          "internalType": "string",
          "name": "storage_schedule",
          "type": "string"
        }
      ],
      "name": "TemporaryStorage",
      "type": "event"
    },
    {
      "inputs": [
        {
          "internalType": "uint256",
          "name": "drum_id",
          "type": "uint256"
        },
        {
          "internalType": "uint256",
          "name": "time",
          "type": "uint256"
        },
        {
          "internalType": "uint256",
          "name": "sensor_id",
          "type": "uint256"
        }
      ],
      "name": "enrollment",
      "outputs": [],
      "stateMutability": "nonpayable",
      "type": "function"
    },
    {
      "inputs": [
        {
          "internalType": "uint256",
          "name": "drum_id",
          "type": "uint256"
        },
        {
          "internalType": "uint256",
          "name": "time",
          "type": "uint256"
        },
        {
          "internalType": "string",
          "name": "classification",
          "type": "string"
        },
        {
          "internalType": "string",
          "name": "w_type",
          "type": "string"
        },
        {
          "internalType": "uint256",
          "name": "date_unix",
          "type": "uint256"
        },
        {
          "internalType": "string",
          "name": "place_of_occurence",
          "type": "string"
        },
        {
          "internalType": "uint256",
          "name": "dose_rate",
          "type": "uint256"
        },
        {
          "internalType": "string",
          "name": "waste_acceptance_request",
          "type": "string"
        }
      ],
      "name": "packaging",
      "outputs": [],
      "stateMutability": "nonpayable",
      "type": "function"
    },
    {
      "inputs": [
        {
          "internalType": "uint256",
          "name": "drum_id",
          "type": "uint256"
        },
        {
          "internalType": "uint256",
          "name": "time",
          "type": "uint256"
        },
        {
          "internalType": "string",
          "name": "carrier",
          "type": "string"
        },
        {
          "internalType": "string",
          "name": "transportation_schedule",
          "type": "string"
        }
      ],
      "name": "transit",
      "outputs": [],
      "stateMutability": "nonpayable",
      "type": "function"
    },
    {
      "inputs": [
        {
          "internalType": "uint256",
          "name": "drum_id",
          "type": "uint256"
        },
        {
          "internalType": "uint256",
          "name": "time",
          "type": "uint256"
        },
        {
          "internalType": "uint256[]",
          "name": "sensor_data",
          "type": "uint256[]"
        }
      ],
      "name": "passSensorData",
      "outputs": [],
      "stateMutability": "nonpayable",
      "type": "function"
    },
    {
      "inputs": [
        {
          "internalType": "uint256",
          "name": "drum_id",
          "type": "uint256"
        },
        {
          "internalType": "uint256",
          "name": "time",
          "type": "uint256"
        },
        {
          "internalType": "uint256",
          "name": "longitude",
          "type": "uint256"
        },
        {
          "internalType": "uint256",
          "name": "latitude",
          "type": "uint256"
        },
        {
          "internalType": "uint256",
          "name": "storage_id",
          "type": "uint256"
        },
        {
          "internalType": "string",
          "name": "storage_schedule",
          "type": "string"
        }
      ],
      "name": "temporaryStorage",
      "outputs": [],
      "stateMutability": "nonpayable",
      "type": "function"
    },
    {
      "inputs": [
        {
          "internalType": "uint256",
          "name": "drum_id",
          "type": "uint256"
        },
        {
          "internalType": "uint256",
          "name": "time",
          "type": "uint256"
        },
        {
          "internalType": "string",
          "name": "acquisition",
          "type": "string"
        },
        {
          "internalType": "string",
          "name": "transferee",
          "type": "string"
        },
        {
          "internalType": "string",
          "name": "transportation_schedule",
          "type": "string"
        },
        {
          "internalType": "string",
          "name": "waste_acceptance_handover",
          "type": "string"
        }
      ],
      "name": "takingOver",
      "outputs": [],
      "stateMutability": "nonpayable",
      "type": "function"
    }
  ],
  "bytecode": "0x608060405234801561001057600080fd5b506114f1806100206000396000f3fe608060405234801561001057600080fd5b50600436106100625760003560e01c8063131281b0146100675780631be4ae2a146100835780632798ca7f1461009f5780633c367a6c146100bb5780634b9bbb98146100d75780638285d2a0146100f3575b600080fd5b610081600480360381019061007c9190610c48565b61010f565b005b61009d60048036038101906100989190610d6e565b61015e565b005b6100b960048036038101906100b49190610aac565b61019e565b005b6100d560048036038101906100d09190610b4b565b6101e1565b005b6100f160048036038101906100ec9190610dc1565b61022a565b005b61010d60048036038101906101089190610a3d565b610273565b005b7f68e306d105c3fb23c1542a3b9107558837290603fb5cee8c46c13d422c6f00e3888888888888888860405161014c989796959493929190610f82565b60405180910390a15050505050505050565b7fd53614e44ad442d0d7579a267cde9b765c44bd0d6f9ea9d8a9ecbb5598cd30b48383836040516101919392919061108b565b60405180910390a1505050565b7f4af3e093b8455bb5936effedabe6053923c5a2222076915a675c169359efaea9848484846040516101d39493929190610eb2565b60405180910390a150505050565b7fdaf310f394dfab8e5be21cdeff3ab385f3ebb8c67c774d96e143d676c860050a86868686868660405161021a96959493929190610f05565b60405180910390a1505050505050565b7f94dc220b54fb5e3a297b3511c07bb71c80e3b7153c18be9754bfcb0faaec6f6586868686868660405161026396959493929190611107565b60405180910390a1505050505050565b82828260006040518061010001604052808360008151811061029857610297611336565b5b60200260200101518152602001836001815181106102b9576102b8611336565b5b60200260200101518152602001836002815181106102da576102d9611336565b5b60200260200101518152602001836003815181106102fb576102fa611336565b5b602002602001015181526020018360048151811061031c5761031b611336565b5b602002602001015181526020018360058151811061033d5761033c611336565b5b602002602001015181526020018360068151811061035e5761035d611336565b5b602002602001015181526020018360078151811061037f5761037e611336565b5b602002602001015181525090506103b48484836000015184602001518560400151866060015187608001518860a001516103d6565b6103cd848483600001518460c001518560e001516108cc565b50505050505050565b606060006040518060a0016040528088815260200187815260200186815260200185815260200184815250905060006040518060a001604052806040518060600160405280603681526020016113d660369139815260200160405180606001604052806038815260200161148460389139815260200160405180606001604052806029815260200161140c60299139815260200160405180606001604052806028815260200161143560289139815260200160405180606001604052806027815260200161145d60279139815250905060006040518060a00160405280600a8152602001600f8152602001600a8152602001600a81526020016002815250905060005b600581116108bd578181600581106104f4576104f3611336565b5b602002015184826005811061050c5761050b611336565b5b6020020151116105d5576040518060400160405280600681526020017f6e6f726d616c000000000000000000000000000000000000000000000000000081525094507f7bb70d534b070cebfd1029201f050d17f82e21f0ee74240a2e6109532ae7c5158d8d85846005811061058457610583611336565b5b60200201518888866005811061059d5761059c611336565b5b60200201518787600581106105b5576105b4611336565b5b60200201516040516105cc9695949392919061101c565b60405180910390a15b8181600581106105e8576105e7611336565b5b6020020151848260058110610600576105ff611336565b5b602002015111156106ca576040518060400160405280600681526020017f64616e676572000000000000000000000000000000000000000000000000000081525094507f7bb70d534b070cebfd1029201f050d17f82e21f0ee74240a2e6109532ae7c5158d8d85846005811061067957610678611336565b5b60200201518888866005811061069257610691611336565b5b60200201518787600581106106aa576106a9611336565b5b60200201516040516106c19695949392919061101c565b60405180910390a15b60028482600581106106df576106de611336565b5b60200201518383600581106106f7576106f6611336565b5b6020020151610706919061120d565b11156107cb576040518060400160405280600681526020017f626f72646572000000000000000000000000000000000000000000000000000081525094507f7bb70d534b070cebfd1029201f050d17f82e21f0ee74240a2e6109532ae7c5158d8d85846005811061077a57610779611336565b5b60200201518888866005811061079357610792611336565b5b60200201518787600581106107ab576107aa611336565b5b60200201516040516107c29695949392919061101c565b60405180910390a15b60008482600581106107e0576107df611336565b5b602002015114156108aa576040518060400160405280600681526020017f64616e676572000000000000000000000000000000000000000000000000000081525094507f7bb70d534b070cebfd1029201f050d17f82e21f0ee74240a2e6109532ae7c5158d8d85846005811061085957610858611336565b5b60200201518888866005811061087257610871611336565b5b602002015187876005811061088a57610889611336565b5b60200201516040516108a19695949392919061101c565b60405180910390a15b80806108b5906112be565b9150506104d9565b50505050505050505050505050565b6001801415610913577f5666391b263d5dabb6effe36dfcf5bac09bbe73e83a21f9f0c8e090278fb5fa08585848460405161090a94939291906110c2565b60405180910390a15b5050505050565b600061092d61092884611194565b61116f565b905080838252602082019050828560208602820111156109505761094f611399565b5b60005b8581101561098057816109668882610a28565b845260208401935060208301925050600181019050610953565b5050509392505050565b600061099d610998846111c0565b61116f565b9050828152602081018484840111156109b9576109b861139e565b5b6109c484828561124b565b509392505050565b600082601f8301126109e1576109e0611394565b5b81356109f184826020860161091a565b91505092915050565b600082601f830112610a0f57610a0e611394565b5b8135610a1f84826020860161098a565b91505092915050565b600081359050610a37816113be565b92915050565b600080600060608486031215610a5657610a556113a8565b5b6000610a6486828701610a28565b9350506020610a7586828701610a28565b925050604084013567ffffffffffffffff811115610a9657610a956113a3565b5b610aa2868287016109cc565b9150509250925092565b60008060008060808587031215610ac657610ac56113a8565b5b6000610ad487828801610a28565b9450506020610ae587828801610a28565b935050604085013567ffffffffffffffff811115610b0657610b056113a3565b5b610b12878288016109fa565b925050606085013567ffffffffffffffff811115610b3357610b326113a3565b5b610b3f878288016109fa565b91505092959194509250565b60008060008060008060c08789031215610b6857610b676113a8565b5b6000610b7689828a01610a28565b9650506020610b8789828a01610a28565b955050604087013567ffffffffffffffff811115610ba857610ba76113a3565b5b610bb489828a016109fa565b945050606087013567ffffffffffffffff811115610bd557610bd46113a3565b5b610be189828a016109fa565b935050608087013567ffffffffffffffff811115610c0257610c016113a3565b5b610c0e89828a016109fa565b92505060a087013567ffffffffffffffff811115610c2f57610c2e6113a3565b5b610c3b89828a016109fa565b9150509295509295509295565b600080600080600080600080610100898b031215610c6957610c686113a8565b5b6000610c778b828c01610a28565b9850506020610c888b828c01610a28565b975050604089013567ffffffffffffffff811115610ca957610ca86113a3565b5b610cb58b828c016109fa565b965050606089013567ffffffffffffffff811115610cd657610cd56113a3565b5b610ce28b828c016109fa565b9550506080610cf38b828c01610a28565b94505060a089013567ffffffffffffffff811115610d1457610d136113a3565b5b610d208b828c016109fa565b93505060c0610d318b828c01610a28565b92505060e089013567ffffffffffffffff811115610d5257610d516113a3565b5b610d5e8b828c016109fa565b9150509295985092959890939650565b600080600060608486031215610d8757610d866113a8565b5b6000610d9586828701610a28565b9350506020610da686828701610a28565b9250506040610db786828701610a28565b9150509250925092565b60008060008060008060c08789031215610dde57610ddd6113a8565b5b6000610dec89828a01610a28565b9650506020610dfd89828a01610a28565b9550506040610e0e89828a01610a28565b9450506060610e1f89828a01610a28565b9350506080610e3089828a01610a28565b92505060a087013567ffffffffffffffff811115610e5157610e506113a3565b5b610e5d89828a016109fa565b9150509295509295509295565b6000610e75826111f1565b610e7f81856111fc565b9350610e8f81856020860161125a565b610e98816113ad565b840191505092915050565b610eac81611241565b82525050565b6000608082019050610ec76000830187610ea3565b610ed46020830186610ea3565b8181036040830152610ee68185610e6a565b90508181036060830152610efa8184610e6a565b905095945050505050565b600060c082019050610f1a6000830189610ea3565b610f276020830188610ea3565b8181036040830152610f398187610e6a565b90508181036060830152610f4d8186610e6a565b90508181036080830152610f618185610e6a565b905081810360a0830152610f758184610e6a565b9050979650505050505050565b600061010082019050610f98600083018b610ea3565b610fa5602083018a610ea3565b8181036040830152610fb78189610e6a565b90508181036060830152610fcb8188610e6a565b9050610fda6080830187610ea3565b81810360a0830152610fec8186610e6a565b9050610ffb60c0830185610ea3565b81810360e083015261100d8184610e6a565b90509998505050505050505050565b600060c0820190506110316000830189610ea3565b61103e6020830188610ea3565b81810360408301526110508187610e6a565b905081810360608301526110648186610e6a565b90506110736080830185610ea3565b61108060a0830184610ea3565b979650505050505050565b60006060820190506110a06000830186610ea3565b6110ad6020830185610ea3565b6110ba6040830184610ea3565b949350505050565b60006080820190506110d76000830187610ea3565b6110e46020830186610ea3565b6110f16040830185610ea3565b6110fe6060830184610ea3565b95945050505050565b600060c08201905061111c6000830189610ea3565b6111296020830188610ea3565b6111366040830187610ea3565b6111436060830186610ea3565b6111506080830185610ea3565b81810360a08301526111628184610e6a565b9050979650505050505050565b600061117961118a565b9050611185828261128d565b919050565b6000604051905090565b600067ffffffffffffffff8211156111af576111ae611365565b5b602082029050602081019050919050565b600067ffffffffffffffff8211156111db576111da611365565b5b6111e4826113ad565b9050602081019050919050565b600081519050919050565b600082825260208201905092915050565b600061121882611241565b915061122383611241565b92508282101561123657611235611307565b5b828203905092915050565b6000819050919050565b82818337600083830152505050565b60005b8381101561127857808201518184015260208101905061125d565b83811115611287576000848401525b50505050565b611296826113ad565b810181811067ffffffffffffffff821117156112b5576112b4611365565b5b80604052505050565b60006112c982611241565b91507fffffffffffffffffffffffffffffffffffffffffffffffffffffffffffffffff8214156112fc576112fb611307565b5b600182019050919050565b7f4e487b7100000000000000000000000000000000000000000000000000000000600052601160045260246000fd5b7f4e487b7100000000000000000000000000000000000000000000000000000000600052603260045260246000fd5b7f4e487b7100000000000000000000000000000000000000000000000000000000600052604160045260246000fd5b600080fd5b600080fd5b600080fd5b600080fd5b600080fd5b6000601f19601f8301169050919050565b6113c781611241565b81146113d257600080fd5b5056fe436f6e63656e747261746564205761737465204c6971756964204472756d202d2043656d656e7420536f6c6964696669636174696f6e57617374652066696c746572206472756d202d2063656d656e7420536f6c6964696669636174696f6e576173746520726573696e206472756d202d2063656d656e7420536f6c6964696669636174696f6e4a61676368616472756d202d20446573616c74656420506170657220436f6d7072657373696f6e436f6e63656e747261746564205761737465204c6971756964204472756d202d20506172616666696e20536f6c6964696669636174696f6ea2646970667358221220916dbc4d16d0d348bc4eca3cbe38ab734907da4f4c645b6ed78b17df080c443064736f6c63430008060033",
  "immutableReferences": {},
  "source": "pragma solidity ^0.8.6;\r\n\r\n\r\nimport \"@openzeppelin/contracts/utils/math/SafeMath.sol\";\r\n\r\n\r\ncontract KCLOUD {\r\n    // events \r\n    event NewDrumEnrolled(uint drum_id, uint time, uint sensor_id);\r\n    event DrumPackaged(uint drum_id, uint time, string classification, string w_type, uint date_unix, string place_of_occurence, uint dose_rate, string waste_acceptance_request);\r\n    event DrumInTransit(uint drum_id, uint time, string carrier, string transportation_schedule);\r\n    event TemporaryStorage(uint drum_id, uint time, uint longitude, uint latitude, uint storage_id,  string storage_schedule);\r\n    event TakingOver(uint drum_id, uint time, string acquisition, string transferee, string transportation_schedule, string waste_acceptance_request);\r\n\r\n    \r\n    event SensorDataEvent(uint drum_id, uint time, string what, string message, uint value, uint expected_value);\r\n    event GPSDataEvent(uint drum_id, uint time, uint longitude, uint latitude);\r\n    \r\n    \r\n    \r\n    function enrollment(uint drum_id, uint time, uint sensor_id) public {\r\n        emit NewDrumEnrolled(drum_id, time, sensor_id);        \r\n    }\r\n\r\n    \r\n    function packaging(uint drum_id, uint time, string memory classification, string memory w_type, uint date_unix, string memory place_of_occurence, uint dose_rate, string memory waste_acceptance_request) public {\r\n        emit DrumPackaged(drum_id, time, classification, w_type, date_unix, place_of_occurence, dose_rate, waste_acceptance_request);        \r\n    }\r\n    \r\n    function check(uint drum_id, uint time, uint decimals, uint cWLiquidD_CS, uint cWLiquidD_PS, uint WFilterD_CS, uint WResinD_CS, uint paper_compression) private {\r\n        string memory alarm;\r\n        \r\n        uint[5] memory values = [cWLiquidD_CS, cWLiquidD_PS, WFilterD_CS, WResinD_CS, paper_compression];\r\n        string[5] memory type_name = [\"Concentrated Waste Liquid Drum - Cement Solidification\", \"Concentrated Waste Liquid Drum - Paraffin Solidification\",\r\n        \"Waste filter drum - cement Solidification\", \"Waste resin drum - cement Solidification\", \"Jagchadrum - Desalted Paper Compression\"]; \r\n        uint256[5] memory normal_range = [uint256(10), uint256(15), uint256(10), uint256(10), uint256(2)];\r\n        \r\n        \r\n        // check if normal \r\n        for (uint i = 0; i <= values.length; i++){\r\n            \r\n            if (values[i] <= normal_range[i]){\r\n                alarm = \"normal\";\r\n                emit SensorDataEvent(drum_id, time, type_name[i], alarm, values[i], normal_range[i]);\r\n            }\r\n            \r\n            if (values[i] > normal_range[i]){\r\n                alarm = \"danger\";\r\n                emit SensorDataEvent(drum_id, time, type_name[i], alarm, values[i], normal_range[i]);\r\n            }\r\n            \r\n            if (normal_range[i] - values[i] > 2) {\r\n                alarm = \"border\";\r\n                emit SensorDataEvent(drum_id, time, type_name[i], alarm, values[i], normal_range[i]);\r\n            }\r\n            \r\n            if (values[i] == 0) {\r\n                alarm = \"danger\";\r\n                emit SensorDataEvent(drum_id, time, type_name[i], alarm, values[i], normal_range[i]);\r\n            }\r\n        }\r\n    }\r\n    \r\n    function checkGPS(uint drum_id, uint time, uint decimals, uint longitude, uint latitude) private{\r\n        if (1 == 1) {\r\n            emit GPSDataEvent(drum_id, time, longitude, latitude);\r\n        }\r\n    }\r\n    struct SensorData{\r\n        uint decimals;\r\n        uint cWLiquidD_CS;\r\n        uint cWLiquidD_PS;\r\n        uint WFilterD_CS;\r\n        uint WResinD_CS;\r\n        uint paper_compression;\r\n        uint longitude;\r\n        uint latitude;\r\n    }\r\n    \r\n    \r\n    modifier checksSensorData(uint drum_id, uint time, uint[] memory sensor_data) {\r\n        \r\n        SensorData memory m = SensorData({\r\n        \r\n            decimals: sensor_data[0],\r\n            cWLiquidD_CS: sensor_data[1],\r\n            cWLiquidD_PS: sensor_data[2],\r\n            WFilterD_CS: sensor_data[3],\r\n            WResinD_CS: sensor_data[4],\r\n            paper_compression: sensor_data[5],\r\n            longitude: sensor_data[6],\r\n            latitude: sensor_data[7]\r\n        });\r\n        \r\n        check(drum_id, time, m.decimals, m.cWLiquidD_CS, m.cWLiquidD_PS, m.WFilterD_CS, m.WResinD_CS, m.paper_compression);\r\n        checkGPS(drum_id, time, m.decimals, m.longitude, m.latitude);\r\n        _;\r\n    }\r\n    \r\n    function transit(uint drum_id, uint time, string memory carrier, string memory transportation_schedule) public {\r\n           emit DrumInTransit(drum_id, time, carrier, transportation_schedule);\r\n    }\r\n    \r\n    function passSensorData(uint drum_id, uint time, uint[] memory sensor_data) checksSensorData(drum_id, time, sensor_data) public{\r\n                    \r\n    }\r\n    \r\n    function temporaryStorage(uint drum_id, uint time, uint longitude, uint latitude, uint storage_id, string memory storage_schedule) public{\r\n           emit TemporaryStorage(drum_id, time, longitude, latitude, storage_id, storage_schedule);\r\n    }\r\n\r\n    function takingOver(uint drum_id, uint time, string memory acquisition, string memory transferee, string memory transportation_schedule, string memory waste_acceptance_handover) public {\r\n           emit TakingOver(drum_id, time, acquisition, transferee, transportation_schedule, waste_acceptance_handover);\r\n    }\r\n}",
  "sourcePath": "C:/Users/ollie/OneDrive - unist.ac.kr/Desktop/KCLOUD/reactGraphkCLOUD/truffleSide/contracts/kcloud.sol",
  "compiler": {
    "name": "solc",
    "version": "0.8.6+commit.11564f7e.Emscripten.clang"
  },
  "schemaVersion": "3.4.1",
  "updatedAt": "2021-09-02T19:35:16.959Z",
  "networkType": "ethereum",
  "devdoc": {
    "kind": "dev",
    "methods": {},
    "version": 1
  },
  "userdoc": {
    "kind": "user",
    "methods": {},
    "version": 1
  }
}